:020000040800F2
:10000000180B00203D340008890400088B04000808
:100010008F04000893040008970400080000000003
:100020000000000000000000000000009B04000829
:100030009D040008000000009F040008A1040008BF
:100040005734000857340008573400085734000864
:100050005734000857340008573400085734000854
:100060005734000857340008573400085734000844
:100070005734000857340008573400085734000834
:100080005734000857340008573400085734000824
:100090005734000857340008573400085734000814
:1000A0005734000857340008573400085734000804
:1000B00057340008573400085734000857340008F4
:1000C00057340008573400085734000857340008E4
:1000D00057340008B133000857340008573400087B
:1000E00057340008573400085734000857340008C4
:1000F00057340008573400085734000857340008B4
:1001000057340008573400085734000857340008A3
:100110005734000857340008573400085734000893
:100120005734000857340008573400085734000883
:1001300000F002F800F03AF80AA090E8000C8244BF
:100140008344AAF10107DA4501D100F02FF8AFF29C
:10015000090EBAE80F0013F0010F18BFFB1A43F0A5
:1001600001031847107F0700307F0700103A24BFB3
:1001700078C878C1FAD8520724BF30C830C144BF0C
:1001800004680C607047000000230024002500264E
:10019000103A28BF78C1FBD8520728BF30C148BFEA
:1001A0000B6070471FB51FBD10B510BD04F076FA87
:1001B0001146FFF7F7FF00F0CFF804F094FA03B40C
:1001C000FFF7F2FF03BC03F095F800001CB54FF6F3
:1001D000FF7002F040FB1F208C4908808CA010218A
:1001E000CDE900108B490988183988B21023C8223C
:1001F000002102F083FF4FF47840844908801CBD41
:1002000008B50025844885490860084600680068EC
:1002100040F23F13EF2200210090084602F03DFD1E
:1002200063207F49086096E0002000F07DFA0446D4
:100230007C484168002088477A48007D00F08000B3
:1002400098B17848008A73490988884211DA75485C
:10025000408A7049498888420BDA7248428A018A8A
:100260006E48006801F084FE03E06C48006801F00D
:10027000AAFE002C07DD052C05DA21466748006838
:1002800001F0C5FE03E06548006801F0C1FE644866
:100290000068401C624908600846006849F6404111
:1002A00088420FDD00205E490860002605E05B49BA
:1002B0000968C86E02F0AFF8761C58480068806E76
:1002C000B042F4DC55480068406F012843D15649DC
:1002D000086052490968C96E086902F0B4FF00203D
:1002E0005249C1F888014D490968096F086902F04F
:1002F000AAFF4B48006842F2107108444849086060
:1003000046480068D0F88000012824D1434800689E
:10031000C06E0069054441480068006F00690544EB
:100320003E480068C06FA84215DA3C480068C06EBD
:1003300007693A480068006F006938490968C96E62
:10034000086136480068006F0761002500203349C6
:100350000968C1F8800067E71CB502F05BFF02F096
:10036000C3FF4FF4E13002F0D4FF00F08BF902F04C
:1003700088FA00F0BFF94FF47840244908802CA097
:1003800010210B46C822CDE9001032213C2002F09A
:10039000B5FE2BA010210B46C822CDE90010462146
:1003A0003C2002F0ABFE29A010210B46C822CDE96B
:1003B00000105A213C2002F0A1FE28A010210B467B
:1003C000C822CDE900106E213C2002F097FE26A045
:1003D00010210B46C822CDE9001082213C2002F0FA
:1003E0008DFE104908688047254826490860084660
:1003F000006840F23F13EF2200210090084602F00F
:100400004CFC01F07AFEFFF7FBFE000054000020D8
:1004100052535400DC030020840000204C000020D4
:10042000000000201C000020888121420080214221
:10043000576172536869702053544D333200000085
:10044000544F5543482054455354000041544F4D98
:1004500040414C49454E54454B000000323031324A
:100460002F392F31310000005072657373204B45D6
:10047000593020746F2041646A7573740000000065
:100480007652000878000020704700BFFEE700BFEA
:10049000FEE700BFFEE700BFFEE77047704770470A
:1004A000704700000CB50020019000906C48006877
:1004B00040F480306A49086000BF6948006800F471
:1004C000003000900198401C0190009818B90198E4
:1004D000B0F5A06FF1D16248006800F4003010B1AF
:1004E0000120009001E0002000900098012843D1F5
:1004F0005C48006840F010005A49086008460068EF
:1005000020F0030008600846006840F00200086020
:100510005348406852494860084640684860084669
:10052000406840F4806048600846406820F47C10D1
:1005300048600846406840F4E81048600846006893
:1005400040F08070086000BF4548006800F000700F
:100550000028F9D04248406820F003004049486034
:100560000846406840F00200486000BF3C484068D0
:1005700000F00C000828F9D10CBD10B5FFF792FF70
:1005800010BD10B53648006840F0010034490860DD
:1005900008464068344908403149486008460068C8
:1005A000324908402E4908600846006820F480203F
:1005B00008600846406820F4FE0048604FF41F00C1
:1005C0008860FFF7DAFF4FF000602949086010BD2E
:1005D00010B5002100200022214B5B6803F00C01C4
:1005E00021B1042906D0082928D107E0214B224C4B
:1005F000236027E01F4B204C236023E0184B5B68EF
:1006000003F47010164B5B6803F48032022303EB93
:10061000904022B9194B4343174C23600DE0104B17
:100620005B6803F4003323B1144B4343124C236043
:1006300003E0104B4343104C236003E00D4B0E4C82
:10064000236000BF00BF064B5B68C3F303130C4C71
:10065000E15C094B1B68CB40074C236010BD0000D8
:1006600000100240002002400000FFF8FFFFF6FEED
:1006700008ED00E000127A000400002000093D00AF
:100680000800002008B50121482003F087FD202044
:10069000ADF8000010208DF8030003208DF8020053
:1006A0006946124803F0BEFA2021104803F067FBA8
:1006B0000420ADF8000010208DF8030003208DF811
:1006C00002006946094803F0ADFA0421074803F027
:1006D00056FB2020ADF800006946054803F0A2FA59
:1006E0002021034803F04BFB08BD0000000C014033
:1006F0000018014008B50121442003F04FFD1C20E3
:10070000ADF8000048208DF803006946354803F035
:1007100089FA0120ADF8000028208DF80300694611
:10072000314803F07FFA08BD10B5044614B101202A
:100730002E4908702D480078002837D0102129480C
:1007400003F003FB78B10821264803F0FEFA50B10C
:100750000421244803F0F9FA28B10121224803F0CA
:10076000F4FA012822D10A2002F091FD00201F494D
:10077000087010211B4803F0E8FA08B9012010BDE9
:100780000821184803F0E1FA08B90220F7E704212C
:10079000144803F0DAFA08B90320F0E701211248FF
:1007A00003F0D3FA01281BD10420E8E710210D48FB
:1007B00003F0CBFA012813D108210A4803F0C5FA47
:1007C00001280DD10421074803F0BFFA012807D101
:1007D0000121054803F0B9FA10B901200349087056
:1007E0000020CCE70018014000080140180000205C
:1007F00008B50121082003F0D1FC4FF44060ADF8AA
:10080000000010208DF8030003208DF802006946D7
:10081000944803F007FA4FF44061924803F0AFFAAE
:100820000120914908609149C1F8AC0108BD10B59B
:100830008C48001D006820F470408A49091D08603A
:100840000846006840F44050086001208649091DB0
:1008500008608649C1F8A801042002F0F4FC0020D9
:100860008149091D0860042002F0EDFC00207F4949
:10087000C1F8A80110BD10B57A48001D006820F429
:1008800070407849091D08600846006840F44050EF
:1008900008600020744908607449C1F8AC01042064
:1008A00002F0D1FC0120704908607049C1F8AC0128
:1008B000042002F0C8FC10BD10B500246948001DDA
:1008C000006820F470406749091D08600846006808
:1008D00040F40040086001206349091D086002F0EF
:1008E000B2FC01206149C1F8A80102F0ACFC07E0AC
:1008F000601CC4B2FA2C03DDFFF7BDFF012010BD60
:1009000059487C3800680028F2D15749086000BF78
:10091000F5E710B50020544908605248001D0068F2
:1009200020F470404F49091D08600846006840F4F3
:100930004050086000204D49C1F8AC01022002F08F
:1009400082FC012048490860022002F07CFC002063
:100950004649C1F8A80110BD10B500204249086001
:100960004048001D006820F470403E49091D0860A1
:100970000846006840F44050086001203B49C1F837
:10098000AC01022002F05FFC012037490860022020
:1009900002F059FC00203549C1F8A80110BD70B51E
:1009A00004463048001D006820F470402D49091DA0
:1009B00008600846006840F44050086000202A495A
:1009C0000860002517E0E0092749091D0860600656
:1009D000040E022002F037FC01202449C1F8A801CE
:1009E000022002F030FC00201F490860022002F0C3
:1009F0002AFC681CC5B2082DE5DB70BD70B5054644
:100A000000241848001D006820F470401549091D95
:100A100008600846006840F400400860002616E0C0
:100A2000002011490860022002F00DFC01200F494E
:100A3000C1F8A8016006040E0B487C38006808B1B4
:100A4000601CC4B2012002F0FEFB701CC6B2082E6E
:100A5000E6DB15B9FFF780FF01E0FFF75AFF2046FC
:100A600070BD0000000C0140A8812142008021429D
:100A700010B5FFF7BDFE10BD70B504460026FFF7A8
:100A8000D6FE2546E11704EB11610912A02202EB04
:100A90004101C8B2FFF783FFFFF70EFFE11704EB38
:100AA00011610912A4EB0121C8B2FFF778FFFFF72B
:100AB00003FFFFF7BCFEA120FFF771FFFFF7FCFE6D
:100AC0000020FFF79BFF0646FFF7D5FE304670BDBE
:100AD00070B504460E46FFF7AAFE2546E11704EB63
:100AE00011610912A02202EB4101C8B2FFF757FFC2
:100AF000FFF7E2FEE11704EB11610912A4EB0121FB
:100B0000C8B2FFF74CFFFFF7D7FE3046FFF747FFAD
:100B1000FFF7D2FEFFF7AFFE0A2002F0B8FB70BD70
:100B20002DE9F04105460E461746002409E0E20093
:100B300026FA02F2D1B22A1990B2FFF7C9FF601C5F
:100B4000C4B2BC42F3DBBDE8F0812DE9F0410746B9
:100B50000C460026002509E036023919491B491EBA
:100B600088B2FFF789FF0644681CC5B2A542F3DBD3
:100B70003046BDE8F08110B5FF20FFF77DFF044649
:100B8000552C01D1002010BD5521FF20FFF7A0FFFB
:100B9000FF20FFF771FF0446552C01D10020F2E73A
:100BA0000120F0E770B506460C46154608E03046D1
:100BB000721C96B2FFF760FF04F8010B681E85B245
:100BC000002DF4D170BD70B505460C46164606E002
:100BD00021782846FFF77CFF681C85B2641C300032
:100BE000A6F101018EB2F3D170BD0000002100BF5B
:100BF00014E000F080021AB10122FE4B1A6002E0FC
:100C00000022FC4B1A604206100E0022FA4B1A60BA
:100C10000122FA4BC3F884214A1CD1B20829E8DB2F
:100C2000704770B50646002500240020F249086090
:100C3000F349C1F8A401EF49083108603046FFF7D5
:100C4000D5FF062002F0FFFA0020EC49C1F884012C
:100C5000012002F0F8FA0120E74908600020E74986
:100C6000C1F8840100BF12E04FF6FF7000EA4404AF
:100C70000020E14908600120E049C1F88401DD4815
:100C80008438006808B1601C84B2681CC5B2102D9D
:100C9000EADB24110120D74908310860204670BDE5
:100CA0002DE9FE4380460027002406E04046FFF77A
:100CB000B8FF2DF81400601C84B2052CF6DB00246C
:100CC00016E0601C85B20FE03DF814003DF81510E9
:100CD000884207DD3DF814603DF815002DF814003A
:100CE0002DF81560681C85B2052DEDDB601C84B203
:100CF000042CE6DB0027012405E03DF8140038440D
:100D000087B2601C84B2042CF7DB032097FBF0F061
:100D100086B23046BDE8FE832DE9F04104460D461B
:100D2000B8480078FFF7BCFF0646B7480078FFF7E1
:100D3000B7FF074626802F800120BDE8F0817FB5F0
:100D400004460D4602A903A8FFF7E6FF064616B9BA
:100D5000002004B070BD694601A8FFF7DDFF06461C
:100D60000EB90020F5E7BDF80400BDF80C1088426C
:100D700006DCBDF80C10BDF80400323081420CDBFB
:100D8000BDF80C00BDF80410884236DCBDF8041034
:100D9000BDF80C00323081422FDABDF80000BDF8FA
:100DA0000810884206DCBDF80810BDF8000032309B
:100DB00081420CDBBDF80800BDF8001088421CDC45
:100DC000BDF80010BDF808003230814215DABDF8D8
:100DD0000C10BDF80420881800EBD071C1F34F014E
:100DE0002180BDF80810BDF80020881800EBD071F4
:100DF000C1F34F0129800120ABE70020A9E770B5BE
:100E000004460D4616468148068004F10D018AB25B
:100E1000193988B22B46294601F06DFF05F10D0006
:100E200083B2193881B22246204601F064FF6A1C61
:100E300091B2621C90B201F068FC6A1C91B2621E11
:100E400090B201F062FC6A1E91B2621C90B201F095
:100E50005CFC6A1E91B2621E90B201F056FC062242
:100E60002946204602F07DF970BD70B504460D4656
:100E70001646664806802946204601F046FC611C5D
:100E800088B2294601F041FC681C81B2204601F07D
:100E90003CFC6A1C91B2621C90B201F036FC70BD41
:100EA0002DE9F041044653487C380068002853D1AE
:100EB00024B15749881EFFF742FF3CE05449881E81
:100EC000FFF73DFFB8B352491239B1F9200004F0E1
:100ED00065F807464E491239088A04F077F88046CB
:100EE0004B4812388169404604F084F8064639467A
:100EF00003F0F4FE054604F031F845491239088242
:100F0000B1F9220004F04AF8074641491239488AEB
:100F100004F05CF880463E481238C169404604F04F
:100F200069F80646394603F0D9FE054604F016F87E
:100F300037491239488236481238007D00F0800067
:100F400010BBC0203249123908750846008A8881D2
:100F50000846408AC88117E02D481238007D00F00D
:100F6000800040B12A481238007D20F080002849D6
:100F70001239087508E00020254912398881C88196
:100F80004FF6FF700882488221481238007D00F039
:100F90008000BDE8F08170B51D49123988691D498E
:100FA00004F028F8054603F0BDFF0446042221465C
:100FB0002820FFF7B5FD16491239C869154904F014
:100FC00019F8054603F0AEFF0446042221462C2002
:100FD000FFF7A6FD0E481238B0F92010022230208B
:100FE000FFF79EFD0A481238B0F922100222322083
:100FF00012E00000A481234284812142008021422A
:1010000000802342440000204500002054000020BE
:101010002E00002020BCBE4CFFF782FDF74890F860
:1010200024103420FFF754FD0A2421463520FFF711
:101030004FFD70BD70B53520FFF71EFD04460A2C2C
:1010400042D104212820FFF780FD0446204603F00A
:10105000A5FF0546EA4903F0A3FEE849886104219B
:101060002C20FFF772FD0446204603F097FF05464B
:10107000E34903F095FEE149C86102213020FFF702
:1010800064FD00B2DD49088402213220FFF75DFDD6
:1010900000B2DA4948843420FFF7EEFCD74981F8E2
:1010A0002400084690F8240030B19020D5490870FB
:1010B000D020D549087005E0D020D2490870902092
:1010C000D1490870012070BD0020FCE72DE9FC5FCC
:1010D00004460D4617461E46DDE90EABDDE90C89D8
:1010E0004FF47840C9490880C9A01021CDE900100B
:1010F000C84843880288A021282001F0FFFFC6A02D
:101100001021CDE90010C34843880288A02178202F
:1011100001F0F4FFC1A01021CDE90010BD484388C3
:101120000288B421282001F0E9FFBDA01021CDE9FB
:101130000010B84843880288B421782001F0DEFF0F
:10114000B8A01021CDE90010B24843880288C82118
:10115000282001F0D3FFB4A01021CDE90010AD4844
:1011600043880288C821782001F0C8FFAFA0102171
:10117000CDE90010A74843880288DC21282001F02F
:10118000BDFFABA01021CDE90010A2484388028822
:10119000DC21782001F0B2FFA6A01021CDE90010DB
:1011A0009C4843880288F021282001F0A7FF1020E6
:1011B00004232246A0210090402001F0F6FE1020DA
:1011C00004232A46A0210090902001F0EEFE10207A
:1011D00004233A46B4210090402001F0E6FE10209E
:1011E00004233246B4210090902001F0DEFE10204E
:1011F00004234246C8210090402001F0D6FE102072
:1012000004234A46C8210090902001F0CEFE102011
:1012100004235246DC210090402001F0C6FE10203D
:1012200004235A46DC210090902001F0BEFE1020DD
:1012300000907848018803236020109A01F0B5FEE1
:10124000BDE8FC9F00B595B0002010900A9010906A
:101250001F206E4908804FF6FF707849088001F022
:10126000FAFA4FF47840694908804FF6FF7001F0B0
:10127000F2FA002065490880714800681021642353
:10128000A022CDE900102821084601F037FF4FF4D5
:10129000784214210846FFF7B2FD0020574908752F
:1012A0008861E8E35548406809900120099988471A
:1012B0005248007D00F0C00040287AD100200A90FA
:1012C0004E48007D20F040004C4908750846018AD0
:1012D00011AA109822F820104848418A109802EB71
:1012E000800041801098401CC0B2109010980128D6
:1012F00006D0022815D0032829D0042810D141E0B7
:101300004FF6FF7214210846FFF779FD4148008827
:10131000143880B24FF4784214210990FFF76FFD22
:1013200099E33C480088143880B24FF6FF721421CC
:101330000990FFF764FD37484088143880B24FF4B5
:101340007842014609901420FFF759FD83E33148A4
:101350004088143880B24FF6FF720146099014207D
:10136000FFF74DFD2B484088143880B2099029487A
:101370000088143880B24FF4784208900999FFF73A
:101380003EFD68E3BDF84400BDF84810401A0990DE
:10139000002801DB099801E0099840420D90BDF852
:1013A000461011A8C088081A0990002802DB099885
:1013B00002E051E3099840420C900D9840430D9093
:1013C0000C9840430C90DDE90C100844059003F0A4
:1013D000F0F9CDE9060103F08CF9CDE9080103F03D
:1013E000BBF980B20F90BDF84C00BDF85010401A08
:1013F0000990002826DB099826E000001C00002048
:1014000020BCBE4C440000204500002054000020B9
:1014100078313A00DC03002079313A0078323A0022
:1014200079323A0078333A0079333A0078343A0026
:1014300079343A006661632069733A0056000020EF
:1014400048000020099840420D9011A84189C089A8
:10145000081A0990002801DB099801E00998404228
:101460000C900D9840430D900C9840430C90DDE992
:101470000C100844059003F09CF9CDE9060103F037
:1014800038F9CDE9080103F067F980B20E900E98A3
:1014900003F09CFD09900F9803F098FD08900999BE
:1014A00003F07EFC0B900B9803F0ECFB4FF06632E0
:1014B000FE4BCDE9080103F08FF90DD30B9803F033
:1014C000E1FBFB4AFB4BCDE9080103F0BFFA03D374
:1014D0000F9808B10E98E8BB00201090F64840889D
:1014E000143880B20990F4480088143880B24FF65E
:1014F000FF7208900999FFF782FC4FF4784214219B
:101500000846FFF77CFCED490B9803F073FD08904B
:1015100003F024FD80B211A90990C989BDF85020BB
:1015200011AB5B89CDE90132CDE90310BDF84C0068
:10153000009011A8C0880890BDF848000790BDF839
:1015400046000690BDF84400059006A90EC9FFF7B5
:10155000BDFD90E2FFE7BDF84400BDF84C10401A15
:101560000990002801DB099801E0099840420D909C
:10157000BDF8461011A84089081A0990002801DB1F
:10158000099801E0099840420C900D9840430D9055
:101590000C9840430C90DDE90C100844059003F0D2
:1015A00008F9CDE9060103F0A4F8CDE9080103F03C
:1015B000D3F880B20F90BDF84800BDF85010401A23
:1015C0000990002801DB099801E0099840420D903C
:1015D00011A8C188C089081A0990002801DB099860
:1015E00001E0099840420C900D9840430D900C98F2
:1015F00040430C90DDE90C100844059003F0D9F845
:10160000CDE9060103F075F8CDE9080103F0A4F86F
:1016100080B20E900E9803F0D9FC09900F9803F059
:10162000D5FC0890099903F0BBFB0B900B9803F0D5
:1016300029FB4FF066329D4BCDE9080103F0CCF851
:1016400009D30B9803F01EFB994A9A4BCDE9080188
:1016500003F0FCF93DD200201090974840881438E0
:1016600080B2099094480088143880B24FF6FF7217
:1016700008900999FFF7C3FB4FF4784214210846FC
:10168000FFF7BDFB8D490B9803F0B4FC089003F005
:1016900065FC80B211A90990C989BDF8502011AB31
:1016A0005B89CDE90132CDE90310BDF84C00009013
:1016B00011A8C0880890BDF848000790BDF8460002
:1016C0000690BDF84400059006A90EC9FFF7FEFC80
:1016D000D1E1BDF84800BDF84C10401A099000282F
:1016E00001DB099801E0099840420D9011A8C188DA
:1016F0004089081A0990002801DB099801E009983F
:1017000040420C900D9840430D900C9840430C9033
:10171000DDE90C100844059003F04BF8CDE9060113
:1017200002F0E7FFCDE9080103F016F880B20F9050
:10173000BDF84400BDF85010401A0990002801DBA4
:10174000099801E0099840420D90BDF8461011A893
:10175000C089081A0990002801DB099801E009985E
:1017600040420C900D9840430D900C9840430C90D3
:10177000DDE90C100844059003F01BF8CDE90601E3
:1017800002F0B7FFCDE9080102F0E6FF80B20E904B
:101790000E9803F01BFC09900F9803F017FC0890BB
:1017A000099903F0FDFA0B900B9803F06BFA4FF0D8
:1017B00066323E4BCDE9080103F00EF809D30B98D1
:1017C00003F060FA3A4A3B4BCDE9080103F03EF9D9
:1017D0003DD20020109038484088143880B20990DB
:1017E00035480088143880B24FF6FF720890099986
:1017F000FFF705FB4FF4784214210846FFF7FFFA84
:101800002E490B9803F0F6FB089003F0A7FB80B27B
:1018100011A90990C989BDF8502011AB5B89CDE9A8
:101820000132CDE90310BDF84C00009011A8C0882A
:101830000890BDF848000790BDF846000690BDF836
:101840004400059006A90EC9FFF740FC13E1BDF85E
:101850004800BDF84410401A079003F09FFB099020
:10186000154800882838079003F098FB08900999DC
:1018700003F096FA12498861BDF84800BDF844109B
:101880000844049003F08AFB05900D4880690146E6
:101890000490059803F0AEFB079007480088059078
:1018A00003F094FB069007990CE000006666EE3F9B
:1018B000CDCCCCCCCCCCF03FDC0300200000C84227
:1018C0001C00002003F062FC4FF08041089003F000
:1018D00067FA099003F026FB00B28C49088411A82E
:1018E0004089BDF84610401A079003F057FB099055
:1018F000874840882838079003F050FB08900999E2
:1019000003F04EFA8149C86111A84089BDF846101C
:101910000844049003F042FB05907C48C0690146EE
:101920000490059803F066FB07907948408805907D
:1019300003F04CFB0690079903F028FC4FF0804120
:10194000089003F02DFA099003F0ECFA00B26F4909
:10195000488408468069079003F0E4FA089000285C
:1019600001DB089801E00898404202280DDC674836
:10197000C069079003F0D6FA0990002801DB0998A6
:1019800001E009984042022842DD002010906048A2
:101990004088143880B209905D480088143880B2BD
:1019A0004FF6FF7208900999FFF729FA4FF4784231
:1019B00014210846FFF723FA56A01021CDE90010A4
:1019C00053484088099052480088089002461A21DE
:1019D0002820099B01F092FB4C4890F8240008B99C
:1019E000012000E00020494981F82400084690F8D1
:1019F000240030B190204C490870D0204B49087029
:101A000005E0D0204849087090204849087032E02D
:101A10001F20474908804FF6FF7000F01CFF45A0CB
:101A20001021CDE900103A484088099038480088D4
:101A3000089002466E212320099B01F05FFB4FF4C2
:101A40007A7001F024FCFFF7A6FA4FF6FF7000F061
:101A500002FF15B000BD00BF0A2001F018FC0A9873
:101A6000401C80B20A900A98B0F57A7F02DDFFF739
:101A7000E1FA01E000BF15E400BF00BFE9E708B5E7
:101A80000121882002F08AFB0220ADF8000010201E
:101A90008DF8030003208DF8020069462B4802F000
:101AA000C1F80221294802F06AF94FF42060ADF82C
:101AB00000006946264802F0B5F84FF4206124483A
:101AC00002F05DF94FF4A060ADF8000048208DF8F9
:101AD000030069461E4802F0A5F80C491231881E21
:101AE000FFF71AF9FEF7C4FFFFF7A4FA08B10020C8
:101AF00008BD4FF6FF7000F0AEFEFFF7A3FBFFF747
:101B00004AFAFFF797FA0120F2E700001C000020D4
:101B1000DC0300205450204E6565642072656164CA
:101B20006A75737421000000440000204500002005
:101B300054000020546F7563682053637265656EAE
:101B40002041646A757374204F4B2100000C0140E2
:101B5000001C014002468A4201DA104670470846DE
:101B6000FCE702468A4201DA084670471046FCE765
:101B700001460020704740B9F749096809B90121B9
:101B800000E00021F44A116000E000BF00BF704790
:101B900038B50546142D6FD2DFE805F00A1A236E1A
:101BA0006E6E426991A7BDD3F1EFEEEDECEBEAE981
:101BB000E948006808B9012000E00020E649086013
:101BC000E6480469806AE549086108468462AEE136
:101BD000E348406F08B9012000E00020E049486771
:101BE000A5E1E048006808B9012000E00020DD49D7
:101BF0000860DB488430DC490860084600680068FB
:101C000040F23F13EF2200210090084601F045F812
:101C10000120D54909688867D3490968486786E182
:101C2000D048006808B9012000E00020CD490860D4
:101C3000CB488430CC49086008460068006840F210
:101C40003F13EF2200210090084601F026F8002003
:101C5000C64908600846006800EB4000BF4901EB38
:101C6000C0000169BE48D0F8F00001615FE1BD48E5
:101C7000006810B9012001E058E10020B94908606E
:101C8000B7488430B849086008460068006840F2E8
:101C90003F13EF2200210090084600F0FEFF0120D4
:101CA000B24908600846006800EB4000AB4901EB10
:101CB000C0000169AA48D0F8F000016137E1A948E5
:101CC000006808B9012000E00020A6490860A44887
:101CD000D0F8F000006900EB8000002101EB40012A
:101CE0009F48D0F8F000016121E19E48006808B9E2
:101CF000012000E000209B4908609948D0F8F000DE
:101D0000006900EB8000012101EB40019448D0F80C
:101D1000F00001610BE19348006808B9012000E080
:101D20000020904908608E48D0F8F000006900EB70
:101D30008000022101EB40018948D0F8F0000161E8
:101D4000F5E08848006808B9012000E000208549D6
:101D500008608348D0F8F000006900EB80000321A0
:101D600001EB40017E48D0F8F0000161DFE09EE029
:101D700089E072E05BE044E02DE016E0FFE779489F
:101D8000006808B9012000E0002076490860744826
:101D9000D0F8F000006900EB8000042101EB400165
:101DA0006F48D0F8F0000161C1E06E48006808B9E2
:101DB000012000E000206B4908606948D0F8F0007D
:101DC000006900EB8000052101EB40016448D0F878
:101DD000F0000161ABE06348006808B9012000E051
:101DE0000020604908605E48D0F8F000006900EB10
:101DF0008000062101EB40015948D0F8F000016154
:101E000095E05848006808B9012000E000205549D5
:101E100008605348D0F8F000006900EB800007210B
:101E200001EB40014E48D0F8F00001617FE04D48E1
:101E3000006808B9012000E000204A4908604848CD
:101E4000D0F8F000006900EB8000082101EB4001B0
:101E50004348D0F8F000016169E04248006808B9E1
:101E6000012000E000203F4908603D48D0F8F00024
:101E7000006900EB8000092101EB40013848D0F8EF
:101E8000F000016153E03748006808B9012000E024
:101E90000020344908603248D0F8F00000690A2177
:101EA00090FBF1F12E48D0F8F00001613FE02D48A1
:101EB000006808B9012000E000202A4908602A488B
:101EC0000068806F012816D124480469806A23497C
:101ED0000861084684622248D0F8F000006942F2A6
:101EE0001071484320490968C86701201E490968E4
:101EF000C1F880001BE01A481B49086008460068CA
:101F0000006840F23F13EF2200210090084600F0E5
:101F1000C4FE1348D0F8F00000691449096801EBC9
:101F200041010E4A02EBC101086100E000BF00BFA1
:101F300038BD10B504462068904208DC086890421D
:101F400005DB6068984202DC4868984201DA0020AC
:101F500010BD0120FCE70000940123421C03002077
:101F600084000020948121424C0000205000002079
:101F7000F0B504460E4617466068012800D1F0BD52
:101F800001206060A660E760002517E004F1180CEE
:101F90005CF825C00CF1080104F1180C5CF8250070
:101FA000D4E90223FFF7C5FF012806D104F1180187
:101FB00051F825100869FFF7DEFD6D1C6069A84225
:101FC000E4DC00BFDBE770B50446606800B970BDB3
:101FD000002515E004F1180656F8256006F1080101
:101FE00004F1180656F82500D4E90223FFF7A1FFF3
:101FF00028B1314651F825100869FFF7C9FD6D1C5D
:102000006069A842E6DC0020606000BFDFE770473F
:1020100070472DE9F04107460D461646DDE90648B2
:1020200031463846FFF796FD206019462846FFF7EF
:1020300091FD606031463846FFF793FDA060194678
:102040002846FFF78EFDE060C4F81080BDE8F081FF
:102050002DE9F04705460E4617461C46DDE908986F
:10206000C4F80C906560A66000202060384602F03D
:1020700059FF2061C4F81480BDE8F087BD48BE490F
:102080000860BE484860BE488860BE48C860BE4818
:102090000861BE484861BE488861BE48C861BE4804
:1020A0000862BE484862704710B5029C01604260F9
:1020B0008360C46010BD002100EB4012B84B03EBFD
:1020C0008202516000EB401203EB8202116100EBCF
:1020D000401203EB8202516700EB401203EB8202D5
:1020E000916700EB401203EB8202D16700EB4012D4
:1020F00003EB8202C2F88010704730B5BFB0FFF723
:10210000BDFF002406E004EB8400A64901EB80003B
:102110000461641C142CF6DB0020FFF7CCFFA248FE
:102120009F49086002208866052048619D488861B3
:1021300000219B48806985233B22CDE9000169216C
:102140001E20FFF766FF974814309549C8610121AA
:102150009348C069B0233B22CDE9000194211E20A1
:10216000FFF757FF8F4828308D49086202218C48BD
:10217000006ADC233B22CDE90001BE211C20FFF7D1
:1021800048FF884878308649486206218448406A7A
:10219000B3237222CDE900016D214D20FFF739FFF5
:1021A00080488C307E49886207217D48806A4FF4E0
:1021B00086737222CDE90001C8214620FFF729FF6E
:1021C0007A487749C8660020009001900846784A0E
:1021D0007221C36E5120FFF73BFF744818307049DD
:1021E000086700200121CDE900106D48714ACF2118
:1021F000036F5320FFF72CFF0120FFF75CFF6E48B1
:102200006749C1F8840001216548C0F8EC100C2131
:10221000C0F8981040F23B107C2340F20112582184
:1022200000900FA8FFF740FF4720BA230C22962109
:10223000009013A8FFF738FF9E20BA23632297214E
:10224000009017A8FFF730FFF020B923B62297219E
:1022500000901BA8FFF728FF46207C230B22582163
:1022600000901FA8FFF720FF9E207C2364225921A5
:10227000009023A8FFF718FFF2207C23B8225921F1
:10228000009027A8FFF710FF46203B230B221821C0
:1022900000902BA8FFF708FF9C203D236322192103
:1022A00000902FA8FFF700FFF0203C23B822182150
:1022B000009033A8FFF7F8FE4FF49E70B9234FF457
:1022C00081729621009037A8FFF7EEFE40F23D1094
:1022D0003F2340F20112192100903BA8FFF7E4FED2
:1022E000002405E004F1080003A941F82400641C5F
:1022F0000C2CF7DB002427E003A850F8240000EBA7
:102300008000284901EB800125489C3040F82410CA
:1023100003A850F8241022489C3050F824000FAD38
:1023200005EB0415CDE90001EB680FAD05EB0415D5
:10233000AA680FAD05EB041569680FAD05EB041530
:102340002868FFF766FE641C0C2CD5DB174830307C
:102350001349C1F8F00001200221CDE90010104816
:1023600000221921D0F8F030CA20FFF771FE3FB0EB
:1023700030BD000076020508B4030020D60305082E
:102380003605050896060508F607050856090508E6
:10239000B60A0508160C0508760D0508D60E0508C0
:1023A000840000208C01002076AA02081C03002073
:1023B00000007A440080BB44361005084B4A90FB6D
:1023C000F2F302FB130242F2107392FBF3F20A6083
:1023D0001A4690FBF2F302FB13024FF47A7392FB5E
:1023E000F3F24A601A4690FBF2F302FB13026423F5
:1023F00092FBF3F28A60642290FBF2F302FB130279
:102400000A2392FBF3F2CA600A2290FBF2F302FB6A
:1024100013020A61704730B587B0044602A92069EB
:10242000FFF7CCFF206810B101285BD159E030499B
:10243000029851F82000009025890A35ABB2A58892
:102440000F35AAB22589A9B2A588A8B200F025FC4B
:102450002749039851F82000009025891535ABB223
:10246000A5880F35AAB225890B35A9B2A588A8B2CF
:1024700000F013FC1E49049851F8200000902589B3
:102480002035ABB2A5880F35AAB225891635A9B279
:10249000A588A8B200F001FC1549059851F8200064
:1024A000009025892B35ABB2A5880F35AAB22589B6
:1024B0002135A9B2A588A8B200F0EFFB0C49069817
:1024C00051F82000009025893635ABB2A5880F352C
:1024D000AAB225892C35A9B2A588A8B200F0DDFBE7
:1024E00000E000BF00BF07B030BD0000A0860100C3
:1024F000B4030020FE4908807047FD49891C08800C
:10250000704708B5FA48801C00880090BDF80000AC
:1025100008BDF74A1080921C1180704710B5044620
:102520002046FFF7E7FF052000F08DFEFFF7E9FFEB
:1025300010BDF0480089EE4908807047EC49891CBD
:102540000880704730B5014601F01F04C1F3451300
:10255000CA0AE50205EB43151544A8B230BD00BF19
:102560000100A0F10102D0B2FAD1704700B50246D5
:102570000B46E0494889FFF7BDFF1012FFF7BDFF8A
:10258000D0B2FFF7BAFFDB498889FFF7B3FF181213
:10259000FFF7B3FFD8B2FFF7B0FF00BD2DE9F04160
:1025A00004460D4600260027B046D2480088A042C7
:1025B00003DDD0484088A84202DC0020BDE8F0815D
:1025C00029462046FFF7D2FF2E20FFF793FFFFF7A3
:1025D00098FF06460220FFF7C2FFFFF792FF06466C
:1025E0000220FFF7BCFFFFF78CFF8046F7B24FF6E3
:1025F000FF7000EA0727F012C002B91240EA41104A
:1026000040EAE820DAE700B52920FFF773FF00BDB4
:1026100000B52820FFF76EFF00BD70B5054600230A
:102620000026082D1CD2DFE805F00406090C0F1265
:10263000151800BF14E043F0800311E043F040039D
:102640000EE043F0C0030BE043F0200308E043F04A
:10265000600305E043F0A00302E043F0E00300BFA5
:1026600000BF362643F0080319463046FFF751FFF6
:1026700003F0200068B19F4800889E49498888423D
:1026800014DA9C48048840889A49088008464480A7
:102690000CE09848008897494988884206DD9548AB
:1026A00004884088934908800846448091494889B5
:1026B000FFF720FF0020FFF720FF0020FFF71DFF9E
:1026C0008C490988491EC1F30F20FFF716FF89497D
:1026D0000978491EC8B2FFF710FF86498889FFF7BD
:1026E00009FF0020FFF709FF0020FFF706FF8149DF
:1026F0004988491EC1F30F20FFF7FFFE7D49897805
:10270000491EC8B2FFF7F9FE70BD30B504460D464C
:1027100029462046FFF72AFFFFF70BFF764800887F
:102720007349891C088030BD10B503460C467149B9
:102730004889FFF7DFFE1812FFF7DFFED8B2FFF778
:10274000DCFE6C498889FFF7D5FE2012FFF7D5FE25
:10275000E0B2FFF7D2FE6748008965490880881C0F
:10276000028010BD2DE9F0470446BE20FFF7C2FEEF
:102770000520FFF7C2FE204602F01BF807464FF087
:1027800066325E4B02F064F8054601F0E5FF1FFA81
:1027900080F94846FFF7B1FE0120FFF7AEFEFF20AB
:1027A000FFF7ABFE0020FFF7A8FE0020FFF7A5FE15
:1027B000BDE8F08710B504468CB900204D498871FA
:1027C000F02008804FF4A07048802C2008812A2037
:1027D00048812B2088810020FFF71FFF10E0012097
:1027E000444988714FF4A0700880F02048802C2064
:1027F00008812A2048812B2088810520FFF70DFFC2
:1028000010BDF0B504460D46A018401E86B2E8186B
:10281000401E87B237494889FFF76CFE2012FFF748
:102820006CFEE0B2FFF769FE3012FFF766FEF0B211
:10283000FFF763FE2F498889FFF75CFE2812FFF738
:102840005CFEE8B2FFF759FE3812FFF756FEF8B209
:10285000FFF753FEF0BD70B50446002625480588F5
:102860004088454300210846FFF780FEFFF761FEE0
:1028700000BF03E01E48801C0480761CAE42F9D3E2
:1028800070BD00B59FB00121080201F07AFC012162
:102890004FF4B47001F082FC0120ADF878001020F4
:1028A0008DF87B0003208DF87A001EA9144801F0F2
:1028B000B9F94CF23370ADF8780018208DF87B0030
:1028C00003208DF87A001EA90E4801F0ABF94FF6EF
:1028D0008070ADF8780018208DF87B0003208DF80B
:1028E0007A001EA9084801F09DF941F201000DE0AF
:1028F000FE07006CDC0300205400002066660440E4
:10290000000C01400014014000180140ADF87800AF
:1029100018208DF87B0003208DF87A001EA9FE4850
:1029200001F080F901200890002009900F200A9002
:1029300000200B900C900D900E90019002900320BF
:1029400003900020049005900690079006200F90B9
:1029500000201090119010201290002013901590DC
:102960001490169017904FF48050189000201990F2
:102970004FF480401A9000201B9008A81C9001A8DA
:102980001D900FA800F034FE0121062000F098FFF2
:10299000322000F07CFC0020FFF7C0FDDF4988807A
:1029A00008468088FF280ADB084680884FF6FF71BA
:1029B000884204D0D9488088B0F5134F1DD1D32068
:1029C000FFF798FDFFF79DFDD4498880FFF799FD3B
:1029D000D2498880FFF795FDD049888008468088D5
:1029E0004FF6FF7101EA0020CC498880FFF789FD8E
:1029F000CA4989880843C9498880C848808849F2FB
:102A0000413188427ED1CF20FFF774FD0020FFF7CF
:102A100074FDC120FFF771FD3020FFF76EFDED2042
:102A2000FFF768FD6420FFF768FD0320FFF765FDF1
:102A30001220FFF762FD8120FFF75FFDE820FFF71E
:102A400059FD8520FFF759FD1020FFF756FD7A202C
:102A5000FFF753FDCB20FFF74DFD3920FFF74DFD6C
:102A60002C20FFF74AFD0020FFF747FD3420FFF739
:102A700044FD0220FFF741FDF720FFF73BFD20203A
:102A8000FFF73BFDEA20FFF735FD0020FFF735FD9E
:102A90000020FFF732FDC020FFF72CFD1B20FFF7C1
:102AA0002CFDC120FFF726FD0120FFF726FDC520E4
:102AB000FFF720FD3020FFF720FD3020FFF71DFD40
:102AC000C720FFF717FDB720FFF717FD3620FFF7E8
:102AD00011FD4820FFF711FD3A20FFF70BFD5520AF
:102AE000FFF70BFDB120FFF705FD0020FFF705FD07
:102AF0001A20FFF702FDB620FFF7FCFC0A20FFF7C3
:102B0000FCFC00E095E0A220FFF7F7FCF220FFF7C5
:102B1000F1FC0020FFF7F1FC2620FFF7EBFC012081
:102B2000FFF7EBFCE020FFF7E5FC0F20FFF7E5FCEB
:102B30002A20FFF7E2FC2820FFF7DFFC0820FFF740
:102B4000DCFC0E20FFF7D9FC0820FFF7D6FC542050
:102B5000FFF7D3FCA920FFF7D0FC4320FFF7CDFC03
:102B60000A20FFF7CAFC0F20FFF7C7FC0020FFF781
:102B7000C4FC0020FFF7C1FC0020FFF7BEFC0020D2
:102B8000FFF7BBFCE120FFF7B5FC0020FFF7B5FC29
:102B90001520FFF7B2FC1720FFF7AFFC0720FFF767
:102BA000ACFC1120FFF7A9FC0620FFF7A6FC2B20A8
:102BB000FFF7A3FC5620FFF7A0FC3C20FFF79DFC8D
:102BC0000520FFF79AFC1020FFF797FC0F20FFF776
:102BD00094FC3F20FFF791FC3F20FFF78EFC0F2075
:102BE000FFF78BFC2B20FFF785FC0020FFF785FC0F
:102BF0000020FFF782FC0120FFF77FFC3F20FFF75A
:102C00007CFC2A20FFF776FC0020FFF776FC0020F2
:102C1000FFF773FC0020FFF770FCEF20FFF76DFC5F
:102C20001120FFF767FC782000F031FB2920FFF727
:102C300061FC0020FFF7BEFD0120394908604FF616
:102C4000FF70FFF708FE1FB000BD2DE9F04F0546ED
:102C50000E4617469846DDF824A04FF0000B781B6F
:102C6000401C1FFA80FB344613E021462846FFF73C
:102C70007DFCFFF75EFC4FF0000906E02948A0F854
:102C800000A009F101001FFA80F9D945F6DB601CAC
:102C900084B24445E9DDBDE8F08F2DE9F84F0746E1
:102CA0000D4690469946DDF828B0A8EB0700401C79
:102CB0001FFA80FAA9EB0500401C80B200900024A6
:102CC00014E0281981B23846FFF750FCFFF731FCB9
:102CD000002607E004FB0A603BF810001149088059
:102CE000701C86B25645F5DB601C84B200988442A5
:102CF000E7DBBDE8F88F2DE9FF4F84B081468A46B7
:102D00000020039002900698A0EB09050798A0EB1D
:102D10000A06CDF8049007E000200140DC03002003
:102D2000808121420008006CCDF800A0002D01DD5B
:102D3000012705E00DB9002702E04FF0FF376D4293
:102D4000002E02DD4FF0010806E016B94FF0000832
:102D500002E04FF0FF387642B54201DD2C4600E03C
:102D600034464FF0000B21E0009A91B2019A90B2E4
:102D7000FFF7CBFC0398284403900298304402905C
:102D80000398A04205DD0398001B03900198384486
:102D900001900298A04205DD0298001B0290009865
:102DA000404400900BF101001FFA80FB601C83453A
:102DB000DADD08B0BDE8F08FF0B504460D461646E2
:102DC0001F462B46324629462046FFF794FF3B46D6
:102DD000224629462046FFF78EFF3B4632463946BB
:102DE0002046FFF788FF3B46324629463046FFF72C
:102DF00082FFF0BD2DE9F04306460F4690460024C1
:102E000045460320A0EB48093CE07A1B91B23219F9
:102E100090B2FFF77AFC3A1B91B2721990B2FFF7A9
:102E200074FC3A1991B2721990B2FFF76EFC7A19DC
:102E300091B2321990B2FFF768FC7A1991B2321B45
:102E400090B2FFF762FC3A1991B2721B90B2FFF791
:102E50005CFC7A1B91B2321B90B2FFF756FC3A1B16
:102E600091B2721B90B2FFF750FC641CB9F1000FD5
:102E700003DAA000801D814404E0601B80000A305A
:102E800081446D1EAC42C0DDBDE8F0832DE9FC4FEE
:102E900081460D4616461C4601952046E31704EB75
:102EA0005373DB1021464FEAE47C04EB5C7C4FEA71
:102EB000EC0CA4EBCC0CBCF1000F02D04FF0010CD9
:102EC00001E04FF0000C6344224604EBD27C4FEA51
:102ED0006C0C03FB0CF3DBB20093A6F12000C6B22E
:102EE0000C2C05D106EB4600C44901EB80080FE02D
:102EF000102C03D1C24800EB061809E0182C05D1AC
:102F000006EBC600BF4901EB800801E0BDE8FC8F7D
:102F100000273AE018F807A04FF0000B2FE00AF066
:102F2000800030B1B848028829464846FFF7FCFBCC
:102F300007E00B9828B9B548028829464846FFF7AC
:102F4000F3FB4FEA4A604FEA106A681C85B2B0484A
:102F50004088A84200DCD9E70198281AA0420AD18B
:102F6000019D09F101001FFA80F9A9480088484530
:102F700000DCCBE706E00BF1010000F0FF0BBBF13A
:102F8000080FCCDB00BF781CC7B200988742C1DBBA
:102F900000BFBBE710B50246012000E050430B0024
:102FA000A1F10104E1B2F9D110BD2DE9FF4F81B0CB
:102FB000074691461E460E9D4FF0000A002439E058
:102FC000301B401EC1B20A20FFF7E4FFB9FBF0F04E
:102FD0000A21B0FBF1F201FB1208BAF1000F16D181
:102FE000701EA04213DDB8F1000F0ED10020AB46D9
:102FF00005EBDB71491001FB0471009088B22B4690
:1030000020220299FFF742FF12E04FF0010A002050
:10301000AB4605EBDB71491001FB0471009088B2EF
:1030200008F13001CAB22B460299FFF72FFF00BF0B
:10303000601CC4B2B442C3DB05B0BDE8F08F2DE91B
:10304000FF4F82B0064692461F46DDE90F4800203A
:10305000019000254DE0781B401EC1B20A20FFF709
:1030600099FFBAFBF0F00A21B0FBF1F201FB120963
:10307000019850BB781EA84227DDB9F1000F22D17C
:1030800008F0800078B108F00100A34604EBDB7182
:10309000491001FB0561009088B223463022039954
:1030A000FFF7F4FE0EE008F00100A34604EBDB712D
:1030B000491001FB0561009088B223462022039944
:1030C000FFF7E4FE13E00120019008F00100A346A1
:1030D00004EBDB71491001FB0561009088B209F136
:1030E0003001CAB223460399FFF7D0FE00BF681C27
:1030F000C5B2BD42AFDB06B0BDE8F08F2DE9F847A1
:1031000004460D4690469946DDE9096704F0FF0A3A
:1031100008EB04001FFA80F809EB05001FFA80F99C
:1031200016E0444502DB5446A81985B24D4500DB44
:1031300014E0002000903A78334629462046FFF7F5
:10314000A5FE304606EBD07104EB61018CB27F1C0A
:1031500038787E2802DC38782028E2DA00BFBDE823
:10316000F8872DE9F04306460F4690460024454671
:103170000320A0EB48093CE07A1B91B2321990B2CF
:10318000FFF7C3FA3A1B91B2721990B2FFF7BDFA7A
:103190003A1991B2721990B2FFF7B7FA7A1991B24F
:1031A000321990B2FFF7B1FA7A1991B2321B90B28C
:1031B000FFF7ABFA3A1991B2721B90B2FFF7A5FA7A
:1031C0007A1B91B2321B90B2FFF79FFA3A1B91B271
:1031D000721B90B2FFF799FA641CB9F1000F03DA81
:1031E000A000801D814404E0601B80000A308144FF
:1031F0006D1EAC42C0DDBDE8F083000036680708F4
:10320000AA6C07089A720708540000205600002094
:10321000DC03002010B56FF0040000F07EF92E48AA
:1032200000682E49B0FBF1F02D490870084600787F
:1032300000EB4001C1EBC0104FF6FF7101EAC00086
:103240002849088010BD0146254A12784A434FF0AC
:10325000E0235A6100229A611A46126942F0010283
:103260001A6100BF4FF0E022106900F001021AB1AC
:1032700000F48032002AF5D04FF0E022126922F0EB
:1032800001024FF0E0231A6100229A617047014663
:10329000144A12884A434FF0E0235A6100229A618F
:1032A0001A46126942F001021A6100BF4FF0E02293
:1032B000106900F001021AB100F48032002AF5D042
:1032C0004FF0E022126922F001024FF0E0231A6170
:1032D00000229A61704700000400002000127A006A
:1032E000580000205A00002010B54FF4A06000F0F4
:1032F000C5F810BD014600BF704700BF4B4A128899
:1033000002F04002002AF9D0C2B2484B1B1D1A80BD
:10331000704710B586B00446012144F2040000F065
:103320003DFF424800F09EFF4FF40070ADF81400DE
:1033300003208DF8160018208DF8170005A93C48C9
:1033400000F070FC4FF48060ADF8140004208DF89C
:10335000170005A9364800F065FC25208DF800000F
:1033600003208DF801008DF8020001208DF8030084
:10337000684600F088F801940020ADF80800ADF828
:103380000A00ADF80C00ADF810000C20ADF80E00EE
:1033900001A9264800F0A9FF012240F22551234847
:1033A00001F03BF80121214801F02BF806B010BDD7
:1033B00010B540F225511D4801F014F910B31B4817
:1033C00001F090F8C4B21B48008800F40040C8B96E
:1033D0001848008800F4804060B10A2C03D0002017
:1033E0001449088020E01348008840F40040114947
:1033F000088019E00D2C06D10E48008840F480406A
:103400000C49088010E00B480088C0F30D000A4901
:103410000C5408480088401C06490880084600886B
:10342000C72801DD0020088010BD000000380140E1
:103430000008014060000020EA030020094880479E
:1034400009480047FEE7FEE7FEE7FEE7FEE7FEE786
:10345000FEE7FEE7FEE7FEE704480549054A064B9E
:10346000704700008305000831010008180500209E
:10347000180B0020180700201807002031490143CD
:10348000314A1160704770B5002100230F22C478C3
:1034900004B32D4C246804F4E064C4F5E064210A0C
:1034A000C1F10403CA40447804FA03F1847814405B
:1034B00021430901254C0678A155047804F01F0525
:1034C0000124AC4005786D11AD0005F1E025C5F88B
:1034D000004109E0047804F01F050124AC401C4DB4
:1034E0000678761145F8264070BD1A4A0A40024314
:1034F000154B1B1F1A60704739B1134A121D126811
:103500000243114B1B1D1A6006E00F4A121D126880
:1035100082430D4B1B1D1A607047042808D14FF0E1
:10352000E021096941F004014FF0E022116107E058
:103530004FF0E021096921F004014FF0E022116110
:10354000704700000000FA050CED00E000E400E028
:1035500080E100E080FFFF1F30B943F2DB02810011
:10356000A1F1C0410A6005E043F2D2028100A1F15D
:10357000C0410A606FF07042411C8900A1F1C04156
:103580000A608100A1F1C041C1F8042170471028F0
:103590000AD118214FF020421166402151664FF0A8
:1035A000FC319166D16610E01821F74A1160402184
:1035B0004FF02042C2F884104FF0FC31F24A08323A
:1035C00011604FF02042C2F88C1070471820EE496D
:1035D0002031086000200906C1F8A4004FF0FC303B
:1035E000E94928310860091D0860091D0860704715
:1035F000D0E901121143C2681143026911434269C3
:10360000114382691143C2691143026A1143426A3C
:103610001143826A1143C26A1143026B114302686B
:103620009200A2F1C0421160816808290BD10168A3
:103630008900A1F1C041096841F040020168890098
:10364000A1F1C0410A60416B0968426B526841EACE
:103650000211426B926841EA0221426B928941EA6F
:103660000241426B128A41EA0251426B127D41EAE9
:103670000261426B926911430268521C9200A2F1EE
:10368000C0421160C16AB1F5804F1BD1816B0968DE
:10369000826B526841EA0211826B926841EA022110
:1036A000826B128A41EA0251826B127D41EA026109
:1036B000826B9269114302689200A2F1C042C2F883
:1036C000041107E06FF0704201688900A1F1C04168
:1036D000C1F80421704730B500210022002344685E
:1036E00044F0080485682C43C5682C4305692C43C5
:1036F000456944EA4524856944EA4531C46924683A
:10370000C5696D6844EA0524C5692D8944EA054404
:10371000C5692D7B44EA0562046A2468056A6D6800
:1037200044EA0524056A2D8944EA0544056A2D7B8F
:1037300044EA05630468102C05D14FF0204421664B
:10374000A266E36608E0904C21604FF02044C4F884
:1037500088208D4C0C34236030BD016841F010018D
:10376000426841EA4221826841EA4231864A203277
:103770001160C1680968C268526841EA0221C268E2
:10378000128941EA0241C268127B41EA02617E4A23
:1037900028321160016909680269526841EA022110
:1037A0000269128941EA02410269127B41EA02611F
:1037B000754A2C321160416909684269526841EAD0
:1037C00002214269128941EA02414269127B41EABF
:1037D00002614FF02042C2F8B01070470021016032
:1037E0000221416000218160C1600161416181610C
:1037F000C16101624FF48051416249008162002140
:10380000C16201630F21426B1160426B5160FF2165
:10381000426B91600F21426BD160426B1161426B30
:1038200051610021426B91610F21826B1160826BAB
:103830005160FF21826B91600F21826BD160826B9E
:103840001161826B51610021826B9161704710217F
:103850000160002141608160C1600161416181615D
:10386000FC21C2691160C2695160C2699160C2697C
:10387000D160026A1160026A5160026A9160026A54
:10388000D16070470021016041608160FC21C26805
:103890001160C2685160C2689160C268D1600269FB
:1038A000116002695160026991600269D1604269E8
:1038B000116042695160426991604269D16070470C
:1038C00051B18200A2F1C042126842F001038200AD
:1038D000A2F1C042136009E08200A2F1C042126866
:1038E0002A4B1A408300A3F1C0431A60704799B174
:1038F000102808D14FF02042126E42F004024FF01F
:1039000020431A661DE0204A126842F004024FF07C
:103910002043C3F8802014E0102809D14FF0204242
:10392000126E1A4BDB1E1A404FF020431A6608E055
:10393000154A1268154BDB1E1A404FF02043C3F89E
:103940008020704748B110492031096841F00401D6
:103950004FF02042C2F8A01009E00B49203109685D
:103960000A4AD21E11404FF02042C2F8A010704700
:10397000B9B110280CD14FF02042126E42F0400233
:103980004FF020431A661FE0800000A0FEFF0F00EA
:10399000724A126842F040024FF02043C3F8802080
:1039A00012E0102808D14FF02042126E6C4B1A40E2
:1039B0004FF020431A6607E0684A1268684B1A40C5
:1039C0004FF02043C3F880207047014600201029A3
:1039D00003D14FF02042506F02E0604A1432106869
:1039E000704710B5F2B1102807D14FF020435B6E3D
:1039F0000B434FF02044636632E0B0F5807F08D17E
:103A0000564B1B1D1B680B434FF02044C4F88430F9
:103A100026E0524B24331B680B434FF02044C4F87C
:103A2000A4301DE0102807D14FF020435B6E8B437C
:103A30004FF02044636613E0B0F5807F08D1474B18
:103A40001B1D1B688B434FF02044C4F8843007E0F3
:103A5000424B24331B688B434FF02044C4F8A430FE
:103A600010BD10B5024600200023102A03D14FF0EC
:103A70002044636E09E0B2F5807F03D1374C241DEA
:103A8000236802E0354C2434236803EA01040CB1B6
:103A9000012000E0002010BD102807D14FF0204287
:103AA000526E8A434FF020435A6613E0B0F5807F90
:103AB00008D12A4A121D12688A434FF02043C3F8E6
:103AC000842007E0254A243212688A434FF02043BD
:103AD000C3F8A420704770B50246002000230024DC
:103AE0000025102A03D14FF02046736E09E0B2F58D
:103AF000807F03D1194E361D336802E0174E2436FD
:103B0000336803EA010403EAD10514B10DB10120C1
:103B100000E0002070BD102808D14FF02042526E06
:103B200022EAD1024FF020435A6615E0B0F5807FBB
:103B300009D10A4A121D126822EAD1024FF020432D
:103B4000C3F8842008E0054A2432126822EAD10230
:103B50004FF02043C3F8A42070470000800000A06D
:103B6000BFFF0F0010B50446CC48844208D10121A4
:103B7000042000F02DFB0021042000F029FB46E08A
:103B8000C748844208D10121082000F021FB002110
:103B9000082000F01DFB3AE0C248844208D1012110
:103BA000102000F015FB0021102000F011FB2EE08A
:103BB000BD48844208D10121202000F009FB0021EA
:103BC000202000F005FB22E0B848844208D1012102
:103BD000402000F0FDFA0021402000F0F9FA16E044
:103BE000B348844208D10121802000F0F1FA00217D
:103BF000802000F0EDFA0AE0AE48844207D10121AE
:103C0000801500F0E5FA0021A01500F0E1FA10BDE2
:103C100010B50121084600F0DBFA0021012000F078
:103C2000D7FA10BD2DE9F0410246002500260020FC
:103C300000230024002791F803C00CF00F0591F831
:103C400003C00CF0100CBCF1000F03D091F802C0BF
:103C50004CEA050591F800C0BCF1000F31D01468A2
:103C600000202BE04FF0010C0CFA00F3B1F800C07B
:103C70000CEA03069E4220D183004FF00F0C0CFA91
:103C800003F7BC4305FA03FC4CEA040491F803C0B3
:103C9000BCF1280F06D14FF0010C0CFA00FCC2F861
:103CA00014C00AE091F803C0BCF1480F05D14FF0F1
:103CB000010C0CFA00FCC2F810C0401C0828D1D33B
:103CC0001460B1F800C0BCF1FF0F34DD546800206F
:103CD0002EE000F1080C4FF0010808FA0CF3B1F8DF
:103CE00000C00CEA03069E4221D183004FF00F0C66
:103CF0000CFA03F7BC4305FA03FC4CEA040491F800
:103D000003C0BCF1280F05D100F1080C08FA0CF82B
:103D1000C2F8148091F803C0BCF1480F07D100F13C
:103D2000080C4FF0010808FA0CF8C2F81080401C8B
:103D30000828CED35460BDE8F0814FF6FF710180B2
:103D4000022181700421C1707047024600209368EF
:103D50000B400BB1012000E000207047014688684D
:103D600080B2704702460020D3680B400BB101209F
:103D700000E0002070470146C86880B270470161CA
:103D80007047416170470AB1016100E041617047CD
:103D9000C16070474FF480320A4382618161826161
:103DA00082698269704702460020434B18684FF6CB
:103DB0008073184040EA021008433F4B1860704778
:103DC0003E49C8617047F0B50A460023002400212F
:103DD000002500F00046B6F1004F02D1364EF169E1
:103DE00001E0354E7168C0F3034583B200F440161C
:103DF000B6F5401F08D121F070612F4E766826F08D
:103E000070662D4F7E6012E000F48016B6F5801FBC
:103E100006D1032606FA05F4A14341F0706106E0DD
:103E2000460D360103FA06F6B14341F0706122B146
:103E3000460D360103FA06F6314300F00046B6F1AE
:103E4000004F02D11C4EF16101E01B4E7160F0BDCC
:103E500030B500228B071C0F0F2303FA04F2164B18
:103E600008338C1053F824309343134C08348D10CE
:103E700044F8253023468C1053F824308C07240F47
:103E800000FA04F423430C4C08348D1044F8253018
:103E900030BD0A49DC31086070470000000801406D
:103EA000000C0140001001400014014000180140C6
:103EB000001C0140002001400000014000002042A1
:103EC000DF48006840F00100DD49086008464068AE
:103ED000DC490840DA49486008460068DA49084089
:103EE000D74908600846006820F48020086008462A
:103EF000406820F4FE0048604FF41F00886070475F
:103F0000CF49096821F48031CD4A11601146096812
:103F100021F480211160B0F5803F03D0B0F5802FEF
:103F20000ED106E0C649096841F48031C44A1160E7
:103F300007E0C349096841F4A021C14A116000E0CB
:103F400000BF00BF704710B50146002200230020CB
:103F50004A11012A02D1BA4C236806E0022A02D192
:103F6000B74C236A01E0B64C636A01F01F020124DA
:103F700094401C400CB1012000E0002010BD38B579
:103F8000002000900024002500BF3120FFF7DBFF58
:103F900005460098401C00900098B0F5A06F01D035
:103FA000002DF2D03120FFF7CEFF08B1012400E050
:103FB0000024204638BD01460020A14A106820F0A8
:103FC000F80040EAC10010607047A04908607047DF
:103FD000024600209A4B586820F47C1042EA010304
:103FE0001843974B586070479849086670470146D8
:103FF0000020934A506820F0030008435060704747
:104000008F48406800F00C007047014600208C4A41
:10401000506820F0F00008435060704701460020CF
:10402000874A506820F4E0600843506070470146BA
:104030000020834A506820F4605040EAC10050607C
:10404000704729B17E4A527A02437D4B5A7204E08E
:104050007B4A527A82437A4B5A7270477B49D831F5
:104060000860704701460020754A506820F44040BF
:104070000843506070470021714A20321170704A25
:1040800082F82010012802D004280AD104E001217E
:104090006B4A2032117005E00521694A2032117007
:1040A00000E000BF00BF704769490860704764497D
:1040B000096A0143624A11627047654944390860E0
:1040C000704730B500210022002400235C4D6D684C
:1040D00005F00C0121B1042905D0082923D105E000
:1040E0005C4D056022E05B4D05601FE0544D6D683E
:1040F00005F47012524D6D6805F48034022505EB0D
:1041000092421CB9544D554305600BE04C4D6D680F
:1041100005F400351DB1504D5543056002E04D4D8D
:104120005543056002E04B4D056000BF00BF444DA4
:104130006D6805F0F0010909484D6B5C0568DD40CC
:1041400045603F4D6D6805F4E061090A434D6B5CC5
:104150004568DD4085603A4D6D6805F46051C90AD7
:104160003E4D6B5C4568DD40C560354D6D6805F4BE
:104170004041890B3A4D6B5CC568B5FBF3F50561B1
:1041800030BD29B12E4A526902432D4B5A6104E0D9
:104190002B4A526982432A4B5A61704729B1284AF7
:1041A00092690243264B9A6104E0254A9269824350
:1041B000234B9A61704729B1214AD2690243204BAF
:1041C000DA6104E01E4AD26982431D4BDA6170470E
:1041D00029B11B4AD2680243194BDA6004E0184A3D
:1041E000D2688243164BDA60704729B1144A1269CB
:1041F0000243134B1A6104E0114A12698243104BC7
:104200001A61704712494039086070470F49C86405
:1042100070470B49C87170470948406A40F0807088
:1042200007494862704701460020054A92680A40E3
:104230000AB1012000E000207047014988727047F0
:10424000001002400000FFF8FFFFF6FE00004242AF
:104250008004424200127A0000093D006200002002
:104260007200002010B50446FB48844209D10121A8
:104270008803FFF7ADFF00214FF48040FFF7A8FF50
:1042800032E0F648844209D101214804FFF7ADFF2E
:1042900000214FF40030FFF7A8FF25E0F0488442EA
:1042A00009D101218804FFF7A0FF00214FF48020ED
:1042B000FFF79BFF18E0EB48844209D10121C804B5
:1042C000FFF793FF00214FF40020FFF78EFF0BE074
:1042D000E548844208D101210805FFF786FF002147
:1042E0004FF48010FFF781FF10BD2DE9F04786B035
:1042F00005460E460024A24600BFA1460027B0890D
:1043000000B100BF2F462C8A4CF6FF700440F088A5
:1043100004432C82AC894EF6F3100440B0883189F6
:104320000843718908430443AC81AC8A4FF6FF40CF
:104330000440B0890443AC8201A8FFF7C2FEC6481E
:10434000874202D1DDF810A001E0DDF80CA0A889B9
:1043500000F4004040B10AEBCA0000EB0A103168DB
:104360004900B0FBF1F807E00AEBCA0000EB0A10C5
:1043700031688900B0FBF1F86420B8FBF0F004016B
:104380002009642101FB1089A88900F4004040B194
:10439000322000EBC900B0FBF1F000F0070004434D
:1043A00008E0322000EB09106421B0FBF1F000F0CE
:1043B0000F0004432C8106B0BDE8F0874FF416517E
:1043C000016000218180C18001810C214181002197
:1043D0008181704710B502460020108A4FF2FF031A
:1043E00018400B884C8823438C882343CC88234374
:1043F0001843108210BD0021018041808180C1805E
:10440000704721B1828942F40052828104E082899E
:104410004DF6FF731A4082817047F0B503460024C1
:1044200000260025002040F66A17B94200D100BFDF
:104430001846C1F3421401F01F06012707FA06F5DA
:10444000012C01D10C3004E0022C01D1103000E02D
:1044500014301AB107682F43076002E00768AF43C2
:104460000760F0BD1AB1838A0B43838202E0838A1E
:104470008B4383827047028A4FF6F0731A400282A0
:10448000028A0A430282704782894FF2FF731A4000
:10449000828182890A438281704721B1828942F0F8
:1044A0000202828104E082894FF6FD731A40828104
:1044B0007047028A4FF6DF731A400282028A0A436B
:1044C0000282704721B1028A42F48042028204E0F3
:1044D000028A4BF6FF731A4002827047C1F308024A
:1044E0008280704701468888C0F308007047818940
:1044F00041F0010181817047028BD2B20283028BAD
:1045000042EA012202837047028B02F47F42028357
:10451000028B0A430283704721B1828A42F0200253
:10452000828204E0828A4FF6DF731A4082827047EB
:1045300021B1828A42F01002828204E0828A4FF620
:10454000EF731A408282704721B1828A42F00802DA
:10455000828204E0828A4FF6F7731A4082827047A3
:1045600021B1828942F40042828103E08289C2F350
:104570000E028281704721B1828A42F400628282F7
:1045800004E0828A4FF2FF731A4082827047828A67
:104590004FF6FB731A408282828A0A4382827047F6
:1045A00021B1828A42F00202828204E0828A4FF6BE
:1045B000FD731A408282704702460020B1F5007FE9
:1045C00000D100BF13880B400BB1012000E0002098
:1045D000704701F40072B2F5007F00D100BFCA43FA
:1045E0000280704770B50246002400230025002099
:1045F00040F66A16B14200D100BFC1F3421501F086
:104600001F03012606FA03F3012D02D196893340D8
:1046100006E0022D02D1168A334001E0968A33402B
:104620000C12012606FA04F41688344013B10CB1BA
:10463000012000E0002070BD10B50022002340F6EC
:104640006A14A14200D100BF0A1201249440A3B20F
:10465000DC43048010BD00000038014000440040ED
:1046600000480040004C0040005000407047704738
:1046700070477047704710B500F008F8006810BD2B
:1046800010B5044600F002F8046010BD0048704701
:10469000B404002000487047B40400207546FFF7BA
:1046A000F9FFAE4605006946534620F007008546EF
:1046B00018B020B5FEF7D0FEBDE820404FF0000650
:1046C0004FF000074FF000084FF0000B21F00701FA
:1046D000AC46ACE8C009ACE8C009ACE8C009ACE83D
:1046E000C0098D4670470446AFF300802046FBF7B3
:1046F00066FD2DE9F04106460F4600F0DDF90400A5
:104700000D4618BF0120284320F00040C0F17F6013
:1047100000F1E040C00F0ED0301C18BF012038431C
:1047200020F00040C0F17F6000F1E040C00F04BF06
:104730000120FFF7A5FF20462946BDE8F08149107A
:1047400058BFC1F140415B1058BFC3F140438B4299
:10475000EFF30080704700004FEA1153A3F5806328
:10476000D3F11E03A8BFD3F1200C08DB4FF00042A9
:1047700042EAC12252EA505232FA03F0704709422B
:104780000BD4102BC4BF0020704703F5787CBCF11C
:10479000FF3F05D04FF0FF3070474FF000007047EB
:1047A00070B500F0FFF800BF4992248000207047E8
:1047B000F0E7B0FA80F310FA03F10AD0C3F11D0359
:1047C00003F580634FEA41504FEA035202EBD121D7
:1047D00070474FF00000704751EA030C17D41CF5E6
:1047E000801F58BFBCF5801F00F10680994218BF9A
:1047F000704708BF9042704707D711F5801F58BF18
:1048000013F5801F19D499427047894270471CF5EF
:10481000801F08D5BCF5801FF7D58B4218BF7047A5
:1048200008BF824270474FF4001C1CEB410F38BF99
:104830001CEB430F01D28B42704770B500F0B2F809
:10484000922449004FF000514FF08053FFF777BF9B
:10485000DFF848C170B51CEA111E1EBF1CEA131513
:104860009EEA0C0F95EA0C0F00F06F8081EA0304BA
:1048700023EA4C134EEAD47E21EA4C1141F4801114
:1048800043F48013AE44A1FB024CA0FB0365AEF1E0
:104890007F7E361955EB0C05A1FB034C4CF1000350
:1048A000A0FB021C16EB0C06654153F10003094204
:1048B00018BF46F0010613F4007F0BD14FEA033115
:1048C0004FEA0530340341EA155140EA16506FF0C3
:1048D00003020AE04FEAC3214FEAC520F40241EA8D
:1048E000555140EA56506FF0020202EB2E4201EBA6
:1048F000025585EACE710AD05FEA440C18BF24F055
:10490000004450F1000041F1000120EAD47040F26F
:10491000FE7C624500D270BDA84214BF4FF08044B7
:104920004FF04044002E08BF0024BEF1806FA8BFA6
:10493000A1F1C041BDE8704080F282804FF00000DC
:1049400001F1C04101F0004170479EEA0C0F0CEAF2
:10495000131518BF95EA0C0F06D04FF0000081EA3E
:10496000030E0EF0004170BD00F01CF88900013EFE
:1049700000F007B800F009B84FEA430C5FEA5C5C4E
:1049800008D081EA030100F05BB84FEA410C5FEA0E
:104990005C5CF6D14FF00000014970470000FF0752
:1049A0000000F87F0EF1020E2EF0030E5EF8046B8D
:1049B000364205D4012A43EB030515F5001F12D832
:1049C000012841EB010C1CF5001F0CD80ED14FEA59
:1049D000D17C15F5001F0CEB4C0C0CF1020C08BF40
:1049E0004CEBD37C04E04FF0080C01E04FEAD37CA1
:1049F0000CEB4C0526FA05F606F00706B6F1040C9A
:104A000006D20EEB860CBDE870404CF0010C6047FE
:104A1000DFE80CF0090B02024FF000414FF00000FC
:104A2000A1F5002170BD19461046012851EB010483
:104A300018BFD4F5001484BF002001F0004170BD00
:104A40000808A0F500114FEA3101704753EA010C44
:104A500017D41CF5801F58BFBCF5801F00F10680DD
:104A60008B4218BF704708BF8242704707D713F5C3
:104A7000801F58BF11F5801F19D48B4270479B428D
:104A800070471CF5801F08D5BCF5801FF7D59942EB
:104A900018BF704708BF904270474FF4001C1CEBD2
:104AA000430F38BF1CEB410F01D2994270470FB43E
:104AB0000CBC03BCFFF7C1BE2DE9F04101F5801C21
:104AC000BCF5001FC0F2C3804FEA115C21EA0C5113
:104AD0000CF1FD0C41F480115FEA5C0C0CF5C07C1C
:104AE00001D3400049413DA4890241EA9051870227
:104AF0008E0E0A0CA45D04FB04F602FB06F6C6F15A
:104B00004046A4FB0662F60D46EA422606FB06F482
:104B1000A4FB01235242C3F1404338BF5B1EA6FBF6
:104B200002420024E6FB0324D20B42EA4446A6FBE1
:104B30000623A1FB02E2A3FB07E4A4184FF0000246
:104B400052F10002E3FB01426442C2F1404E38BF21
:104B5000AEF1010EA6FB04234FF00002E6FB0E327D
:104B6000A2FB03464FF00004B61954F10004E2FB27
:104B70000264A1FB06E6A4FB07E816EB08064FF06B
:104B8000000858F10008E4FB01687642C8F140587B
:104B900038BFA8F10108A2FB06E4A3FB08E52D1924
:104BA0004FF0000454F10004E2FB0854A1FB05E6B9
:104BB000A7FB04E818EB06084FF0000656F10006C4
:104BC000E1FB048618F1200556F10006A809A8F1BA
:104BD0001B08B10908F03F08B8F10A0F40EA8660E7
:104BE0001CD901EB0C51BDE8F08100BFFCF5EEE8EB
:104BF000E2DDD8D3CFCBC7C3C0BDB9B6B4B1AEAC7C
:104C0000A9A7A5A3A19F9D9B9A9896959392908FF3
:104C10008D8C8B898887868584838281A0FB006840
:104C200000FB01F208EB4208B8EB872807D53418DF
:104C300058EB0104D5D5401C51F10001D1E7341ADD
:104C400078EB0104CDD4401E71F10001C9E75FEAA1
:104C50004C0C5FEA9C5C0DD105D34FF0000001F0D5
:104C60000041BDE8F081BDE8F04170B5FFF79AFE64
:104C70006DDBFFBEBDE8F0414FF00000004970471A
:104C80000000F87F43004FEAD30C4FEA3C0C43404E
:104C90001FBF40070CF1605113F0FE4F70471CF02E
:104CA000006F03D100200CF0004170470CF000436E
:104CB00043EA507010B540EACC0000F01CFA00BF87
:104CC000000000924FEA0001FFF7BABE4FF000412A
:104CD0004FF00000A1F500217047000090EA010F9D
:104CE00048BF81F0004100F15882421A3CBF801A4F
:104CF00089184FEAD0524FF07F4C1CEA410FA2EBCB
:104D0000D15318BF9CEA026F00F03B804FF0004C7B
:104D10004CEA00204CEA012121FA03FC10EB0C0CB8
:104D20001ED202F1FF325FEA1C2040EBC25038BFB6
:104D300070471CF07F0F4FEA400C18BFBCF17F4F4B
:104D400038BF7047C3F12003994008BF20F001002D
:104D5000BCF17F4F38BF7047A0F1C04000F011BADE
:104D60004FEA3C00000A40EBC25028BF1CF0FF0F86
:104D70004FEA400CE6D018BFBCF17F4F38BF7047F8
:104D8000EAE79CEA026F05D010EA5C0F08BF00F06A
:104D90000040704710B500F0AEF900BF64FBBE3EA6
:104DA0004FF47F0C1CEAD0121EBF1CEAD11392EA0A
:104DB0000C0F93EA0C0F00F0858090EA010F48BFBA
:104DC00042F4807240F4000C41F400002CF07F416A
:104DD00020F07F4000B58142A2EB03020FF2081CD5
:104DE000ACEB504EC0F100009EF800E04FEA4E0ED2
:104DF00000FB0EFC38BF49004FEA2C1C02F5FA02FA
:104E00000CFB0EF34FEACE1E4FEA112C4FEAC121E4
:104E10000EEB635E42EB22420EFB0CFC4FEA1C538E
:104E200000FB03114FEA112C4FEA01310EFB0CFC81
:104E30004FEADC4C00FB0C11C14228BF09184CEBB7
:104E400003335DF804EB10EB410143EBC250B2F5C4
:104E50007C0F38BF704729D512F0F00F1CBF00F14E
:104E6000C04000F0004070470081828384858687BF
:104E700088898B8C8D8E8F919293959697999A9C19
:104E80009D9FA0A2A3A5A7A8AAACAEB0B2B3B5B788
:104E9000B9BCBEC0C2C5C7C9CCCED1D4D7D9DCDF5E
:104EA000E2E6E9ECF0F3F7FAFE0000004FEA400C0E
:104EB0000CF1807CBCF17E4F28BF7047B0F1C04040
:104EC00000F05FB990EA010F0CEAD11348BF42F439
:104ED0008072624538BF634507D213F47F0F16D046
:104EE00080EA010000F00040704710B500F003F9BF
:104EF000097EFC3E00F005B880EA010000F00040A9
:104F0000704780EA010000F0004000F03AB912F466
:104F10007F0F04BF0248704780EA010000F031B9FA
:104F20000000C07F41000B0ED3F19E0208D950F45F
:104F300000034FEA032323FA02F048BF40427047C0
:104F400010B500F0D8F800BF4992248000207047C7
:104F50006FF0004282EA200070470000C10DD1F1DD
:104F60009E0206DB4FEA002343F0004323FA02F0DF
:104F70007047004207D54FEA4001B1F1FE4F02D21F
:104F80004FF00000704710B500F0B5F8499224804A
:104F9000002070476FEA20007047000010F00041C9
:104FA00048BF4042B0FA80F310FA03F2C3F19D0308
:104FB0000BD051EAC35101EB1220530638BF7047A2
:104FC00000F1010008BF20F001007047B0FA80F343
:104FD00010FA03F2C3F19D030AD0D90501EB1220A8
:104FE000530638BF704700F1010008BF20F00100F0
:104FF000704700004FF47F0C1CEAD0121EBF1CEA61
:10500000D11392EA0C0F93EA0C0F00F0478090EA5C
:10501000010F48BF42F480724FF0004C4CEA002070
:105020004CEA012102EB0302A0FB0113A2F50002EE
:10503000002918BF43F001035B0028BF4FEA330388
:1050400042EB22425FEA132C4CEBC2502EBFBCEB6A
:10505000436FB2F57C0F70474FEA036CBCF1004F11
:1050600008BF20F00100B2F57C0F38BF70470BD5A8
:1050700082F0FF0212F5803FC8BF704700F1C040C8
:10508000D8BF00F00040704700F5000C5FEA4C0C00
:1050900048BF7047B0F1C04000F073B890EA010F0C
:1050A0000CEAD11348BF42F48072624538BF6345B1
:1050B00004D280EA010000F00040704710B500F013
:1050C0001AF800BF8900013E00F007B800F009B8E7
:1050D0005FEA410C5FEA1C6C08D080EA010000F036
:1050E00050B85FEA400C5FEA1C6CF6D14FF000400C
:1050F000A0F5800070470EF1020E2EF0030E5EF850
:10510000044B244204D44FEA4102B2F17F4F11D83C
:105110004FEA4003B3F17F4F0CD80ED14FEAD07C59
:10512000B2F17F4F0CEB4C0C0CF1020C08BF4CEBB6
:10513000D17C04E04FF0080C01E04FEAD17C0CEB8D
:105140004C0324FA03F404F00704B4F1040C06D26F
:105150000EEB840CBDE810404CF0010C6047DFE81A
:105160000CF0070802024FF00040A0F5800010BDCF
:105170000846420018BFD2F1807288BF00F000409C
:1051800010BDFF2141EAD050C005704790EA010FE1
:1051900048BF81F000413FF5A8AD421A04D882F023
:1051A0000042A0EB020011444FEAD0524FF07F4C76
:1051B0001CEA410FA2EBD15318BF9CEA026F4AD000
:1051C0004FF0004C4CEA00204CEA012121FA03FC8C
:1051D000B0EB0C0C0FD412F0FE0F36D05FEA4C008F
:1051E0001DD5001240EBC25038BF70471CF03F0F76
:1051F00018BF70470BE0A2F101025FEA1C2040EBF0
:10520000C25038BF70471CF07F0F18BF7047C3F102
:105210002003994014BF401E20F001007047800811
:105220004FEA122308BF7047B0FA80FCA2EB0C02D1
:10523000CCF1280C60FA0CF093EA122F04BF00EBBB
:10524000C25070474FEAC3707047130A5FEADC1020
:1052500008BF7047F6E79CEA026F04D010EA5C0FC3
:1052600008BF0020704710B5FFF745FF40DFF63E4E
:1052700081F000407047FF4FFF4FFF4FFF4FFF4F40
:10528000FF4FFF4FFF4FFF4FFF4FFF4FFF4FFF4FAE
:10529000FF4FFF4FFF4FFF4FFF4FFF4FFF4FFF4F9E
:1052A000FF4FFF4FFF4FFF4FFF4FFF4FFF4FFF4F8E
:1052B000FF4FFF4FFF4FFF4FFF4FFF4FFF4FFF4F7E
:1052C000FF4FFF4FFF4FFF4FFF4FFF4FFF4FFF4F6E
:1052D000FF4FFF4FFF4FFF4FFF4FFF4FFF4FFF4F5E
:1052E000FF4FFF4FFF4FFF4FFF4FFF4FFF4FFF4F4E
:1052F000FF4FFF4FFF4FFF4FFF4FFF4FFF4FFF4F3E
:10530000FF4FFF4FFF4FFF4FFF4FFF4FFF4FFF4F2D
:10531000FF4FFF4FFF4FFF4FFF4FFF4FFF4FFF4F1D
:10532000FF4FFF4FFF4FFF4FFF4FFF4FFF4FFF4F0D
:10533000FF4FFF4FFF4FFF4FFF4FFF4FFF4FFF4FFD
:10534000FF4FFF4FFF4FFF4FFF4FFF4FFF4FFF4FED
:10535000FF4FFF4FFF4FFF4FFF4FFF4FFF4FFF4FDD
:10536000FF4FFF4FFF4FFF4FFF4FFF4FFF4FFF4FCD
:10537000FF4FFF4FFF4FFF4FFF4FFF4FFF4FFF4FBD
:10538000FF4FFF4FFF4FFF4FFF4FFF4FFF4FFF4FAD
:10539000FF4FFF4FFF4FFF4FFF4FFF4FFF4FFF4F9D
:1053A000FF4FFF4FFF4FFF4FFF4FFF4FFF4FFF4F8D
:1053B000FF4FFF4FFF4FFF4FFF4FFF4FFF4FFF4F7D
:1053C000FF4FFF4FFF4FFF4FFF4FFF4FFF4FFF4F6D
:1053D000FF4FFF4FFF4FFF4FFF4FFF4FFF4FFF4F5D
:1053E000FF4FFF4FFF4FFF4FFF4FFF4FFF4FFF4F4D
:1053F000FF4FFF4FFF4FFF4FFF4FFF4FFF4FFF4F3D
:10540000FF4FFF4FFF4FFF4FFF4FFF4FFF4FFF4F2C
:10541000FF4FFF4FFF4FFF4FFF4FFF4FFF4FFF4F1C
:10542000FF4FFF4FFF4FFF4FFF4FFF4FFF4FFF4F0C
:10543000FF4FFF4FFF4FFF4FFF4FFF4FFF4FFF4FFC
:10544000FF4FFF4FFF4FFF4FFF4FFF4FFF4FFF4FEC
:10545000FF4FFF4FFF4F5EEF7EEF9EEF7EEF9EEF21
:10546000BEF7BFF7DFF7DFFFDFFFDFF7BFF7DFFFD5
:10547000BFF7BFF7BFF7BFF7BFF7BFF7BFF7BFF77C
:10548000DFF7DFFFDFFFDFFFDEF7DFFFBFF7BFF78D
:10549000BFF7DFF7DFFFBFF7BFF7BFF79EEF7EEF86
:1054A0005EE73DDF1DDFFDD6FDD6DDD6DCD6DDD6E1
:1054B000DDD6DDD61EDF1EDF1EDFDDD6BCCEBCCEC8
:1054C000BCCEFDD6BDCE5BBE3BBE1BBEFAB51BB689
:1054D000DBB53CBE3CBEDBAD9AA53995567C567C0F
:1054E000567C977C977C767456747774777457746F
:1054F000577477747774987C987C787C787C377450
:10550000777C777C577C577C577C987CB884777CF9
:10551000787C777C787C98849884787C777C988475
:10552000977C977C987C77747774D87C977C977CF1
:10553000987CB87CB884987C98849884777C98848C
:10554000B884B884B884B884987CB884B884B884A3
:105550009884987CB884B88498849884B884988413
:10556000777C9884D98498849884B884B884988403
:10557000987C9884777C9884B88498849884B8843C
:10558000987C987C9884977CB88498849784977C3E
:10559000977CB884B884977C7774F77C5174D06317
:1055A00032744F5B2E53756CB674D16B0D63EB5236
:1055B000CA4ACC52EC520D530C4B4D530C4B0D536D
:1055C0002E5B2E53934B914B6E5B8B5ACA52CB4A38
:1055D000CC4ACB4ACB52AA42CA4ACB4AAB4ACC4A63
:1055E000AC4A8C4ACC4A0C53CA4ACB4ACB5ACB520F
:1055F0000D53894A9263F16B2C5330534D53CB5268
:10560000EC520C5BEC5ACB5AEC5A0C5B0C63EC5A28
:10561000CB52CB52CB52EC52CB52AB52CB52AB52C1
:10562000AB52AB52AB52AB4ACB52CB528A4AAB4A8B
:10563000AA4AEC52FF4F7EEF9EEF9EEF9EEF9EF741
:10564000BFF7DFF7DFF7DFF7DFF7BFF7BFF7BFF72A
:10565000BFF7BFF7BEF7BFF7BFF7BFF7BFF7BEF79C
:10566000BFF7DFF7DEF7BEF7DEF7BEF7BEF79EF750
:105670009EF7BFF7BFF7BFF7BFF7BFF79FEF7EEF0C
:105680005EE73EDF1EDFDECEBDCEBDCEBDCEBDCEE3
:105690009DCE9DCEDDD6DED6DED69DCE9DC67DBE10
:1056A0005CBEBECE9DC63CB61CB6FBB5DBADDCAD6C
:1056B000DCADBCA59C9D7C9D1B8DDA845874587410
:1056C000997C797C9A7C797418641964F863D85B46
:1056D000B853F95BD85BF95BD95BB853D85BB85B5F
:1056E000B85BB85BB85BB85BB85BF863F85BD86372
:1056F000D85BB75BD75BF863F863D85BD75BF863BD
:10570000F95BD85BF85BD85BD85BF95BF85BF85B5F
:10571000F963F963F863F7631864F863F763F76391
:10572000186CF863F863386CF863F9631964F8630C
:10573000F863F863F8631964F963F963D85BF86395
:10574000F963F963F963F963F863D863D863D863DD
:105750001964F963B85BB85B1964D85BF963F863E3
:10576000D863D85BD85B19641964F863F863F9638C
:10577000F963D85BD85BF85BF85BF5538E438B32EB
:105780004A2AAC328C3A4D2A954B0F43E531C4314D
:10579000C531E539E639E6310632673AE629C629E8
:1057A000A631A6190D1AF0326B424539A439A6313B
:1057B0008631853185318429852986318631873145
:1057C0008631A631A531C629C529A631A539A3310F
:1057D000C62982298E3A4F53873AEE4A0632263A34
:1057E000473A0632063A063A063AE639C531A53155
:1057F000C531C531A431C531C531C531E639C539E9
:10580000A531A531A531A531A431A531A531842912
:10581000A531C531FF4F7EEF9FEF9EEF9EEFBFF7A3
:10582000BFF7BFF7BFF7DFF7DFFFDFFFDFF7BEF739
:10583000BFF7DFFFDFF7DFF7DFF7BFF7BFF7DFFF08
:10584000DFFFDFFFDFF7BEF7BEF7BEF79EF79EF77D
:105850009EF79FF79EEFBFF7DFF7BFF79FEF9FEF32
:105860009FE75EDF1ED7FED6DECEDECEDECEBECE1C
:10587000BECEBECEDECEFED6DED69EC67EBE7DBE01
:105880007DBE7DBE9EC67EBE3DB63DBE1DB6FCAD98
:10589000DCA57A955B957C95BA7C997CDA84FB844F
:1058A0001B8D3B951A8D1B8DFB84DB847974F8630B
:1058B000D85BF85BF85BF85BF853D853B753D85311
:1058C000F85BF85BF85BD85BF85BF85B196419640C
:1058D000F85BB753D753B753F85BF85BF85B195CC9
:1058E0001964F85BD75B1864F8631964D85BF85BDC
:1058F00018641864F85BF85B396459643964185C9F
:105900003964F85BF85B1864185C185C38641864D8
:10591000185C185C185C186418641864F85B1864E8
:1059200018641864F85BF85B3964F85BF85BF85B43
:105930001864185C185CF85B5964185CF85BF85BD9
:10594000185CF85BF85B19643A64195C195C3A649A
:10595000F95BD853195CF853B753B55BF5536E43F5
:105960003143B65B0E4B0A2AF1329243293AC841C1
:10597000E841E739073AE731E839E839C839A7316A
:10598000A631A439082A4D2A0C2AE629E629C72976
:10599000A731C6398639A7212932C629E631C73948
:1059A000A731A731A739C739C631A6318739C739D9
:1059B000263AC731A9210B2A6C42ED4A273A483AC8
:1059C0006A42283A4942E839E839C739C739A73124
:1059D000A731E739E739E731C731C731083AE83944
:1059E000C731C731C731A731A7398631A739C73980
:1059F000A739A739FF4F9FEF9FEF9FF7BFF7BFF77B
:105A0000BEF7BFF7BFF7DFF7DFF7DFFFDFFFBFF757
:105A1000BFF7DFF7DFF7DFF7DFF7BFF7BFF7DFFF2E
:105A2000DFF7DFF7DFF7DFF7BFF7BFF7BFF79EF767
:105A30009EEF9EEF9EEFBEF7BFF7BFEF9FEF7FE7B2
:105A40007FE75EDF1ED71EDFFED6DDCEDED6BDCE03
:105A50009DCEDECEBDCEBECEDECE9EC67DBE5DBEB2
:105A60005DBE5DBE7EC69EC63DB65DBE5DBEFCAD86
:105A7000BBA57B9D5A953B8DBA7C9974DA841A8DAF
:105A80005C955B953A953A951A8D3B8D7974F763E1
:105A9000D75BD75BD85BD75BF753D753F753D75355
:105AA000185C1864F75BD75BD75BD75B3964F85B2E
:105AB000D753F85BF85BD753F85BF85BD753185CA8
:105AC0001864F863D75BD75BF8633864D75BF86317
:105AD000F863F863F75BF75B18643964186418645B
