:020000040800F2
:10000000A007002089520008CD030008CF03000894
:10001000D3030008D7030008DB030008000000003A
:10002000000000000000000000000000DF030008E6
:10003000E103000800000000E3030008E5030008F6
:10004000A3520008A3520008A3520008A3520008BC
:10005000A3520008A3520008A3520008A3520008AC
:10006000A3520008A3520008A3520008A35200089C
:10007000A3520008A3520008A3520008A35200088C
:10008000A3520008A3520008A3520008A35200087C
:10009000A3520008A3520008A3520008A35200086C
:1000A000A3520008A3520008A3520008A35200085C
:1000B000A3520008A3520008A3520008A35200084C
:1000C000A3520008A3520008A3520008A35200083C
:1000D000A3520008FD510008A3520008A3520008D3
:1000E000A3520008A3520008A3520008A35200081C
:1000F000A3520008A3520008A3520008A35200080C
:10010000A3520008A3520008A3520008A3520008FB
:10011000A3520008A3520008A3520008A3520008EB
:10012000A3520008A3520008A3520008A3520008DB
:1001300000F002F800F03FF80AA090E8000C8244BA
:100140008344AAF10107DA4501D100F034F8AFF297
:10015000090EBAE80F0013F0010F18BFFB1A43F0A5
:1001600001031847FC7A00001C7B0000103A24BFF2
:1001700078C878C1FAD8520724BF30C830C144BF0C
:1001800004680C607047000000230024002500264E
:10019000103A28BF78C1FBD8520728BF30C148BFEA
:1001A0000B607047782906F0C981002070471FB5A1
:1001B0001FBD10B510BD06F08BFA1146FFF7F7FF13
:1001C00000F022F806F0A9FA03B4FFF7F2FF03BC2F
:1001D00004F0B6FF1CB54FF6FF7000F09FFE1F2025
:1001E0006049088060A01021CDE900105F490988AE
:1001F000183988B21023C822002103F04BFD4FF4B8
:100200007840584908801CBD1CB5002504F028FF23
:1002100004F090FF4FF4165004F0A1FF00F0D4F961
:1002200000F0AEFE00F0F6F94FF478404D4908803A
:100230004FA010210B46C822CDE9001032213C20EE
:1002400003F028FD4EA010210B46C822CDE9001076
:1002500046213C2003F01EFD4CA010210B46C82275
:10026000CDE900105A213C2003F014FD4BA01021D1
:100270000B46C822CDE900106E213C2003F00AFD98
:1002800049A010210B46C822CDE9001082213C2054
:1002900003F000FD4A490868804740F2DC5004F052
:1002A0001CFFFFF797FF5CE0002000F0CDF904464B
:1002B00043484168002088474148007D00F08000A5
:1002C00090B33F48008A29490988884230DA3C487F
:1002D000408A2649498888422ADA3948018A2348CF
:1002E00000881838814206DD3548408A102802DA35
:1002F000FFF770FF1CE0324A518A108A4FF47842AF
:1003000004F039F82FA010212D4ECDE90010368AC7
:100310003236B3B22A4E368A3236B2B2284E718A9B
:10032000308A03F0B7FC03E0FFE70A2004F0D5FEB3
:10033000012C09D14FF6FF7000F0F0FD04F008FA2F
:1003400004F0AFF8FFF746FF681CC5B2142D08D1C2
:1003500000251D48006808B9012000E000201A4966
:100360000860A1E716000020525354006C000020E2
:10037000576172536869702053544D333200000046
:10038000544F5543482054455354000041544F4D59
:1003900040414C49454E54454B000000323031320B
:1003A0002F392F31310000005072657373204B4597
:1003B000593020746F2041646A7573740000000026
:1003C0001C0000204357000094812142704700BF69
:1003D000FEE700BFFEE700BFFEE700BFFEE7704795
:1003E00070477047704700000CB5002001900090E6
:1003F0006C48006840F480306A49086000BF694872
:10040000006800F4003000900198401C01900098B2
:1004100018B90198B0F5A06FF1D16248006800F4F6
:10042000003010B10120009001E000200090009801
:10043000012843D15C48006840F010005A49086028
:100440000846006820F0030008600846006840F095
:1004500002000860534840685249486008464068B6
:1004600048600846406840F480604860084640683C
:1004700020F47C1048600846406840F4E81048606A
:100480000846006840F08070086000BF454800687A
:1004900000F000700028F9D04248406820F00300C6
:1004A000404948600846406840F00200486000BF8C
:1004B0003C48406800F00C000828F9D10CBD10B58C
:1004C000FFF792FF10BD10B53648006840F00100FC
:1004D000344908600846406834490840314948605A
:1004E00008460068324908402E49086008460068FE
:1004F00020F4802008600846406820F4FE00486030
:100500004FF41F008860FFF7DAFF4FF000602949C1
:10051000086010BD10B5002100200022214B5B684F
:1005200003F00C0121B1042906D0082928D107E0E5
:10053000214B224C236027E01F4B204C236023E0FB
:10054000184B5B6803F47010164B5B6803F4803241
:10055000022303EB904022B9194B4343174C23600D
:100560000DE0104B5B6803F4003323B1144B43439D
:10057000124C236003E0104B4343104C236003E014
:100580000D4B0E4C236000BF00BF064B5B68C3F3EE
:1005900003130C4CE15C094B1B68CB40074C2360F8
:1005A00010BD000000100240002002400000FFF8D3
:1005B000FFFFF6FE08ED00E000127A0000000020C8
:1005C00000093D000400002008B50121482005F085
:1005D0000BFD2020ADF8000010208DF80300032053
:1005E0008DF802006946094805F042FA20210748C3
:1005F00005F0EBFA2020ADF800006946044805F04C
:1006000037FA2021024805F0E0FA08BD000C01404D
:100610000018014008B50121442005F0E5FC1C202C
:10062000ADF8000048208DF803006946354805F014
:100630001FFA0120ADF8000028208DF8030069465C
:10064000314805F015FA08BD10B5044614B1012073
:100650002E4908702D480078002837D010212948ED
:1006600005F099FA78B10821264805F094FA50B1BE
:100670000421244805F08FFA28B10121224805F011
:100680008AFA012822D10A2004F027FD00201F4900
:10069000087010211B4805F07EFA08B9012010BD32
:1006A0000821184805F077FA08B90220F7E7042175
:1006B000144805F070FA08B90320F0E70121124848
:1006C00005F069FA01281BD10420E8E710210D4844
:1006D00005F061FA012813D108210A4805F05BFAF8
:1006E00001280DD10421074805F055FA012807D14A
:1006F0000121054805F04FFA10B90120034908709F
:100700000020CCE700180140000801401400002040
:10071000FE4908807047FD49891C08807047FB48E6
:10072000801C00887047F94A1080921C1180704725
:1007300010B504462046FFF7EBFF052004F0A9FCA6
:10074000FFF7EDFF10BDF248C079F049088070470F
:10075000EE49891C0880704730B5014601F01F043E
:10076000C1F34513CA0AE50205EB43151544A8B2C7
:1007700030BD00BF0100A0F10102D0B2FAD1704734
:1007800010B503460C46E248808849F24131884260
:1007900005D0DF48808845F21031884214D1DC4909
:1007A000087AFFF7B5FF1812FFF7B5FFD8B2FFF7C9
:1007B000B2FFD749487AFFF7ABFF2012FFF7ABFF34
:1007C000E0B2FFF7A8FF36E0D148808846F6040182
:1007D00088421DD1CE488079012804D1CC480088B8
:1007E000401EC01A83B2CA49087AFFF791FF181257
:1007F000FFF791FFD8B2FFF78EFFC549487AFFF7A0
:1008000087FF2012FFF787FFE0B2FFF784FF12E0B7
:10081000BF488079012804D1BD480088401EC01A15
:1008200083B2BB49087A1946FFF77DFFB849487A79
:100830002146FFF778FF10BD2DE9F04105460E4631
:1008400000240027A046B2480088A84203DDB04833
:100850004088B04202DC0020BDE8F08131462846E5
:10086000FFF78EFFAA48808849F2413188420BD0B9
:10087000A748808846F60401884205D0A4488088AD
:1008800045F21031884203D12E20FFF741FF02E0EC
:100890002220FFF73DFF9E48808849F220318842A0
:1008A00002D10220FFF765FF9848801C008800B144
:1008B00000240220FFF75DFF9448801C04889448C0
:1008C000808849F24131884205D09148808845F2BC
:1008D000103188420CD10220FFF74BFF8B48801C5F
:1008E000B0F80080E7B24FF6FF7000EA072708E093
:1008F0008748808846F60401884202D18348801CDC
:1009000004888348808849F22531884216D080487F
:10091000808844F23551884210D07D488088091F74
:1009200088420BD07A48808848F68911884205D0E1
:10093000774880884BF20551884201D120468BE7E9
:100940007348808849F24131884205D070488088D8
:1009500045F21031884207D1E012C002B91240EAD4
:10096000411040EAE82077E72046FFF7F5FE73E7FD
:1009700000B56748808849F2413188420BD064480D
:10098000808846F60401884205D06148808845F297
:100990001031884203D12920FFF7BAFE04E040F26B
:1009A00073110720FFF7BFFE00BD00B558488088CF
:1009B00049F2413188420BD05548808846F60401FF
:1009C000884205D05248808845F21031884203D1D0
:1009D0002820FFF79DFE03E000210720FFF7A3FE7C
:1009E00000BD70B5044600230026494880790128DF
:1009F0001ED14748808846F60401884218D0082C4A
:100A000015D2DFE804F00406080A0C0E10120624C2
:100A10000DE007240BE0042409E0052407E001248D
:100A200005E0002403E0032401E0022400BF00BF2E
:100A30003748808849F2413188420BD03448808859
:100A400046F60401884205D03148808845F21031CD
:100A500088427DD1082C1CD2DFE804F00406090C82
:100A60000F12151800BF14E043F0800311E043F0AB
:100A700040030EE043F0C0030BE043F0200308E026
:100A800043F0600305E043F0A00302E043F0E0031D
:100A900000BF00BF36261E48808845F210318842CC
:100AA00001D043F008031A48808846F604018842C2
:100AB00001D143F0020319463046FFF734FE03F03C
:100AC000200018B91248807901280DD110480088FB
:100AD0000F494988884214DA0D48058840880C4936
:100AE0000880084645800CE0094800880849498884
:100AF000884206DD06480588408805490880084682
:100B000045800349087AFFF703FE03E0FE07006C07
:100B10006C0000200020FFF7FEFD0020FFF7FBFD2A
:100B2000FB490988491EC1F30F20FFF7F4FDF8497E
:100B30000978491EC8B2FFF7EEFDF549487AFFF77C
:100B4000E7FD0020FFF7E7FD0020FFF7E4FD00E0F0
:100B50000DE0EF494988491EC1F30F20FFF7DBFD87
:100B6000EB498978491EC8B2FFF7D5FD31E0082C62
:100B70001CD2DFE804F004070A0D0F12151843F029
:100B8000300313E043F0100310E043F020030DE0C6
:100B900000BF0BE043F0380308E043F0280305E012
:100BA00043F0180302E043F0080300BF00BFD84839
:100BB000808848F68911884204D1112646F2400007
:100BC000034302E0032643F4805319463046FFF7FF
:100BD000AAFD70BD30B504460D4629462046FFF7F4
:100BE000CFFDFFF7B0FDCB480088CB49088030BD72
:100BF00030B503460C461546C548808849F2413158
:100C0000884205D0C248808845F21031884214D10C
:100C1000BF49087AFFF77CFD1812FFF77CFDD8B2B8
:100C2000FFF779FDBA49487AFFF772FD2012FFF706
:100C300072FDE0B2FFF76FFD36E0B548808846F6FA
:100C4000040188421DD1B2488079012804D1B048FE
:100C50000088401EC01A83B2AD49087AFFF758FDDC
:100C60001812FFF758FDD8B2FFF755FDA849487A8A
:100C7000FFF74EFD2012FFF74EFDE0B2FFF74BFDF0
:100C800012E0A3488079012804D1A1480088401EC1
:100C9000C01A83B29E49087A1946FFF744FD9C4961
:100CA000487A2146FFF73FFD9948C0799A49891E45
:100CB0000880881C058030BD10B50446002C49D141
:100CC00093498871F02008804FF4A070488008464E
:100CD000808849F2413188420BD08D48808846F6A1
:100CE0000401884205D08A48808845F21031884244
:100CF0001AD12C208649C8712A2008722B204872EC
:100D00000846808846F60401884205D080488088DD
:100D100045F2103188426FD14FF4A0707C490880B1
:100D20004FF4F070488067E07948808848F6891170
:100D3000884207D122207649C8714E2008724F2080
:100D4000487259E022207249C8712020087221207F
:100D5000487251E001206E4988714FF4A0700880FC
:100D6000F02048800846808849F24131884205D009
:100D70006748808845F21031884207D12C206449A9
:100D8000C8712A2008722B20487222E060488088AF
:100D900046F60401884207D12C205D49C8712B20FA
:100DA00008722A20487214E05948808848F6891150
:100DB000884207D122205649C8714F2008724E2020
:100DC000487206E022205249C87121200872202072
:100DD00048724F48808846F60401884205D04C4846
:100DE000808845F21031884206D14FF4F0704849AE
:100DF00008804FF4A07048800020FFF7F2FD10BD7E
:100E00002DE9FF4F04460D4616461F46A019401E09
:100E100086B2E819401E87B23D48808849F24131C8
:100E200088420BD03A48808845F21031884205D07C
:100E30003748808846F60401884220D13449087A30
:100E4000FFF766FC2012FFF766FCE0B2FFF763FCD9
:100E50003012FFF760FCF0B2FFF75DFC2C49487AD6
:100E6000FFF756FC2812FFF756FCE8B2FFF753FCD9
:100E70003812FFF750FCF8B2FFF74DFC46E024486B
:100E8000807901280ED1A846B94621480088801BE8
:100E9000401E80B201901E480088001B401E80B298
:100EA000009003E0A046B14601950097184880885D
:100EB00048F6891188420DD14FF0440A4FF0440B97
:100EC00048EA09201FFA80F8C146452003904620D1
:100ED000029007E04FF0500A4FF0510B5220039060
:100EE0005320029041465046FFF71DFC49465846A4
:100EF000FFF719FC01990398FFF715FC0099029878
:100F0000FFF711FC29462046FFF73AFCBDE8FF8FAA
:100F10006C000020160000200008006C70B504462C
:100F20000026FE48058840884543FC48808846F6F0
:100F30000401884216D1F9488079012812D1002095
:100F4000F64988712A2008722B2048720021084631
:100F5000FFF716FC0120F14988712B2008722A2026
:100F6000487203E000210846FFF70AFCFFF7EBFB9D
:100F7000002602E0EA480480761CAE42FAD370BD37
:100F800000B59FB00121080205F021F8012140F2CF
:100F9000691005F029F80120ADF8780010208DF8CF
:100FA0007B0003208DF87A001EA9DE4804F060FD66
:100FB0004CF23370ADF8780018208DF87B000320D8
:100FC0008DF87A001EA9D84804F052FD4FF68070C3
:100FD000ADF8780018208DF87B0003208DF87A009A
:100FE0001EA9D24804F044FD41F20100ADF878009A
:100FF00018208DF87B0003208DF87A001EA9CC48BC
:1010000004F036FD01200890002009900F200A907E
:1010100000200B900C900D900E90019002900320F8
:1010200003900020049005900690079006200F90F2
:101030000020109011901020129000201390159015
:101040001490169017904FF480501890002019902B
:101050004FF480401A9000201B9008A81C9001A813
:101060001D900FA804F0EAF90121062004F04EFBC0
:10107000322004F032F801210020FFF754FB322027
:1010800004F02BF80020FFF753FBA44988800846A2
:101090008088FF280ADB084680884FF6FF71884267
:1010A00004D09E488088B0F5134F61D1D320FFF75C
:1010B0002FFBFFF734FBFFF732FBFFF730FB9749BD
:1010C0008880084680884FF6FF7101EA0020934926
:1010D0008880FFF724FB9149898808438F498880DD
:1010E0000846808849F2413188421BD0BF20FFF773
:1010F0000FFBFFF714FBFFF712FBFFF710FBFFF7E7
:101100000EFB86498880084680884FF6FF7101EA09
:10111000002082498880FFF702FB804989880843C4
:101120007E4988807D48808849F2413188421FD0BD
:101130007A48808846F60401884219D0D420FFF707
:10114000E7FAFFF7ECFAFFF7EAFAFFF7E8FA734974
:101150008880084680884FF6FF7101EA00206F49B9
:101160008880FFF7DCFA6D49898808436B498880DD
:101170006A4881886FA005F0A1F96848808849F223
:10118000413188427ED1CF20FFF7C2FA0020FFF71D
:10119000C2FAC120FFF7BFFA3020FFF7BCFAED20FA
:1011A000FFF7B6FA6420FFF7B6FA0320FFF7B3FAA9
:1011B0001220FFF7B0FA8120FFF7ADFAE820FFF721
:1011C000A7FA8520FFF7A7FA1020FFF7A4FA7A20E4
:1011D000FFF7A1FACB20FFF79BFA3920FFF79BFA24
:1011E0002C20FFF798FA0020FFF795FA3420FFF73C
:1011F00092FA0220FFF78FFAF720FFF789FA2020F2
:10120000FFF789FAEA20FFF783FA0020FFF783FA55
:101210000020FFF780FAC020FFF77AFA1B20FFF7C3
:101220007AFAC120FFF774FA0120FFF774FAC5209B
:10123000FFF76EFA3020FFF76EFA3020FFF76BFAF7
:10124000C720FFF765FAB720FFF765FA3620FFF7EA
:101250005FFA4820FFF75FFA3A20FFF759FA552066
:10126000FFF759FAB120FFF753FA0020FFF753FABE
:101270001A20FFF750FAB620FFF74AFA0A20FFF7C4
:101280004AFA00E0ADE0A220FFF745FAF220FFF7AE
:101290003FFA0020FFF73FFA2620FFF739FA012036
:1012A000FFF739FAE020FFF733FA0F20FFF733FAA0
:1012B0002A20FFF730FA2820FFF72DFA0820FFF741
:1012C0002AFA0E20FFF727FA0820FFF724FA542005
:1012D000FFF721FAA920FFF71EFA4320FFF71BFAB8
:1012E0000A20FFF718FA0F20FFF715FA0020FFF782
:1012F00012FA0020FFF70FFA0020FFF70CFA002087
:10130000FFF709FAE120FFF703FA0020FFF703FADD
:101310001520FFF700FA172014E000006C000020F1
:101320000008006C000C014000140140001801404E
:1013300000200140204C43442049443A25780D0ABE
:1013400000000000FFF7E7F90720FFF7E4F911209C
:10135000FFF7E1F90620FFF7DEF92B20FFF7DBF9B5
:101360005620FFF7D8F93C20FFF7D5F90520FFF705
:10137000D2F91020FFF7CFF90F20FFF7CCF93F206B
:10138000FFF7C9F93F20FFF7C6F90F20FFF7C3F9B0
:101390002B20FFF7BDF90020FFF7BDF90020FFF774
:1013A000BAF90120FFF7B7F93F20FFF7B4F92A2077
:1013B000FFF7AEF90020FFF7AEF90020FFF7ABF919
:1013C0000020FFF7A8F9EF20FFF7A5F91120FFF79C
:1013D0009FF9782003F081FE2920FFF799F902F0A8
:1013E00094B9FE48808846F6040188427ED11120D7
:1013F000FFF78EF9142003F070FED020FFF788F974
:101400000720FFF788F94220FFF785F91D20FFF735
:1014100082F9D120FFF77CF90020FFF77CF91A2030
:10142000FFF779F90920FFF776F9D220FFF770F975
:101430000120FFF770F92220FFF76DF9C020FFF7B8
:1014400067F91020FFF767F93B20FFF764F90020E8
:10145000FFF761F90220FFF75EF91120FFF75BF952
:10146000C520FFF755F90320FFF755F9C820FFF70E
:101470004FF90020FFF74FF92520FFF74CF9212005
:10148000FFF749F90520FFF746F90020FFF743F978
:101490000A20FFF740F96520FFF73DF92520FFF707
:1014A0003AF97720FFF737F95020FFF734F90F208A
:1014B000FFF731F90020FFF72EF9F820FFF728F9A0
:1014C0000120FFF728F9FE20FFF722F90020FFF79F
:1014D00022F90220FFF71FF92020FFF719F9362023
:1014E000FFF716F90820FFF716F900E02AE03A2086
:1014F000FFF70EF95520FFF70EF92B20FFF708F93B
:101500000020FFF708F90020FFF705F90120FFF799
:1015100002F93F20FFF7FFF82A20FFF7F9F8002033
:10152000FFF7F9F80020FFF7F6F80120FFF7F3F8CE
:10153000DF20FFF7F0F8782003F0CFFD2920FFF738
:10154000E7F84CE7A548808845F21031884240F022
:101550007C87ED20FFF7DCF80120FFF7DCF8FE20A8
:10156000FFF7D9F8EE20FFF7D3F8DE20FFF7D3F826
:101570002120FFF7D0F8F120FFF7CAF80120FFF78C
:10158000CAF8DF20FFF7C4F81020FFF7C4F8C42022
:10159000FFF7BEF88F20FFF7BEF8C620FFF7B8F8B8
:1015A0000020FFF7B8F8E220FFF7B5F8E220FFF7D8
:1015B000B2F8E220FFF7AFF8BF20FFF7A9F8AA20A2
:1015C000FFF7A9F8B020FFF7A3F80D20FFF7A3F865
:1015D0000020FFF7A0F80D20FFF79DF80020FFF78F
:1015E0009AF81120FFF797F80020FFF794F81920D8
:1015F000FFF791F80020FFF78EF82120FFF78BF816
:101600000020FFF788F82D20FFF785F80020FFF76E
:1016100082F83D20FFF77FF80020FFF77CF85D207F
:10162000FFF779F80020FFF776F85D20FFF773F8F1
:101630000020FFF770F8B120FFF76AF88020FFF76D
:101640006AF80020FFF767F88B20FFF764F80020A6
:10165000FFF761F89620FFF75EF80020FFF75BF8D0
:10166000B220FFF755F80020FFF755F80020FFF7EC
:1016700052F80220FFF74FF80020FFF74CF8032044
:10168000FFF749F80020FFF746F8B320FFF740F8CE
:101690000020FFF740F80020FFF73DF80020FFF79B
:1016A0003AF80020FFF737F80020FFF734F8002061
:1016B000FFF731F80020FFF72EF80020FFF72BF896
:1016C0000020FFF728F80020FFF725F80020FFF79B
:1016D00022F80020FFF71FF80020FFF71CF8002079
:1016E000FFF719F80020FFF716F80020FFF713F8AE
:1016F0000020FFF710F80020FFF70DF80020FFF79B
:101700000AF80020FFF707F80020FFF704F8002090
:10171000FFF701F80020FEF7FEFF0020FEF7FBFFB9
:10172000B420FEF7F5FF8B20FEF7F5FF0020FEF753
:10173000F2FF9620FEF7EFFF0020FEF7ECFFA1205E
:10174000FEF7E9FF0020FEF7E6FFB520FEF7E0FF19
:101750000220FEF7E0FF0020FEF7DDFF0320FEF78A
:10176000DAFF0020FEF7D7FF0420FEF7D4FF0020A9
:10177000FEF7D1FFB620FEF7CBFF0020FEF7CBFF30
:101780000020FEF7C8FFB720FEF7C2FF0020FEF7DB
:10179000C2FF0020FEF7BFFF3F20FEF7BCFF002086
:1017A000FEF7B9FF5E20FEF7B6FF0020FEF7B3FF9D
:1017B0006420FEF7B0FF0020FEF7ADFF8C20FEF79F
:1017C000AAFF0020FEF7A7FFAC20FEF7A4FF002031
:1017D000FEF7A1FFDC20FEF79EFF01E06C00002079
:1017E0000020FEF798FF7020FEF795FF0020FEF71F
:1017F00092FF9020FEF78FFF0020FEF78CFFEB207A
:10180000FEF789FF0020FEF786FFDC20FEF783FF4E
:101810000020FEF780FFB820FEF77AFF0020FEF7D9
:101820007AFF0020FEF777FF0020FEF774FF00200C
:10183000FEF771FF0020FEF76EFF0020FEF76BFF42
:101840000020FEF768FF0020FEF765FFBA20FEF7D4
:101850005FFF2420FEF75FFF0020FEF75CFF002003
:10186000FEF759FF0020FEF756FFC120FEF750FF9C
:101870002020FEF750FF0020FEF74DFF5420FEF71A
:101880004AFF0020FEF747FFFF20FEF744FF00203D
:10189000FEF741FFC220FEF73BFF0A20FEF73BFFA9
:1018A0000020FEF738FF0420FEF735FF0020FEF78A
:1018B00032FFC320FEF72CFF3C20FEF72CFF002058
:1018C000FEF729FF3A20FEF726FF0020FEF723FF50
:1018D0003920FEF720FF0020FEF71DFF3720FEF71E
:1018E0001AFF0020FEF717FF3C20FEF714FF002030
:1018F000FEF711FF3620FEF70EFF0020FEF70BFF6C
:101900003220FEF708FF0020FEF705FF2F20FEF72C
:1019100002FF0020FEF7FFFE2C20FEF7FCFE002059
:10192000FEF7F9FE2920FEF7F6FE0020FEF7F3FE93
:101930002620FEF7F0FE0020FEF7EDFE2420FEF745
:10194000EAFE0020FEF7E7FE2420FEF7E4FE00207A
:10195000FEF7E1FE2320FEF7DEFE0020FEF7DBFEB1
:101960003C20FEF7D8FE0020FEF7D5FE3620FEF71D
:10197000D2FE0020FEF7CFFE3220FEF7CCFE002084
:10198000FEF7C9FE2F20FEF7C6FE0020FEF7C3FEBD
:101990002C20FEF7C0FE0020FEF7BDFE2920FEF73A
:1019A000BAFE0020FEF7B7FE2620FEF7B4FE0020A8
:1019B000FEF7B1FE2420FEF7AEFE0020FEF7ABFEE0
:1019C0002420FEF7A8FE0020FEF7A5FE2320FEF748
:1019D000A2FE0020FEF79FFEC420FEF799FE6220C3
:1019E000FEF799FE0020FEF796FE0520FEF793FE17
:1019F0000020FEF790FE8420FEF78DFE0020FEF70B
:101A00008AFEF020FEF787FE0020FEF784FE1820F5
:101A1000FEF781FE0020FEF77EFEA420FEF77BFE8F
:101A20000020FEF778FE1820FEF775FE0020FEF776
:101A300072FE5020FEF76FFE0020FEF76CFE0C20B9
:101A4000FEF769FE0020FEF766FE1720FEF763FE34
:101A50000020FEF760FE9520FEF75DFE0020FEF7F9
:101A60005AFEF320FEF757FE0020FEF754FEE62054
:101A7000FEF751FE0020FEF74EFEC520FEF748FEA1
:101A80003220FEF748FE0020FEF745FE4420FEF718
:101A900042FE0020FEF73FFE6520FEF73CFE0020E0
:101AA000FEF739FE7620FEF736FE0020FEF733FE05
:101AB0008820FEF730FE0020FEF72DFEC620FEF740
:101AC00027FE2020FEF727FE0020FEF724FE172029
:101AD000FEF721FE0020FEF71EFE0120FEF71BFE92
:101AE0000020FEF718FEC720FEF712FE0020FEF7CA
:101AF00012FE0020FEF70FFE0020FEF70CFE002075
:101B0000FEF709FEC820FEF703FE0020FEF703FEE5
:101B10000020FEF700FE0020FEF7FDFD0020FEF78E
:101B2000FAFDC920FEF7F4FD0020FEF7F4FD0020C9
:101B3000FEF7F1FD0020FEF7EEFD0020FEF7EBFDC5
:101B40000020FEF7E8FD0020FEF7E5FD0020FEF78F
:101B5000E2FD0020FEF7DFFD0020FEF7DCFD0020A7
:101B6000FEF7D9FD0020FEF7D6FD0020FEF7D3FDDD
:101B70000020FEF7D0FD0020FEF7CDFD0020FEF78F
:101B8000CAFD0020FEF7C7FDE020FEF7C1FD1620CC
:101B9000FEF7C1FD0020FEF7BEFD1C20FEF7BBFDD9
:101BA0000020FEF7B8FD2120FEF7B5FD0020FEF76E
:101BB000B2FD3620FEF7AFFD0020FEF7ACFD46205B
:101BC000FEF7A9FD0020FEF7A6FD5220FEF7A3FDBB
:101BD0000020FEF7A0FD6420FEF79DFD0020FEF72B
:101BE0009AFD7A20FEF797FD0020FEF794FD8B20EA
:101BF000FEF791FD0020FEF78EFD9920FEF78BFD8C
:101C00000020FEF788FDA820FEF785FD0020FEF7E6
:101C100082FDB920FEF77FFD0020FEF77CFDC42089
:101C2000FEF779FD0020FEF776FDCA20FEF773FD72
:101C30000020FEF770FDD220FEF76DFD0020FEF7BC
:101C40006AFDD920FEF767FD0020FEF764FDE02065
:101C5000FEF761FD0020FEF75EFDF320FEF75BFD61
:101C60000020FEF758FDE120FEF752FD1620FEF79A
:101C700052FD0020FEF74FFD1C20FEF74CFD00201A
:101C8000FEF749FD2220FEF746FD0020FEF743FD4A
:101C90003620FEF740FD0020FEF73DFD4520FEF713
:101CA0003AFD0020FEF737FD5220FEF734FD0020FC
:101CB000FEF731FD6420FEF72EFD0020FEF72BFD20
:101CC0007A20FEF728FD0020FEF725FD8B20FEF789
:101CD00022FD0020FEF71FFD9920FEF71CFD0020CD
:101CE000FEF719FDA820FEF716FD0020FEF713FDF4
:101CF000B920FEF710FD0020FEF70DFDC420FEF711
:101D00000AFD0020FEF707FDCA20FEF704FD0020B3
:101D1000FEF701FDD220FEF7FEFC0020FEF7FBFCE3
:101D2000D820FEF7F8FC0020FEF7F5FCE020FEF7D7
:101D3000F2FC0020FEF7EFFCF320FEF7ECFC0020A5
:101D4000FEF7E9FCE220FEF7E3FC0520FEF7E3FCEA
:101D50000020FEF7E0FC0B20FEF7DDFC0020FEF784
:101D6000DAFC1B20FEF7D7FC0020FEF7D4FC342061
:101D7000FEF7D1FC0020FEF7CEFC4420FEF7CBFCA2
:101D80000020FEF7C8FC4F20FEF7C5FC0020FEF740
:101D9000C2FC6120FEF7BFFC0020FEF7BCFC7920EE
:101DA000FEF7B9FC0020FEF7B6FC8820FEF7B3FC76
:101DB0000020FEF7B0FC9720FEF7ADFC0020FEF7F8
:101DC000AAFCA620FEF7A7FC0020FEF7A4FCB72083
:101DD000FEF7A1FC0020FEF79EFCC220FEF79BFC54
:101DE0000020FEF798FCC720FEF795FC0020FEF7C8
:101DF00092FCD120FEF78FFC0020FEF78CFCD62051
:101E0000FEF789FC0020FEF786FCDD20FEF783FC50
:101E10000020FEF780FCF320FEF77DFC0020FEF79B
:101E20007AFCE320FEF774FC0520FEF774FC00202A
:101E3000FEF771FC0A20FEF76EFC0020FEF76BFC3B
:101E40001C20FEF768FC0020FEF765FC3320FEF73F
:101E500062FC0020FEF75FFC4420FEF75CFC0020E3
:101E6000FEF759FC5020FEF756FC0020FEF753FC0D
:101E70006220FEF750FC0020FEF74DFC7820FEF7B4
:101E80004AFC0020FEF747FC8820FEF744FC0020B7
:101E9000FEF741FC9720FEF73EFC0020FEF73BFCDE
:101EA000A620FEF738FC0020FEF735FCB720FEF731
:101EB00032FC0020FEF72FFCC220FEF72CFC002095
:101EC000FEF729FCC720FEF726FC0020FEF723FCC6
:101ED000D120FEF720FC0020FEF71DFCD520FEF7E8
:101EE0001AFC0020FEF717FCDD20FEF714FC002092
:101EF000FEF711FCF320FEF70EFC0020FEF70BFCB2
:101F0000E420FEF705FC0120FEF705FC0020FEF7AB
:101F100002FC0120FEF7FFFB0020FEF7FCFB022085
:101F2000FEF7F9FB0020FEF7F6FB2A20FEF7F3FB95
:101F30000020FEF7F0FB3C20FEF7EDFB0020FEF753
:101F4000EAFB4B20FEF7E7FB0020FEF7E4FB5D20F9
:101F5000FEF7E1FB0020FEF7DEFB7420FEF7DBFB63
:101F60000020FEF7D8FB8420FEF7D5FB0020FEF70B
:101F7000D2FB9320FEF7CFFB0020FEF7CCFBA22084
:101F8000FEF7C9FB0020FEF7C6FBB320FEF7C3FB3C
:101F90000020FEF7C0FBBE20FEF7BDFB0020FEF7D1
:101FA000BAFBC420FEF7B7FB0020FEF7B4FBCD2040
:101FB000FEF7B1FB0020FEF7AEFBD320FEF7ABFB34
:101FC0000020FEF7A8FBDD20FEF7A5FB0020FEF7B2
:101FD000A2FBF320FEF79FFB0020FEF79CFBE52011
:101FE000FEF796FB0020FEF796FB0020FEF793FB22
:101FF0000020FEF790FB0020FEF78DFB0220FEF78D
:102000008AFB0020FEF787FB2920FEF784FB0020D7
:10201000FEF781FB3C20FEF77EFB0020FEF77BFBFA
:102020004B20FEF778FB0020FEF775FB5D20FEF7E6
:1020300072FB0020FEF76FFB7420FEF76CFB0020A4
:10204000FEF769FB8420FEF766FB0020FEF763FBCA
:102050009320FEF760FB0020FEF75DFBA220FEF759
:102060005AFB0020FEF757FBB320FEF754FB00207D
:10207000FEF751FBBE20FEF74EFB0020FEF74BFBA8
:10208000C420FEF748FB0020FEF745FBCD20FEF7FD
:1020900042FB0020FEF73FFBD320FEF73CFB002075
:1020A000FEF739FBDC20FEF736FB0020FEF733FBA2
:1020B000F320FEF730FB0020FEF72DFBE620FEF7B5
:1020C00027FB1120FEF727FB0020FEF724FB34201E
:1020D000FEF721FB0020FEF71EFB5620FEF71BFB40
:1020E0000020FEF718FB7620FEF715FB0020FEF718
:1020F00012FB7720FEF70FFB0020FEF70CFB66209B
:10210000FEF709FB0020FEF706FB8820FEF703FB25
:102110000020FEF700FB9920FEF7FDFA0020FEF7F5
:10212000FAFABB20FEF7F7FA0020FEF7F4FA99203E
:10213000FEF7F1FA0020FEF7EEFA6620FEF7EBFA62
:102140000020FEF7E8FA5520FEF7E5FA0020FEF73A
:10215000E2FA5520FEF7DFFA0020FEF7DCFA452010
:10216000FEF7D9FA0020FEF7D6FA4320FEF7D3FA9D
:102170000020FEF7D0FA4420FEF7CDFA0020FEF74B
:10218000CAFAE720FEF7C4FA3220FEF7C4FA0020AC
:10219000FEF7C1FA5520FEF7BEFA0020FEF7BBFAA3
:1021A0007620FEF7B8FA0020FEF7B5FA6620FEF7B3
:1021B000B2FA0020FEF7AFFA6720FEF7ACFA002073
:1021C000FEF7A9FA6720FEF7A6FA0020FEF7A3FAA9
:1021D0008720FEF7A0FA0020FEF79DFA9920FEF76F
:1021E0009AFA0020FEF797FABB20FEF794FA002037
:1021F000FEF791FA9920FEF78EFA0020FEF78BFA8F
:102200007720FEF788FA0020FEF785FA4420FEF7D3
:1022100082FA0020FEF77FFA5620FEF77CFA0020B3
:10222000FEF779FA2320FEF776FA0020FEF773FA1C
:102230003320FEF770FA0020FEF76DFA4520FEF716
:102240006AFA0020FEF767FAE820FEF761FA00203C
:10225000FEF761FA0020FEF75EFA9920FEF75BFABE
:102260000020FEF758FA8720FEF755FA0020FEF707
:1022700052FA8820FEF74FFA0020FEF74CFA77203A
:10228000FEF749FA0020FEF746FA6620FEF743FA09
:102290000020FEF740FA8820FEF73DFA0020FEF706
:1022A0003AFAAA20FEF737FA0020FEF734FABB20EC
:1022B000FEF731FA0020FEF72EFA9920FEF72BFAEE
:1022C0000020FEF728FA6620FEF725FA0020FEF728
:1022D00022FA5520FEF71FFA0020FEF71CFA5520BF
:1022E000FEF719FA0020FEF716FA4420FEF713FA5B
:1022F0000020FEF710FA4420FEF70DFA0020FEF74A
:102300000AFA5520FEF707FA0020FEF704FAE92042
:10231000FEF7FEF9AA20FEF7FEF90020FEF7FBF912
:102320000020FEF7F8F90020FEF7F5F90020FEF78F
:10233000EFF9AA20FEF7EFF9CF20FEF7E9F9002028
:10234000FEF7E9F90020FEF7E6F90020FEF7E3F9D1
:102350000020FEF7E0F90020FEF7DDF90020FEF78F
:10236000DAF90020FEF7D7F90020FEF7D4F90020B3
:10237000FEF7D1F90020FEF7CEF90020FEF7CBF9E9
:102380000020FEF7C8F90020FEF7C5F90020FEF78F
:10239000C2F90020FEF7BFF90020FEF7BCF90020CB
:1023A000FEF7B9F9F020FEF7B3F90020FEF7B3F914
:1023B0005020FEF7B0F90020FEF7ADF90020FEF73F
:1023C000AAF90020FEF7A7F9F320FEF7A1F90020F3
:1023D000FEF7A1F9F920FEF79BF90620FEF79BF91D
:1023E0001020FEF798F92920FEF795F90020FEF756
:1023F00092F93A20FEF78CF95520FEF78CF911205E
:10240000FEF786F9642002F068FE2920FEF780F9C5
:102410003520FEF77DF90020FEF77DF95120FEF70B
:1024200077F9FF20FEF777F95320FEF771F92C209A
:10243000FEF771F95520FEF76BF98220FEF76BF974
:102440002C20FEF765F901F060B9FE48808849F25A
:10245000253188427ED147F6F001E520FEF763F989
:102460004FF480710120FEF75EF94FF4E061022025
:10247000FEF759F941F230010320FEF754F900212B
:102480000420FEF750F940F202210820FEF74BF934
:1024900000210920FEF747F900210A20FEF743F941
:1024A00000210C20FEF73FF900210D20FEF73BF93B
:1024B00000210F20FEF737F900211020FEF733F935
:1024C00007211120FEF72FF900211220FEF72BF92A
:1024D00000211320FEF727F900210720FEF723F93A
:1024E00041F290611020FEF71EF940F227211120E1
:1024F000FEF719F99D211220FEF715F94FF4C85186
:102500001320FEF710F925212920FEF70CF90D21E3
:102510002B20FEF708F907213020FEF704F940F2DE
:1025200003313120FEF7FFF803213220FEF7FBF8DC
:1025300040F206213520FEF7F6F808213620FEF796
:10254000F2F840F206413720FEF7EDF84FF4417102
:10255000382000E057E0FEF7E6F807213920FEF7C3
:10256000E2F840F202613C20FEF7DDF808213D2050
:10257000FEF7D9F800215020FEF7D5F8EF215120C1
:10258000FEF7D1F800215220FEF7CDF840F23F11BE
:102590005320FEF7C8F84FF427416020FEF7C3F838
:1025A00001216120FEF7BFF800216A20FEF7BBF889
:1025B00000218020FEF7B7F800218120FEF7B3F854
:1025C00000218220FEF7AFF800218320FEF7ABF850
:1025D00000218420FEF7A7F800218520FEF7A3F84C
:1025E00010219020FEF79FF84FF4C0619220FEF773
:1025F0009AF840F233110720FEF795F822210020C7
:10260000FEF791F81FE78F48808849F22831884209
:102610007ED141F28F01EC20FEF785F841F23421A2
:10262000EF20FEF780F84FF480710120FEF77BF871
:102630004FF4E0610220FEF776F841F2300103200A
:10264000FEF771F800210420FEF76DF840F2022138
:102650000820FEF768F800210920FEF764F8002141
:102660000A20FEF760F801210C20FEF75CF800213B
:102670000D20FEF758F800210F20FEF754F8002136
:102680001020FEF750F807211120FEF74CF800212A
:102690001220FEF748F800211320FEF744F801212C
:1026A0000720FEF740F8322002F017FD41F290417A
:1026B0001020FEF738F840F227211120FEF733F8FA
:1026C000322002F00AFD8A211220FEF72CF8322077
:1026D00002F003FD4FF4D0511320FEF724F8062139
:1026E0002920FEF720F80D212B20FEF71CF83220C0
:1026F00002F0F3FC00212020FEF715F80021212034
:10270000FEF711F8322002F0E8FC0021302000E052
:1027100074E0FEF708F840F204613120FEF703F898
:1027200040F205313220FDF7FEFF00213520FDF794
:10273000FAFF40F609413620FDF7F5FF4FF401712D
:102740003720FDF7F0FF40F201313820FDF7EBFFB5
:1027500040F207713920FDF7E6FF00213C20FDF72C
:10276000E2FF40F60A213D20FDF7DDFF322002F0B6
:10277000B4FC00215020FDF7D6FFEF215120FDF7DA
:10278000D2FF00215220FDF7CEFF40F23F1153202F
:10279000FDF7C9FF4FF427416020FDF7C4FF012179
:1027A0006120FDF7C0FF00216A20FDF7BCFF00217A
:1027B0008020FDF7B8FF00218120FDF7B4FF002144
:1027C0008220FDF7B0FF00218320FDF7ACFF002140
:1027D0008420FDF7A8FF00218520FDF7A4FF10212C
:1027E0009020FDF7A0FF4FF4C0619220FDF79BFF02
:1027F00040F233110720FDF796FF24E61148808848
:1028000049F2203188427DD100210846FDF78BFF37
:102810004FF480710120FDF786FF4FF4E061022044
:10282000FDF781FF41F230010320FDF77CFF00211D
:102830000420FDF778FF40F202210820FDF773FF26
:10284000002101E06C0000200920FDF76CFF002151
:102850000A20FDF768FF01210C20FDF764FF00212D
:102860000D20FDF760FF00210F20FDF75CFF3220F7
:1028700002F033FC40F201110720FDF754FF322033
:1028800002F02BFC4FF486511020FDF74CFF07217E
:102890001120FDF748FF4FF488711220FDF743FF28
:1028A0004FF430611320FDF73EFF00212920FDF792
:1028B0003AFF44F210012B20FDF735FF0021502094
:1028C000FDF731FFEF215120FDF72DFF00215220B0
:1028D000FDF729FF40F23F115320FDF724FF4FF48D
:1028E0001C516020FDF71FFF01216120FDF71BFF38
:1028F00000216A20FDF717FF00218020FDF713FF5C
:10290000002100E031E08120FDF70DFF0021822051
:10291000FDF709FF00218320FDF705FF002184203A
:10292000FDF701FF00218520FDF7FDFE102190201D
:10293000FDF7F9FE00219220FDF7F5FE012193201D
:10294000FDF7F1FE4FF488719520FDF7ECFE0021B4
:102950009720FDF7E8FE00219820FDF7E4FE40F205
:1029600073110720FDF7DFFE6DE5FE48808849F210
:10297000313188427DD141F21401E720FDF7D3FEC9
:102980004FF480710120FDF7CEFE4FF4007102205C
:10299000FDF7C9FE41F238010320FDF7C4FE40F205
:1029A00002210820FDF7BFFE00210920FDF7BBFE34
:1029B00000210A20FDF7B7FE00210C20FDF7B3FE31
:1029C00000210D20FDF7AFFE00210F20FDF7ABFE2B
:1029D00000211020FDF7A7FE07211120FDF7A3FE1F
:1029E00000211220FDF79FFE00211320FDF79BFE22
:1029F000C82002F072FB41F290611020FDF793FEB7
:102A000040F227211120FDF78EFE322002F065FBF7
:102A10000C211220FDF787FE322002F05EFB4FF4FE
:102A200000611320FDF77FFE11212920FDF77BFEB9
:102A30000B212B20FDF777FE322002F04EFB002108
:102A40002020FDF770FE40F23F112120FDF76BFEC4
:102A500000213020FDF767FE4FF483713120FDF730
:102A600062FE00213220FDF75EFE4FF40171352039
:102A700000E064E0FDF757FE41F20A613620FDF701
:102A800052FE40F207713720FDF74DFE4FF483717F
:102A90003820FDF748FE40F207713920FDF743FE6C
:102AA00040F202413C20FDF73EFE40F60F413D2042
:102AB000FDF739FE00215020FDF735FEEF215120B2
:102AC000FDF731FE00215220FDF72DFE40F23F11AF
:102AD0005320FDF728FE4FF41C516020FDF723FE24
:102AE00001216120FDF71FFE00216A20FDF71BFE7A
:102AF00000218020FDF717FE00218120FDF713FE45
:102B000000218220FDF70FFE00218320FDF70BFE40
:102B100000218420FDF707FE00218520FDF703FE3C
:102B200010219020FDF7FFFD4FF4C0619220FDF7CA
:102B3000FAFD40F233110720FDF7F5FD83E48948E3
:102B4000808845F2084188427ED14FF4807101208F
:102B5000FDF7E9FD4FF4E0610220FDF7E4FD41F2ED
:102B600030010320FDF7DFFD00210420FDF7DBFD30
:102B700040F207210820FDF7D6FD00210920FDF7CE
:102B8000D2FD00210A20FDF7CEFD00210C20FDF72B
:102B9000CAFD00210D20FDF7C6FD00210F20FDF725
:102BA000C2FD142002F099FA41F2B0611020FDF745
:102BB000BAFD01211120FDF7B6FD01211720FDF717
:102BC000B2FD4FF49C711220FDF7ADFD4FF4006192
:102BD0001320FDF7A8FD09212920FDF7A4FD0921F7
:102BE0002A20FDF7A0FD0021A420FDF79CFD002177
:102BF0005020FDF798FDEF215120FDF794FD0021B5
:102C00005220FDF790FD40F23F115320FDF78BFD60
:102C10004FF41C516020FDF786FD01216120FDF776
:102C200082FD00216A20FDF77EFD00218020FDF756
:102C30007AFD00218120FDF776FD00218220FDF73D
:102C400072FD0021832000E023E0FDF76CFD0021F0
:102C50008420FDF768FD00218520FDF764FD132128
:102C60009020FDF760FD00219220FDF75CFD03211F
:102C70009320FDF758FD4FF488719520FDF753FD23
:102C800040F273110720FDF74EFD322002F025FAC5
:102C9000B8E43448808841F2055188427ED1002151
:102CA0000720FDF740FD322002F017FA4FF48E7135
:102CB0001220FDF738FD0121A420FDF734FD0F217E
:102CC0000820FDF730FD08210A20FDF72CFD082122
:102CD0000D20FDF728FD40F207713020FDF723FDA0
:102CE00007213120FDF71FFD40F203613220FDF77F
:102CF0001AFD4FF4E0613320FDF715FD40F202218B
:102D00003420FDF710FD02213520FDF70CFD41F6C2
:102D10000F713620FDF707FD40F207713720FDF7F0
:102D200002FD00213820FDF7FEFC00213920FDF7CF
:102D3000FAFC40F207713A20FDF7F5FC00213B2038
:102D4000FDF7F1FC07213C20FDF7EDFC00213D20C3
:102D5000FDF7E9FC322002F0C0F901210720FDF760
:102D6000E2FC01E06C00002001211720FDF7DBFCF4
:102D7000322002F0B2F94FF4BD511020FDF7D3FC20
:102D800040F217211120FDF7CEFC4FF48F71122075
:102D9000FDF7C9FC4FF47061132000E097E0FDF7E8
:102DA000C2FC00212A20FDF7BEFC0A212920FDF7E4
:102DB000BAFC4FF49F711220FDF7B5FC00215020A2
:102DC000FDF7B1FCEF215120FDF7ADFC00215220B1
:102DD000FDF7A9FC40F23F115320FDF7A4FC4FF48E
:102DE0001C516020FDF79FFC01216120FDF79BFC39
:102DF00000216A20FDF797FC00218020FDF793FC5D
:102E000000218120FDF78FFC00218220FDF78BFC43
:102E100000218320FDF787FC00218420FDF783FC3F
:102E200000218520FDF77FFC13219020FDF77BFC1E
:102E30004FF440719220FDF776FC05219320FDF7B9
:102E400072FC00219520FDF76EFC00219720FDF714
:102E50006AFC00219820FDF766FC4FF48071012088
:102E6000FDF761FC4FF4E0610220FDF75CFC41F2EC
:102E700038010320FDF757FC00210420FDF753FC27
:102E800000210C20FDF74FFC00210F20FDF74BFC2B
:102E900000212020FDF747FC00212120FDF743FC05
:102EA00021210720FDF73FFC142002F016F96121D3
:102EB0000720FDF738FC142002F00FF940F27311DF
:102EC0000720FDF730FC142002F007F995E4FE48D6
:102ED00080884BF2055188427ED100210846FDF7DB
:102EE00022FC00210846FDF71EFC00210846FDF7E4
:102EF0001AFC00210846FDF716FC0121A420FDF76D
:102F000012FC142002F0E9F84FF41C516020FDF788
:102F10000AFC40F202210820FDF705FC4FF4057180
:102F20003020FDF700FC43F215713120FDF7FBFB6B
:102F300040F204613220FDF7F6FB40F616613320C3
:102F4000FDF7F1FB42F211213420FDF7ECFB4FF4C9
:102F5000A8513520FDF7E7FB48F207513620FDF771
:102F6000E2FB41F207413720FDF7DDFB41F203416F
:102F70003820FDF7D8FB20213920FDF7D4FB1A219A
:102F80009020FDF7D0FB00211020FDF7CCFB07219E
:102F90001120FDF7C8FB00211220FDF7C4FB002122
:102FA0001320FDF7C0FB142002F097F84FF4E66100
:102FB0001020FDF7B8FB40F237111120FDF7B3FBED
:102FC000142002F08AF84FF4DC711220FDF7ABFBFD
:102FD000142002F082F800E083E04FF470611320C7
:102FE000FDF7A1FB80212A20FDF79DFB4821292028
:102FF000FDF799FB142002F070F84FF48071012066
:10300000FDF791FB4FF4E0610220FDF78CFB41F2EC
:1030100038010320FDF787FB40F202210820FDF76D
:1030200082FB00210A20FDF77EFB00210C20FDF72A
:103030007AFB00210D20FDF776FB30210E20FDF7F5
:1030400072FB00215020FDF76EFBEF215120FDF7B0
:103050006AFB00215220FDF766FB40F23F1153202E
:10306000FDF761FB4FF41C516020FDF75CFB012173
:103070006120FDF758FB00216A20FDF754FB112168
:103080009020FDF750FB4FF4C0619220FDF74BFB01
:1030900040F202419320FDF746FB02219420FDF708
:1030A00042FB142002F019F801210720FDF73BFB39
:1030B000142002F012F861210720FDF734FB40F2E2
:1030C00073110720FDF72FFB00212020FDF72BFBBC
:1030D00000212120FDF727FB22210020FDF723FB03
:1030E00013E3794880884CF2055188427ED1002153
:1030F0000846FDF718FB00210846FDF714FB1420D5
:1031000001F0EBFF00210846FDF70DFB002108460A
:10311000FDF709FB00210846FDF705FB00210846E5
:10312000FDF701FB0121A420FDF7FDFA142001F0B9
:10313000D4FF4FF41C516020FDF7F5FA40F606016C
:103140000820FDF7F0FA40F203713020FDF7EBFAAA
:1031500001213120FDF7E7FA04213220FDF7E3FADF
:103160004FF481713320FDF7DEFA4FF440713420C3
:10317000FDF7D9FA40F203113520FDF7D4FA1F21EB
:103180003620FDF7D0FA40F203713720FDF7CBFA75
:1031900001213820FDF7C7FA04213920FDF7C3FAD1
:1031A00015219020FDF7BFFA4FF482611020FDF742
:1031B000BAFA40F247211120FDF7B5FA4FF4DE715B
:1031C0001220FDF7B0FA4FF460611320FDF7ABFA5F
:1031D000782001F082FF4FF480710120FDF7A3FAFF
:1031E0004FF400710220FDF79EFA00E050E041F23A
:1031F00030010320FDF797FA08210A20FDF793FA22
:1032000000210C20FDF78FFA20210E20FDF78BFA0C
:1032100000210F20FDF787FA00212020FDF783FA17
:1032200000212120FDF77FFA3D212A20FDF77BFABE
:10323000142001F052FF2D212920FDF774FA0021FE
:103240005020FDF770FA4DF2EF015120FDF76BFAB7
:1032500000215220FDF767FA40F23F115320FDF79D
:1032600062FA00216120FDF75EFA00216A20FDF775
:103270005AFA4FF440719220FDF755FA0521932038
:10328000FDF751FA4FF480710720FDF74CFA3CE24C
:103290000D48808848F6891188427DD1012100209F
:1032A000FDF741FA4AF6A4010320FDF73CFA00219C
:1032B0000C20FDF738FA40F60C010D20FDF733FA2B
:1032C0004FF42C510E2001E06C000020FDF72BFA8A
:1032D000B0211E20FDF727FA42F63F310120FDF70D
:1032E00022FA4FF4C0610220FDF71DFA00211020E0
:1032F000FDF719FA46F278011120FDF714FA0021C2
:103300000520FDF710FA00210620FDF70CFA4EF615
:103310001C711620FDF707FA03211720FDF703FAA9
:1033200040F233210720FDF7FEF900210B20FDF7C5
:10333000FAF900210F20FDF7F6F900214120FDF7F1
:10334000F2F900214220FDF7EEF900214820FDF7B7
:10335000EAF940F23F114920FDF7E5F900214A2042
:10336000FDF7E1F900214B20FDF7DDF94FF46F4146
:103370004420FDF7D8F900214520FDF7D4F940F2AB
:103380003F114620FDF7CFF940F207713020FDF7DD
:10339000CAF94FF4017100E040E03120FDF7C3F9B4
:1033A0004FF401713220FDF7BEF940F20251332093
:1033B000FDF7B9F940F207513420FDF7B4F94FF4A5
:1033C00001713520FDF7AFF94FF401713620FDF79B
:1033D000AAF940F202513720FDF7A5F940F2023177
:1033E0003A20FDF7A0F940F202313B20FDF79BF9AE
:1033F00000212320FDF797F900212420FDF793F900
:103400004FF400412520FDF78EF900214F20FDF7F4
:103410008AF900214E20FDF786F976E1F748808889
:1034200044F2315188427DD101210020FDF77BF922
:103430000A2001F052FE41F228611020FDF773F9D5
:103440000E211220FDF76FF940F639211320FDF708
:103450006AF90A2001F041FE40211120FDF763F9CD
:1034600050211520FDF75FF90A2001F036FE1E21DC
:103470001220FDF758F90A2001F02FFE4FF4B15148
:103480001020FDF750F942F639211320FDF74BF9D2
:103490000A2001F022FE4FF480710120FDF743F96C
:1034A0004FF440710220FDF73EF941F2380103204C
:1034B000FDF739F940F202210820FDF734F908211F
:1034C0000A20FDF730F900213020FDF72CF940F2F9
:1034D00002413120FDF727F94FF483713220FDF7C7
:1034E00022F940F203513320FDF71DF94FF48271A8
:1034F0003420FDF718F940F201313520FDF713F9BA
:1035000040F207713620FDF70EF940F20531372001
:10351000FDF709F94FF402713820FDF704F940F680
:103520000B7100E03CE03920FDF7FDF8022141205D
:10353000FDF7F9F84FF41C516020FDF7F4F8012174
:103540006120FDF7F0F84FF404719020FDF7EBF8DF
:103550004FF485719220FDF7E6F804219320FDF7E2
:10356000E2F84FF48071A020FDF7DDF8012107207B
:10357000FDF7D9F821210720FDF7D5F823210720F1
:10358000FDF7D1F833210720FDF7CDF840F23311D4
:103590000720FDF7C8F80021A020FDF7C4F8B4E02B
:1035A0009648808844F235518842F8D13021152060
:1035B000FDF7B9F810219A20FDF7B5F82021112068
:1035C000FDF7B1F843F228411020FDF7ACF80221D5
:1035D0001220FDF7A8F841F238011320FDF7A3F8F7
:1035E000282001F07AFD12210846FDF79CF82820DA
:1035F00001F073FD43F220411020FDF794F843F2EF
:1036000038011320FDF78FF8462001F066FD0021F8
:103610003020FDF788F840F202413120FDF783F8B1
:1036200040F207313220FDF77EF84FF4417133202C
:10363000FDF779F804213420FDF775F840F20141D7
:103640003520FDF770F840F207713620FDF76BF872
:1036500040F205313720FDF766F84FF4C26138209B
:10366000FDF761F84FF4C2613920FDF75CF84FF4C3
:1036700080710120FDF757F84FF440710220FDF7EB
:1036800052F841F230010320FDF74DF840F60801F1
:103690000820FDF748F808210A20FDF744F84FF408
:1036A0001C516020FDF73FF801216120FDF73BF838
:1036B0004FF49F719020FDF736F84FF480719220FF
:1036C000FDF731F84FF480719320FDF72CF84FF49B
:1036D0004051A020FDF727F81021A320FDF723F883
:1036E00001210720FDF71FF821210720FDF71BF816
:1036F00023210720FDF717F833210720FDF713F8E2
:1037000040F233110720FDF70EF80020FDF7D4FA40
:1037100001203B4908604FF6FF70FDF7FFFB1FB02B
:1037200000BD2DE9FC4F05460E4617469846DDF8CC
:103730002C90002001903148808846F60401884290
:1037400029D12E488079012825D1AB4635462B4812
:103750000088C01B401E86B2474628480088A0EB60
:103760000B00401E1FFA80F80020244988712A208F
:1037700008722B20487243463A4631462846CDF817
:103780000090FFF7CEFF01201C4988712B200872A2
:103790002A2048721CE0781B401C80B201903446FD
:1037A00014E021462846FCF7EBFFFCF7CCFF4FF076
:1037B000000A06E04846FCF7AEFF0AF101001FFAD6
:1037C00080FA01988245F5DB601C84B24445E8DD4F
:1037D000BDE8FC8F2DE9F84F07460D469046994607
:1037E000DDF828B0A8EB0700401C80B20090A9EBE0
:1037F0000500401C1FFA80FA002419E06C0000202C
:1038000080812142281981B23846FCF7B9FFFCF7C4
:103810009AFF002607E004FB0A603BF81000FE490F
:103820000880701C86B200988642F4DB601C84B26B
:103830005445E7DBBDE8F88F2DE9FF4F84B08146A2
:103840008A460020039002900698A0EB090507988D
:10385000A0EB0A06CDF80490CDF800A0002D01DD04
:10386000012705E00DB9002702E04FF0FF376D4258
:10387000002E02DD4FF0010806E016B94FF00008F7
:1038800002E04FF0FF387642B54201DD2C4600E001
:1038900034464FF0000B21E0009A91B2019A90B2A9
:1038A000FDF798F903982844039002983044029059
:1038B0000398A04205DD0398001B0390019838444B
:1038C00001900298A04205DD0298001B029000982A
:1038D000404400900BF101001FFA80FB601C8345FF
:1038E000DADD08B0BDE8F08FF0B504460D461646A7
:1038F0001F462B46324629462046FFF79DFF3B4692
:10390000224629462046FFF797FF3B463246394676
:103910002046FFF791FF3B46324629463046FFF7E7
:103920008BFFF0BD2DE9F04306460F46904600247C
:1039300045460320A0EB48093CE07A1B91B23219BE
:1039400090B2FDF747F93A1B91B2721990B2FDF7A8
:1039500041F93A1991B2721990B2FDF73BF97A190F
:1039600091B2321990B2FDF735F97A1991B2321B42
:1039700090B2FDF72FF93A1991B2721B90B2FDF790
:1039800029F97A1B91B2321B90B2FDF723F93A1B49
:1039900091B2721B90B2FDF71DF9641CB9F1000FD2
:1039A00003DAA000801D814404E0601B80000A301F
:1039B00081446D1EAC42C0DDBDE8F0832DE9F84FB7
:1039C00005460F4690461E4600979448B0F8009072
:1039D000A8F1200000F0FF080A9800284ED100242A
:1039E00049E00C2E07D108EB48008D4901EB80001F
:1039F00010F804A004E08B4800EB081010F804A0B5
:103A00004FF0000B31E00AF0800018B18348A0F8B5
:103A1000009003E0844800888049088039462846A1
:103A2000FDF7D8F84FEA4A604FEA106A781C87B26F
:103A30007E480088A84204DC7848A0F80090BDE8E1
:103A4000F88F0098381AB0420BD1009F681C85B2DD
:103A500076480088A84203DC7048A0F80090EEE7A2
:103A600006E00BF1010000F0FF0BBBF1080FCADB11
:103A700000BF601CC4B2B442B3DB44E0002440E0A9
:103A80000C2E07D108EB4800654901EB800010F8C7
:103A900004A004E0634800EB081010F804A04FF005
:103AA000000B28E00AF0800018B139462846FDF7DF
:103AB00091F84FEA4A604FEA106A781C87B25B4877
:103AC0004088A84203DC5548A0F80090B7E700986A
:103AD000381AB0420BD1009F681C85B25348008849
:103AE000A84203DC4D48A0F80090A8E706E00BF1DF
:103AF000010000F0FF0BBBF1080FD3DB00BF601C1F
:103B0000C4B2B442BCDB4548A0F8009000BF96E7C1
:103B100010B50246012000E050430B00A1F1010462
:103B2000E1B2F9D110BD2DE9FF4F81B007469146B2
:103B30001E460E9D4FF0000A002439E0301B401E47
:103B4000C1B20A20FFF7E4FFB9FBF0F00A21B0FB95
:103B5000F1F201FB1208BAF1000F16D1701EA0425B
:103B600013DDB8F1000F0ED10020AB4605EBDB7181
:103B7000491001FB0471009088B22B462022029963
:103B8000FFF71CFF12E04FF0010A0020AB4605EBE7
:103B9000DB71491001FB0471009088B208F130011B
:103BA000CAB22B460299FFF709FF00BF601CC4B2DE
:103BB000B442C3DB05B0BDE8F08F2DE9FF4F82B002
:103BC000064692461F46DDE90F4800200190002579
:103BD0005BE0781B401EC1B20A20FFF799FFBAFBD9
:103BE000F0F00A21B0FBF1F201FB12090198A8BB29
:103BF000781EA84235DDB9F1000F30D108F0800001
:103C0000E0B108F00100A34604EBDB71491001FBB1
:103C10000561009088B20BE00008006C16000020DF
:103C200056710008CA750008180000206C000020BA
:103C3000234630220399FFF7C1FE0EE008F0010091
:103C4000A34604EBDB71491001FB0561009088B2CB
:103C5000234620220399FFF7B1FE14E001E0012082
:103C6000019008F00100A34604EBDB71491001FB51
:103C70000561009088B209F13001CAB22346039968
:103C8000FFF79CFE00BF681CC5B2BD42A1DB06B0B9
:103C9000BDE8F08F2DE9F84704460D469046994659
:103CA000DDE9096704F0FF0A08EB04001FFA80F859
:103CB00009EB05001FFA80F916E0444502DB544683
:103CC000A81985B24D4500DB14E0002000903A7839
:103CD000334629462046FFF771FE304606EBD07189
:103CE00004EB61018CB27F1C38787E2802DC3878C6
:103CF0002028E2DA00BFBDE8F887000008B50121FE
:103D0000082002F071F94FF44060ADF80000102077
:103D10008DF8030003208DF802006946944801F0F5
:103D2000A7FE4FF44061924801F04FFF01209149F6
:103D300008609149C1F8AC0108BD10B58C48001D60
:103D4000006820F470408A49091D08600846006830
:103D500040F44050086001208649091D08608649EA
:103D6000C1F8A801042001F094F900208149091D3F
:103D70000860042001F08DF900207F49C1F8A801F6
:103D800010BD10B57A48001D006820F470407849D5
:103D9000091D08600846006840F440500860002093
:103DA000744908607449C1F8AC01042001F071F94C
:103DB0000120704908607049C1F8AC01042001F08D
:103DC00068F910BD10B500246948001D006820F492
:103DD00070406749091D08600846006840F40040CB
:103DE000086001206349091D086001F052F90120B3
:103DF0006149C1F8A80101F04CF907E0601CC4B2A8
:103E0000FA2C03DDFFF7BDFF012010BD59487C38B7
:103E100000680028F2D15749086000BFF5E710B5E7
:103E20000020544908605248001D006820F470408A
:103E30004F49091D08600846006840F4405008607A
:103E400000204D49C1F8AC01022001F022F9012007
:103E500048490860022001F01CF900204649C1F8D9
:103E6000A80110BD10B50020424908604048001D5F
:103E7000006820F470403E49091D0860084600684B
:103E800040F44050086001203B49C1F8AC010220D9
:103E900001F0FFF8012037490860022001F0F9F82D
:103EA00000203549C1F8A80110BD70B5044630485E
:103EB000001D006820F470402D49091D0860084667
:103EC000006840F44050086000202A49086000253E
:103ED00017E0E0092749091D08606006040E02206A
:103EE00001F0D7F801202449C1F8A801022001F00F
:103EF000D0F800201F490860022001F0CAF8681CB1
:103F0000C5B2082DE5DB70BD70B505460024184824
:103F1000001D006820F470401549091D086008461E
:103F2000006840F400400860002616E000201149B7
:103F30000860022001F0ADF801200F49C1F8A80186
:103F40006006040E0B487C38006808B1601CC4B2DF
:103F5000012001F09EF8701CC6B2082EE6DB15B9F0
:103F6000FFF780FF01E0FFF75AFF204670BD000019
:103F7000000C0140A88121420080214210B5FFF7CA
:103F8000BDFE10BD70B504460026FFF7D6FE2546DF
:103F9000E11704EB11610912A02202EB4101C8B242
:103FA000FFF783FFFFF70EFFE11704EB1161091222
:103FB000A4EB0121C8B2FFF778FFFFF703FFFFF77B
:103FC000BCFEA120FFF771FFFFF7FCFE0020FFF70A
:103FD0009BFF0646FFF7D5FE304670BD70B5044620
:103FE0000E46FFF7AAFE2546E11704EB1161091200
:103FF000A02202EB4101C8B2FFF757FFFFF7E2FE34
:10400000E11704EB11610912A4EB0121C8B2FFF71B
:104010004CFFFFF7D7FE3046FFF747FFFFF7D2FE12
:10402000FFF7AFFE0A2001F058F870BD2DE9F0410E
:1040300005460E461746002409E0E20026FA02F281
:10404000D1B22A1990B2FFF7C9FF601CC4B2BC42BA
:10405000F3DBBDE8F0812DE9F04107460C46002670
:10406000002509E036023919491B491E88B2FFF7BD
:1040700089FF0644681CC5B2A542F3DB3046BDE8A3
:10408000F08110B5FF20FFF77DFF0446552C01D1CC
:10409000002010BD5521FF20FFF7A0FFFF20FFF7F4
:1040A00071FF0446552C01D10020F2E70120F0E712
:1040B00070B506460C46154608E03046721C96B2AE
:1040C000FFF760FF04F8010B681E85B2002DF4D1E4
:1040D00070BD70B505460C46164606E021782846A8
:1040E000FFF77CFF681C85B2641C3000A6F101015B
:1040F0008EB2F3D170BD0000002100BF14E000F0CB
:1041000080021AB10122FE4B1A6002E00022FC4B31
:104110001A604206100E0022FA4B1A600122FA4B76
:10412000C3F884214A1CD1B20829E8DB704770B576
:104130000646002500240020F2490860F349C1F832
:10414000A401EF49083108603046FFF7D5FF06208B
:1041500000F09FFF0020EC49C1F88401012000F02D
:1041600098FF0120E74908600020E749C1F8840171
:1041700000BF12E04FF6FF7000EA44040020E1495E
:1041800008600120E049C1F88401DD4884380068F6
:1041900008B1601C84B2681CC5B2102DEADB241182
:1041A0000120D74908310860204670BD2DE9FE4343
:1041B00080460027002406E04046FFF7B8FF2DF8B0
:1041C0001400601C84B2052CF6DB002416E0601C91
:1041D00085B20FE03DF814003DF81510884207DD68
:1041E0003DF814603DF815002DF814002DF8156009
:1041F000681C85B2052DEDDB601C84B2042CE6DB67
:104200000027012405E03DF81400384487B2601C03
:1042100084B2042CF7DB032097FBF0F086B2304623
:10422000BDE8FE832DE9F04104460D46B84800780C
:10423000FFF7BCFF0646B7480078FFF7B7FF074611
:1042400026802F800120BDE8F0817FB504460D4611
:1042500002A903A8FFF7E6FF064616B9002004B03E
:1042600070BD694601A8FFF7DDFF06460EB90020C4
:10427000F5E7BDF80400BDF80C10884206DCBDF877
:104280000C10BDF80400323081420CDBBDF80C008C
:10429000BDF80410884236DCBDF80410BDF80C00EF
:1042A000323081422FDABDF80000BDF80810884294
:1042B00006DCBDF80810BDF80000323081420CDB8E
:1042C000BDF80800BDF8001088421CDCBDF80010E5
:1042D000BDF808003230814215DABDF80C10BDF887
:1042E0000420881800EBD071C1F34F012180BDF884
:1042F0000810BDF80020881800EBD071C1F34F0101
:1043000029800120ABE70020A9E770B504460D46DF
:1043100016468148068004F10D018AB2193988B227
:104320002B462946FFF788FA05F10D0083B21938AC
:1043300081B222462046FFF77FFA6A1C91B2621CC6
:1043400090B2FCF747FC6A1C91B2621E90B2FCF777
:1043500041FC6A1E91B2621C90B2FCF73BFC6A1EE3
:1043600091B2621E90B2FCF735FC06222946204627
:10437000FFF7D8FA70BD70B504460D46164666487C
:10438000068029462046FCF725FC611C88B2294698
:10439000FCF720FC681C81B22046FCF71BFC6A1C61
:1043A00091B2621C90B2FCF715FC70BD2DE9F04192
:1043B000044653487C380068002853D124B157493B
:1043C000881EFFF742FF3CE05449881EFFF73DFF7F
:1043D000B8B352491239B1F9200002F04FFD074637
:1043E0004E491239088A02F061FD80464B48123866
:1043F0008169404602F06EFD0646394602F0DEFB5A
:10440000054602F01BFD454912390882B1F9220028
:1044100002F034FD074641491239488A02F046FD50
:1044200080463E481238C169404602F053FD0646B8
:10443000394602F0C3FB054602F000FD3749123948
:10444000488236481238007D00F0800010BBC02042
:104450003249123908750846008A88810846408A20
:10446000C88117E02D481238007D00F0800040B16F
:104470002A481238007D20F080002849123908753A
:1044800008E00020254912398881C8814FF6FF7065
:104490000882488221481238007D00F08000BDE883
:1044A000F08170B51D49123988691D4902F012FD6D
:1044B000054602F0A7FC0446042221462820FFF707
:1044C000B5FD16491239C869154902F003FD0546C4
:1044D00002F098FC0446042221462C20FFF7A6FD9A
:1044E0000E481238B0F9201002223020FFF79EFD4E
:1044F0000A481238B0F922100222322012E00000DD
:10450000A4812342848121420080214200802342F1
:104510004400002045000020160000202E0000204E
:1045200020BCBE4CFFF782FDF74890F824103420E1
:10453000FFF754FD0A2421463520FFF74FFD70BDDB
:1045400070B53520FFF71EFD04460A2C42D1042128
:104550002820FFF780FD0446204602F08FFC054628
:10456000EA4902F08DFBE849886104212C20FFF71D
:1045700072FD0446204602F081FC0546E34902F044
:104580007FFBE149C86102213020FFF764FD00B2E2
:10459000DD49088402213220FFF75DFD00B2DA49CF
:1045A00048843420FFF7EEFCD74981F82400084600
:1045B00090F8240030B19020D5490870D020D5491A
:1045C000087005E0D020D24908709020D1490870C9
:1045D000012070BD0020FCE72DE9FC5F04460D467C
:1045E00017461E46DDE90EABDDE90C894FF4784035
:1045F000C9490880C9A01021CDE90010C8484388E6
:104600000288A0212820FFF745FBC6A01021CDE994
:104610000010C34843880288A0217820FFF73AFBA6
:10462000C1A01021CDE90010BD4843880288B42103
:104630002820FFF72FFBBDA01021CDE90010B848BE
:1046400043880288B4217820FFF724FBB8A010210A
:10465000CDE90010B24843880288C8212820FFF71E
:1046600019FBB4A01021CDE90010AD4843880288A1
:10467000C8217820FFF70EFBAFA01021CDE9001074
:10468000A74843880288DC212820FFF703FBABA062
:104690001021CDE90010A24843880288DC2178204F
:1046A000FFF7F8FAA6A01021CDE900109C48438836
:1046B0000288F0212820FFF7EDFA1020042322467B
:1046C000A02100904020FFF72EFA102004232A4654
:1046D000A02100909020FFF726FA102004233A46EC
:1046E000B42100904020FFF71EFA10200423324628
:1046F000B42100909020FFF716FA102004234246C0
:10470000C82100904020FFF70EFA102004234A46EB
:10471000C82100909020FFF706FA1020042352468B
:10472000DC2100904020FFF7FEF9102004235A46B8
:10473000DC2100909020FFF7F6F9102000907848D7
:10474000018803236020109AFFF7EDF9BDE8FC9F74
:1047500000B595B0002010900A9010901F206E496F
:1047600008804FF6FF7078490880FCF7D7FB4FF4BC
:104770007840694908804FF6FF70FCF7CFFB0020B6
:10478000654908807148006810216423A022CDE9A2
:10479000001028210846FFF77DFA4FF478421421D3
:1047A0000846FFF7B2FD0020574908758861E8E325
:1047B0005548406809900120099988475248007D72
:1047C00000F0C00040287AD100200A904E48007DB9
:1047D00020F040004C4908750846018A11AA10983B
:1047E00022F820104848418A109802EB800041804E
:1047F0001098401CC0B210901098012806D00228D2
:1048000015D0032829D0042810D141E04FF6FF72BB
:1048100014210846FFF779FD41480088143880B21A
:104820004FF4784214210990FFF76FFD99E33C485B
:104830000088143880B24FF6FF7214210990FFF7F8
:1048400064FD37484088143880B24FF478420146FE
:1048500009901420FFF759FD83E33148408814384C
:1048600080B24FF6FF72014609901420FFF74DFD0C
:104870002B484088143880B20990294800881438A1
:1048800080B24FF4784208900999FFF73EFD68E343
:10489000BDF84400BDF84810401A0990002801DB1B
:1048A000099801E0099840420D90BDF8461011A802
:1048B000C088081A0990002802DB099802E051E339
:1048C000099840420C900D9840430D900C9840433D
:1048D0000C90DDE90C100844059001F084FFCDE94F
:1048E000060101F020FFCDE9080101F04FFF80B281
:1048F0000F90BDF84C00BDF85010401A09900028E8
:1049000026DB099826E000001C00002020BCBE4CDD
:1049100044000020450000201600002078313A00B5
:104920006C00002079313A0078323A0079323A004E
:1049300078333A0079333A0078343A0079343A00DF
:104940006661632069733A00180000204800002067
:10495000099840420D9011A84189C089081A099010
:10496000002801DB099801E0099840420C900D985D
:1049700040430D900C9840430C90DDE90C10084426
:10498000059001F030FFCDE9060101F0CCFECDE944
:10499000080101F0FBFE80B20E900E9802F086FA3C
:1049A00009900F9802F082FA0890099902F068F9CC
:1049B0000B900B9802F0D6F84FF06632FE4BCDE923
:1049C000080101F023FF0DD30B9802F0CBF8FB4A4E
:1049D000FB4BCDE9080101F0A9FF03D30F9808B103
:1049E0000E98E8BB00201090F6484088143880B23A
:1049F0000990F4480088143880B24FF6FF7208908E
:104A00000999FFF782FC4FF4784214210846FFF71A
:104A10007CFCED490B9802F05DFA089002F00EFA6A
:104A200080B211A90990C989BDF8502011AB5B89EA
:104A3000CDE90132CDE90310BDF84C00009011A87A
:104A4000C0880890BDF848000790BDF84600069061
:104A5000BDF84400059006A90EC9FFF7BDFD90E220
:104A6000FFE7BDF84400BDF84C10401A099000283B
:104A700001DB099801E0099840420D90BDF846100D
:104A800011A84089081A0990002801DB099801E063
:104A9000099840420C900D9840430D900C9840436B
:104AA0000C90DDE90C100844059001F09CFECDE966
:104AB000060101F038FECDE9080101F067FE80B281
:104AC0000F90BDF84800BDF85010401A099000281A
:104AD00001DB099801E0099840420D9011A8C188B6
:104AE000C089081A0990002801DB099801E009989B
:104AF00040420C900D9840430D900C9840430C9010
:104B0000DDE90C100844059001F06DFECDE90601C9
:104B100001F009FECDE9080101F038FE80B20E90E7
:104B20000E9802F0C3F909900F9802F0BFF90890AF
:104B3000099902F0A5F80B900B9802F013F84FF0CA
:104B400066329D4BCDE9080101F060FE09D30B9858
:104B500002F008F8994A9A4BCDE9080101F0E6FE07
:104B60003DD20020109097484088143880B20990B8
:104B700094480088143880B24FF6FF720890099963
:104B8000FFF7C3FB4FF4784214210846FFF7BDFB43
:104B90008D490B9802F09EF9089002F04FF980B20F
:104BA00011A90990C989BDF8502011AB5B89CDE9E5
:104BB0000132CDE90310BDF84C00009011A8C08867
:104BC0000890BDF848000790BDF846000690BDF873
:104BD0004400059006A90EC9FFF7FEFCD1E1BDF81F
:104BE0004800BDF84C10401A0990002801DB0998D4
:104BF00001E0099840420D9011A8C1884089081A27
:104C00000990002801DB099801E0099840420C90C6
:104C10000D9840430D900C9840430C90DDE90C102A
:104C20000844059001F0DFFDCDE9060101F07BFDB0
:104C3000CDE9080101F0AAFD80B20F90BDF8440053
:104C4000BDF85010401A0990002801DB099801E0D6
:104C5000099840420D90BDF8461011A8C089081A65
:104C60000990002801DB099801E0099840420C9066
:104C70000D9840430D900C9840430C90DDE90C10CA
:104C80000844059001F0AFFDCDE9060101F04BFDB0
:104C9000CDE9080101F07AFD80B20E900E9802F085
:104CA00005F909900F9802F001F90890099901F0AF
:104CB000E7FF0B900B9801F055FF4FF066323E4B2B
:104CC000CDE9080101F0A2FD09D30B9801F04AFFDC
:104CD0003A4A3B4BCDE9080101F028FE3DD20020C5
:104CE000109038484088143880B2099035480088C0
:104CF000143880B24FF6FF7208900999FFF705FB50
:104D00004FF4784214210846FFF7FFFA2E490B981A
:104D100002F0E0F8089002F091F880B211A9099031
:104D2000C989BDF8502011AB5B89CDE90132CDE9CD
:104D30000310BDF84C00009011A8C0880890BDF881
:104D400048000790BDF846000690BDF84400059065
:104D500006A90EC9FFF740FC13E1BDF84800BDF8F5
:104D60004410401A079002F089F80990154800880D
:104D70002838079002F082F80890099901F080FF26
:104D800012498861BDF84800BDF8441008440490F9
:104D900002F074F805900D4880690146049005986A
:104DA00002F098F8079007480088059002F07EF816
:104DB000069007990CE000006666EE3FCDCCCCCCA7
:104DC000CCCCF03F6C0000200000C8421C0000204A
:104DD00002F04CF94FF08041089001F051FF09902A
:104DE00002F010F800B28C49088411A84089BDF87F
:104DF0004610401A079002F041F809908748408811
:104E00002838079002F03AF80890099901F038FF25
:104E10008149C86111A84089BDF846100844049032
:104E200002F02CF805907C48C06901460490059872
:104E300002F050F8079079484088059002F036F863
:104E40000690079902F012F94FF08041089001F0A6
:104E500017FF099001F0D6FF00B26F494884084659
:104E60008069079001F0CEFF0890002801DB0898C8
:104E700001E00898404202280DDC6748C0690790AD
:104E800001F0C0FF0990002801DB099801E00998B2
:104E90004042022842DD00201090604840881438CB
:104EA00080B209905D480088143880B24FF6FF72D6
:104EB00008900999FFF729FA4FF47842142108461F
:104EC000FFF723FA56A01021CDE90010534840887F
:104ED000099052480088089002461A212820099B10
:104EE000FEF7D8FE4C4890F8240008B9012000E0F5
:104EF0000020494981F82400084690F8240030B188
:104F000090204C490870D0204B49087005E0D02013
:104F10004849087090204849087032E01F204749EE
:104F200008804FF6FF70FBF7F9FF45A01021CDE98F
:104F300000103A4840880990384800880890024696
:104F40006E212320099BFEF7A5FE4FF47A7000F036
:104F5000C4F8FFF7A6FA4FF6FF70FBF7DFFF15B0B6
:104F600000BD00BF0A2000F0B8F80A98401C80B2CB
:104F70000A900A98B0F57A7F02DDFFF7E1FA01E0C6
:104F800000BF15E400BF00BFE9E708B50121882094
:104F900001F02AF80220ADF8000010208DF803007F
:104FA00003208DF8020069462B4800F061FD0221C4
:104FB000294800F00AFE4FF42060ADF80000694671
:104FC000264800F055FD4FF42061244800F0FDFD17
:104FD0004FF4A060ADF8000048208DF8030069464A
:104FE0001E4800F045FD0C491231881EFFF71AF9E2
:104FF000FEF7C4FFFFF7A4FA08B1002008BD4FF682
:10500000FF70FBF78BFFFFF7A3FBFFF74AFAFFF7F1
:1050100097FA0120F2E700001C0000206C0000203D
:105020005450204E65656420726561646A757374BE
:105030002100000044000020450000201600002050
:10504000546F7563682053637265656E2041646AAE
:10505000757374204F4B2100000C0140001C01406F
:1050600010B56FF0040000F07EF92E4800682E495C
:10507000B0FBF1F02D4908700846007800EB4001C4
:10508000C1EBC0104FF6FF7101EAC000284908804B
:1050900010BD0146254A12784A434FF0E0235A6179
:1050A00000229A611A46126942F001021A6100BF99
:1050B0004FF0E022106900F001021AB100F48032D2
:1050C000002AF5D04FF0E022126922F001024FF0E1
:1050D000E0231A6100229A6170470146144A12883F
:1050E0004A434FF0E0235A6100229A611A4612693E
:1050F00042F001021A6100BF4FF0E022106900F097
:1051000001021AB100F48032002AF5D04FF0E022FB
:10511000126922F001024FF0E0231A6100229A6125
:10512000704700000000002000127A004C000020B0
:105130004E00002010B54FF4A06000F0C5F810BD7F
:10514000014600BF704700BF4B4A128802F0400280
:10515000002AF9D0C2B2484B1B1D1A80704710B507
:1051600086B00446012144F2040000F03DFF4248AD
:1051700000F09EFF4FF40070ADF8140003208DF88E
:10518000160018208DF8170005A93C4800F070FCA7
:105190004FF48060ADF8140004208DF8170005A9C5
:1051A000364800F065FC25208DF8000003208DF8BE
:1051B00001008DF8020001208DF80300684600F020
:1051C00088F801940020ADF80800ADF80A00ADF8A9
:1051D0000C00ADF810000C20ADF80E0001A9264817
:1051E00000F0A9FF012240F22551234801F03BF8CD
:1051F0000121214801F02BF806B010BD10B540F296
:1052000025511D4801F014F910B31B4801F090F826
:10521000C4B21B48008800F40040C8B91848008890
:1052200000F4804060B10A2C03D0002014490880AB
:1052300020E01348008840F400401149088019E03C
:105240000D2C06D10E48008840F480400C4908809F
:1052500010E00B480088C0F30D000A490C540848C0
:105260000088401C0649088008460088C72801DDE0
:105270000020088010BD00000038014000080140F7
:105280005400002076000020094880470948004764
:10529000FEE7FEE7FEE7FEE7FEE7FEE7FEE7FEE7E6
:1052A000FEE7FEE704480549054A064B7047000043
:1052B000C704000831010008A0010020A007002059
:1052C000A0030020A003002031490143314A1160AE
:1052D000704770B5002100230F22C47804B32D4C11
:1052E000246804F4E064C4F5E064210AC1F1040315
:1052F000CA40447804FA03F1847814402143090138
:10530000254C0678A155047804F01F050124AC4013
:1053100005786D11AD0005F1E025C5F8004109E003
:10532000047804F01F050124AC401C4D067876116A
:1053300045F8264070BD1A4A0A400243154B1B1F10
:105340001A60704739B1134A121D12680243114B9B
:105350001B1D1A6006E00F4A121D126882430D4B96
:105360001B1D1A607047042808D14FF0E02109691D
:1053700041F004014FF0E022116107E04FF0E0211D
:10538000096921F004014FF0E0221161704700002B
:105390000000FA050CED00E000E400E080E100E030
:1053A00080FFFF1F30B943F2DB028100A1F1C04151
:1053B0000A6005E043F2D2028100A1F1C0410A6017
:1053C0006FF07042411C8900A1F1C0410A60810068
:1053D000A1F1C041C1F80421704710280AD1182159
:1053E0004FF020421166402151664FF0FC3191662A
:1053F000D16610E01821F74A116040214FF0204299
:10540000C2F884104FF0FC31F24A083211604FF0BC
:105410002042C2F88C1070471820EE4920310860F5
:1054200000200906C1F8A4004FF0FC30E9492831FA
:105430000860091D0860091D08607047D0E9011265
:105440001143C268114302691143426911438269E1
:105450001143C2691143026A1143426A1143826ACD
:105460001143C26A1143026B114302689200A2F118
:10547000C0421160816808290BD101688900A1F13F
:10548000C041096841F0400201688900A1F1C041B2
:105490000A60416B0968426B526841EA0211426B33
:1054A000926841EA0221426B928941EA0241426BD1
:1054B000128A41EA0251426B127D41EA0261426B5B
:1054C000926911430268521C9200A2F1C04211601D
:1054D000C16AB1F5804F1BD1816B0968826B52683C
:1054E00041EA0211826B926841EA0221826B128AC0
:1054F00041EA0251826B127D41EA0261826B92693C
:10550000114302689200A2F1C042C2F8041107E000
:105510006FF0704201688900A1F1C041C1F8042117
:10552000704730B5002100220023446844F008048D
:1055300085682C43C5682C4305692C43456944EABA
:105540004524856944EA4531C4692468C5696D68A4
:1055500044EA0524C5692D8944EA0544C5692D7BC3
:1055600044EA0562046A2468056A6D6844EA052411
:10557000056A2D8944EA0544056A2D7B44EA0563E2
:105580000468102C05D14FF020442166A266E36622
:1055900008E0904C21604FF02044C4F888208D4CE6
:1055A0000C34236030BD016841F01001426841EACB
:1055B0004221826841EA4231864A20321160C16844
:1055C0000968C268526841EA0221C268128941EA48
:1055D0000241C268127B41EA02617E4A28321160B0
:1055E000016909680269526841EA02210269128967
:1055F00041EA02410269127B41EA0261754A2C329A
:105600001160416909684269526841EA02214269B0
:10561000128941EA02414269127B41EA02614FF07C
:105620002042C2F8B01070470021016002214160A1
:1056300000218160C160016141618161C1610162DC
:105640004FF480514162490081620021C1620163CF
:105650000F21426B1160426B5160FF21426B9160E0
:105660000F21426BD160426B1161426B516100218D
:10567000426B91610F21826B1160826B5160FF213F
:10568000826B91600F21826BD160826B1161826BA2
:1056900051610021826B91617047102101600021EE
:1056A00041608160C160016141618161FC21C26929
:1056B0001160C2695160C2699160C269D160026AB9
:1056C0001160026A5160026A9160026AD16070479B
:1056D0000021016041608160FC21C2681160C268E4
:1056E0005160C2689160C268D1600269116002694C
:1056F0005160026991600269D1604269116042693A
:105700005160426991604269D160704751B1820035
:10571000A2F1C042126842F001038200A2F1C0422D
:10572000136009E08200A2F1C04212682A4B1A40BD
:105730008300A3F1C0431A60704799B1102808D1C3
:105740004FF02042126E42F004024FF020431A66DE
:105750001DE0204A126842F004024FF02043C3F8D3
:10576000802014E0102809D14FF02042126E1A4B0D
:10577000DB1E1A404FF020431A6608E0154A1268F3
:10578000154BDB1E1A404FF02043C3F880207047B2
:1057900048B110492031096841F004014FF020421E
:1057A000C2F8A01009E00B49203109680A4AD21E4C
:1057B00011404FF02042C2F8A0107047B9B1102834
:1057C0000CD14FF02042126E42F040024FF02043C5
:1057D0001A661FE0800000A0FEFF0F00724A1268E8
:1057E00042F040024FF02043C3F8802012E010281E
:1057F00008D14FF02042126E6C4B1A404FF02043FC
:105800001A6607E0684A1268684B1A404FF0204356
:10581000C3F88020704701460020102903D14FF0C3
:105820002042506F02E0604A14321068704710B591
:10583000F2B1102807D14FF020435B6E0B434FF0BD
:105840002044636632E0B0F5807F08D1564B1B1DC3
:105850001B680B434FF02044C4F8843026E0524BC1
:1058600024331B680B434FF02044C4F8A4301DE0E0
:10587000102807D14FF020435B6E8B434FF020443C
:10588000636613E0B0F5807F08D1474B1B1D1B6892
:105890008B434FF02044C4F8843007E0424B24335C
:1058A0001B688B434FF02044C4F8A43010BD10B5E2
:1058B000024600200023102A03D14FF02044636EDB
:1058C00009E0B2F5807F03D1374C241D236802E044
:1058D000354C2434236803EA01040CB1012000E0B4
:1058E000002010BD102807D14FF02042526E8A438D
:1058F0004FF020435A6613E0B0F5807F08D12A4A62
:10590000121D12688A434FF02043C3F8842007E039
:10591000254A243212688A434FF02043C3F8A4205A
:10592000704770B502460020002300240025102A8D
:1059300003D14FF02046736E09E0B2F5807F03D1AA
:10594000194E361D336802E0174E2436336803EAD9
:10595000010403EAD10514B10DB1012000E00020DB
:1059600070BD102808D14FF02042526E22EAD102B9
:105970004FF020435A6615E0B0F5807F09D10A4AFE
:10598000121D126822EAD1024FF02043C3F884208E
:1059900008E0054A2432126822EAD1024FF020437F
:1059A000C3F8A42070470000800000A0BFFF0F00D4
:1059B00010B50446CC48844208D10121042000F0EF
:1059C0002DFB0021042000F029FB46E0C74884425B
:1059D00008D10121082000F021FB0021082000F05F
:1059E0001DFB3AE0C248844208D10121102000F09A
:1059F00015FB0021102000F011FB2EE0BD48844271
:105A000008D10121202000F009FB0021202000F016
:105A100005FB22E0B848844208D10121402000F073
:105A2000FDFA0021402000F0F9FA16E0B348844264
:105A300008D10121802000F0F1FA0021802000F03F
:105A4000EDFA0AE0AE48844207D10121801500F04A
:105A5000E5FA0021A01500F0E1FA10BD10B5012112
:105A6000084600F0DBFA0021012000F0D7FA10BD53
:105A70002DE9F041024600250026002000230024E5
:105A8000002791F803C00CF00F0591F803C00CF04B
:105A9000100CBCF1000F03D091F802C04CEA0505D0
:105AA00091F800C0BCF1000F31D0146800202BE049
:105AB0004FF0010C0CFA00F3B1F800C00CEA030639
:105AC0009E4220D183004FF00F0C0CFA03F7BC4329
:105AD00005FA03FC4CEA040491F803C0BCF1280F5A
