:020000040800F2
:10000000B0060020CD010008D90F00087D070008C8
:10001000D50F0008F503000887170008000000004E
:10002000000000000000000000000000791100083E
:10003000F903000800000000611000081714000810
:10004000E7010008E7010008E7010008E7010008F0
:10005000E7010008E7010008E7010008E7010008E0
:10006000E7010008E7010008E7010008E7010008D0
:10007000E7010008E7010008E7010008E7010008C0
:10008000E7010008E7010008E7010008E7010008B0
:10009000E7010008E7010008E7010008E7010008A0
:1000A000E7010008E7010008E7010008E701000890
:1000B000E7010008E7010008E7010008E701000880
:1000C000E7010008E7010008E7010008E701000870
:1000D000E7010008C11400088D150008B1150008DB
:1000E000E7010008E7010008E7010008E701000850
:1000F000E7010008E7010008E7010008E701000840
:10010000E7010008E7010008E7010008E70100082F
:10011000791400089D140008E7010008E7010008B1
:10012000E7010008E7010008E7010008E70100080F
:1001300000F002F800F03AF80AA090E8000C8244BF
:100140008344AAF10107DA4501D100F02FF8AFF29C
:10015000090EBAE80F0013F0010F18BFFB1A43F0A5
:1001600001031847D83C0700F83C0700103A24BFA9
:1001700078C878C1FAD8520724BF30C830C144BF0C
:1001800004680C607047000000230024002500264E
:10019000103A28BF78C1FBD8520728BF30C148BFEA
:1001A0000B6070471FB51FBD10B510BD00F0F3F810
:1001B0001146FFF7F7FF01F059FB00F011F903B406
:1001C000FFF7F2FF03BC01F0E0FA000009488047A6
:1001D00009480047FEE7FEE7FEE7FEE7FEE7FEE729
:1001E000FEE7FEE7FEE7FEE704480549054A064B41
:1001F000704700001914000831010008B000002009
:10020000B0060020B0020020B00200207047032A90
:1002100040F2308010F0030C00F0158011F8013B23
:10022000BCF1020F624498BF11F801CB00F8013B0A
:1002300038BF11F8013BA2F1040298BF00F801CBCE
:1002400038BF00F8013B11F0030300F04B80083A7F
:10025000C0F0088051F8043B083A51F804CBA0E8FC
:100260000810F5E7121D5CBF51F8043B40F8043B51
:10027000AFF30080D20724BF11F8013B11F801CB86
:1002800048BF11F8012B24BF00F8013B00F801CB57
:1002900048BF00F8012B70474FF000020429C0F05E
:1002A000128010F0030C00F05180CCF1040CBCF172
:1002B000020F18BF00F8012BA8BF20F8022BA1EBFA
:1002C0000C0100F043B85FEAC17C24BF00F8012BA9
:1002D00000F8012B48BF00F8012B704770477047AA
:1002E0007047704710B5203AC0F00B80B1E8185045
:1002F000203AA0E81850B1E81850A0E81850BFF410
:10030000F5AF5FEA027C24BFB1E81850A0E81850AE
:1003100044BF18C918C0BDE810405FEA827C24BF02
:1003200051F8043B40F8043B08BF7047D20728BF90
:1003300031F8023B48BF11F8012B28BF20F8023BDF
:1003400048BF00F8012B70474FF0000200B513467C
:1003500094469646203922BFA0E80C50A0E80C50E5
:10036000B1F12001BFF4F7AF090728BFA0E80C5096
:1003700048BF0CC05DF804EB890028BF40F8042B8F
:1003800008BF704748BF20F8022B11F0804F18BFFC
:1003900000F8012B7047754600F028F8AE460500BE
:1003A0006946534620F00700854618B020B5FFF790
:1003B0001BFFBDE820404FF000064FF000074FF054
:1003C00000084FF0000B21F00701AC46ACE8C00973
:1003D000ACE8C009ACE8C009ACE8C0098D4670477C
:1003E0000446AFF300802046FFF7E9FE004870475F
:1003F0005000002000BFFEE77047000051B18200AE
:10040000A2F1C042126842F001038200A2F1C04290
:10041000136009E08200A2F1C0421268034B1A4047
:100420008300A3F1C0431A6070470000FEFF0F0075
:10043000D0E901121143C2681143026911434269B4
:10044000114382691143C2691143026A1143426A2E
:100450001143826A1143C26A1143026B114302685D
:100460009200A2F1C0421160816808290BD1016895
:100470008900A1F1C041096841F04002016889008A
:10048000A1F1C0410A60416B0968426B526841EAC0
:100490000211426B926841EA0221426B928941EA61
:1004A0000241426B128A41EA0251426B127D41EADB
:1004B0000261426B926911430268521C9200A2F1E0
:1004C000C0421160C16AB1F5804F1BD1816B0968D0
:1004D000826B526841EA0211826B926841EA022102
:1004E000826B128A41EA0251826B127D41EA0261FB
:1004F000826B9269114302689200A2F1C042C2F875
:10050000041107E06FF0704201688900A1F1C04159
:10051000C1F8042170472DE9F0410246002500266C
:10052000002000230024002791F803C00CF00F05E1
:1005300091F803C00CF0100CBCF1000F03D091F83F
:1005400002C04CEA050591F800C0BCF1000F31D0A3
:10055000146800202BE04FF0010C0CFA00F3B1F806
:1005600000C00CEA03069E4220D183004FF00F0C1E
:100570000CFA03F7BC4305FA03FC4CEA040491F8B7
:1005800003C0BCF1280F06D14FF0010C0CFA00FC9F
:10059000C2F814C00AE091F803C0BCF1480F05D1BD
:1005A0004FF0010C0CFA00FCC2F810C0401C0828E7
:1005B000D1D31460B1F800C0BCF1FF0F34DD546832
:1005C00000202EE000F1080C4FF0010808FA0CF3AF
:1005D000B1F800C00CEA03069E4221D183004FF01F
:1005E0000F0C0CFA03F7BC4305FA03FC4CEA0404B5
:1005F00091F803C0BCF1280F05D100F1080C08FAEE
:100600000CF8C2F8148091F803C0BCF1480F07D170
:1006100000F1080C4FF0010808FA0CF8C2F810803D
:10062000401C0828CED35460BDE8F08101617047BA
:100630002DE9F04106468846154600242846EA176B
:1006400005EB5272D2102946EB1705EB5373DB1002
:10065000A5EBC3030BB1012300E000231A446A4356
:10066000D7B20C2D04D0102D2CD0182D7CD152E0F7
:10067000002420E004EBC40000EB40003C49085C8F
:100680003178884216D104EBC40000EB40003849B1
:1006900008444078717888420CD104EBC40000EB28
:1006A0004000334A1044C11C3A464046FFF7AFFDB4
:1006B000BDE8F081641C092CDCD339464046FFF7C5
:1006C000EBFD51E000241FE0C4EBC40000EB800010
:1006D0002849085C3178884215D1C4EBC40000EB8E
:1006E0008000244908444078717888420BD1C4EBDB
:1006F000C40000EB80001F4A1044C11C3A4640462B
:10070000FFF785FDD4E7641C092CDDD3394640464C
:10071000FFF7C2FD28E000241FE0C4EB041000EB4B
:1007200080001549085C3178884215D1C4EB04106B
:1007300000EB8000104908444078717888420BD162
:10074000C4EB041000EB80000B4A1044C11C3A4675
:100750004046FFF75CFDABE7641C092CDDD339464E
:100760004046FFF799FD00BF00BF00BFA0E70000B3
:10077000463D07080B3C07086839070800BFFEE73D
:1007800070B5044600260948058840884543002185
:10079000084600F0FDFA00F0E5FB00BF02E0044867
:1007A0000480761CAE42FAD370BD000040000020E9
:1007B0000008006C2DE9F84F07460D469046994613
:1007C000DDF828B0A8EB0700401C1FFA80FAA9EB5F
:1007D0000500401C80B20090002414E0281981B26A
:1007E000384600F0D5FA00F0BDFB002607E004FB18
:1007F0000A603BF8100006490880701C86B2564516
:10080000F5DB601C84B200988442E7DBBDE8F88F1A
:100810000008006C10B504468CB90020114988719D
:10082000F02008804FF4A07048802C2008812A20F6
:1008300048812B208881002000F030FA10E0012050
:10084000084988714FF4A0700880F02048802C205F
:1008500008812A2048812B208881052000F01EFA7B
:1008600010BD00004000002010B503460C460D49A5
:10087000488900F071FB181200F068FBD8B200F054
:1008800065FB0849888900F067FB201200F05EFBD9
:10089000E0B200F05BFB0348008903490880881C34
:1008A000028010BD40000020FE07006C00B59FB024
:1008B0000121080200F0D6FB01214FF4B47000F0D2
:1008C000E1FB0120ADF8780010208DF87B000320BB
:1008D0008DF87A001EA9E048FFF71DFE4CF2337038
:1008E000ADF8780018208DF87B0003208DF87A0091
:1008F0001EA9DA48FFF70FFE4FF68070ADF87800BA
:1009000018208DF87B0003208DF87A001EA9D448AA
:10091000FFF701FE41F20100ADF8780018208DF8D4
:100920007B0003208DF87A001EA9CE48FFF7F3FD67
:1009300001200890002009900F200A9000200B90C1
:100940000C900D900E9001900290032003900020D7
:10095000049005900690079006200F9000201090BC
:100960001190102012900020139015901490169062
:1009700017904FF480501890002019904FF4804049
:100980001A9000201B9008A81C9001A81D900FA889
:10099000FFF74EFD01210620FFF730FD322000F069
:1009A00019FF002000F06EF9AF4988800846808862
:1009B000FF280ADB084680884FF6FF71884204D082
:1009C000A9488088B0F5134F1DD1D32000F0C4FA98
:1009D00000F04EF9A449888000F04AF9A2498880C5
:1009E00000F046F9A0498880084680884FF6FF71DC
:1009F00001EA00209C49888000F03AF99A498988E8
:100A00000843994988809848808849F24131884252
:100A10007ED1CF2000F0A0FA002000F097FAC1208C
:100A200000F094FA302000F091FAED2000F094FAF2
:100A3000642000F08BFA032000F088FA122000F006
:100A400085FA812000F082FAE82000F085FA8520FE
:100A500000F07CFA102000F079FA7A2000F076FAA3
:100A6000CB2000F079FA392000F070FA2C2000F049
:100A70006DFA002000F06AFA342000F067FA0220D4
:100A800000F064FAF72000F067FA202000F05EFA28
:100A9000EA2000F061FA002000F058FA002000F08F
:100AA00055FAC02000F058FA1B2000F04FFAC12080
:100AB00000F052FA012000F049FAC52000F04CFA8B
:100AC000302000F043FA302000F040FAC72000F058
:100AD00043FAB72000F03AFA362000F03DFA4820F9
:100AE00000F034FA3A2000F037FA552000F02EFAE0
:100AF000B12000F031FA002000F028FA1A2000F0AE
:100B000025FAB62000F028FA0A2000F01FFA00E0CB
:100B100095E0A22000F01AFAF22000F01DFA002061
:100B200000F014FA262000F017FA012000F00EFA67
:100B3000E02000F011FA0F2000F008FA2A2000F05F
:100B400005FA282000F002FA082000F0FFF90E2034
:100B500000F0FCF9082000F0F9F9542000F0F6F953
:100B6000A92000F0F3F9432000F0F0F90A2000F08A
:100B7000EDF90F2000F0EAF9002000F0E7F900207D
:100B800000F0E4F9002000F0E1F9002000F0DEF9C7
:100B9000E12000F0E1F9002000F0D8F9152000F084
:100BA000D5F9172000F0D2F9072000F0CFF9112075
:100BB00000F0CCF9062000F0C9F92B2000F0C6F9AE
:100BC000562000F0C3F93C2000F0C0F9052000F0E9
:100BD000BDF9102000F0BAF90F2000F0B7F93F205E
:100BE00000F0B4F93F2000F0B1F90F2000F0AEF9A9
:100BF0002B2000F0B1F9002000F0A8F9002000F04F
:100C0000A5F9012000F0A2F93F2000F09FF92A2069
:100C100000F0A2F9002000F099F9002000F096F908
:100C2000002000F093F9EF2000F090F9112000F07F
:100C300093F9782000F0CEFD292000F08DF90020F6
:100C4000FFF7E8FD0120094908604FF6FF70FFF744
:100C500097FD1FB000BD0000000C014000140140D2
:100C60000018014000200140400000208081214206
:100C700008B5034800880090BDF8000008BD0000DA
:100C80000008006C10B50446204600F065F9052008
:100C900000F0C6FDFFF7ECFF10BD000070B5054683
:100CA00000230026082D1CD2DFE805F00406090CFD
:100CB0000F12151800BF14E043F0800311E043F059
:100CC00040030EE043F0C0030BE043F0200308E0D4
:100CD00043F0600305E043F0A00302E043F0E003CB
:100CE00000BF00BF362643F008031946304600F027
:100CF00043F903F0200068B124480088234949885B
:100D0000884214DA2148048840882049088008462F
:100D100044800CE01D4800881C494988884206DD53
:100D20001A480488408819490880084644801749B1
:100D3000488900F011F9002000F008F9002000F0C7
:100D400005F912490988491EC1F30F2000F0FEF889
:100D50000E490978491EC8B200F0F8F80B49888995
:100D600000F0FAF8002000F0F1F8002000F0EEF8B2
:100D700006494988491EC1F30F2000F0E7F80349EE
:100D80008978491EC8B200F0E1F870BD400000202B
:100D900000B502460B460A49488900F0DDF81012FA
:100DA00000F0D4F8D0B200F0D1F80549888900F0FD
:100DB000D3F8181200F0CAF8D8B200F0C7F800BD96
:100DC000400000202DE9FC4F81460D4616461C468A
:100DD00001952046E31704EB5373DB1021464FEADD
:100DE000E47C04EB5C7C4FEAEC0CA4EBCC0CBCF197
:100DF000000F02D04FF0010C01E04FF0000C6344F3
:100E0000224604EBD27C4FEA6C0C03FB0CF3DBB202
:100E10000093A6F12000C6B20C2C05D106EB4600CB
:100E20002A4901EB80080FE0102C03D1284800EB81
:100E3000061809E0182C05D106EBC600254901EB80
:100E4000800801E0BDE8FC8F00273AE018F807A011
:100E50004FF0000B2FE00AF0800030B11E480288EE
:100E600029464846FFF700FD07E00B9828B91B48C4
:100E7000028829464846FFF7F7FC4FEA4A604FEAE6
:100E8000106A681C85B216484088A84200DCD9E781
:100E90000198281AA0420AD1019D09F101001FFA08
:100EA00080F90F480088484500DCCBE706E00BF1ED
:100EB000010000F0FF0BBBF1080FCCDB00BF781C7A
:100EC000C7B200988742C1DB00BFBBE7A821070873
:100ED0001C2607080C2C0708180000201A00002008
:100EE000400000202DE9F84704460D4690469946FB
:100EF000DDE9096704F0FF0A08EB04001FFA80F837
:100F000009EB05001FFA80F916E0444502DB544660
:100F1000A81985B24D4500DB14E0002000903A7816
:100F2000334629462046FFF74DFF304606EBD07189
:100F300004EB61018CB27F1C38787E2802DC3878A3
:100F40002028E2DA00BFBDE8F887000001490880E8
:100F5000704700000008006C0149088070470000DD
:100F6000FE07006C024800890249088070470000B3
:100F700040000020FE07006C024A1080921C118085
:100F800070470000FE07006C08B50121482000F002
:100F900079F82020ADF8000010208DF80300032020
:100FA0008DF8020069460948FFF7B5FA2021074885
:100FB000FFF73CFB2020ADF8000069460448FFF72E
:100FC000AAFA20210248FFF731FB08BD000C0140BE
:100FD0000018014000BFFEE77047000070B5002117
:100FE00000230F22C47804B3154C246804F4E06491
:100FF000C4F5E064210AC1F10403CA40447804FA4C
:1010000003F184781440214309010E4C0678A15560
:10101000047804F01F050124AC4005786D11AD0083
:1010200005F1E025C5F8004109E0047804F01F054A
:101030000124AC40044D0678761145F8264070BD79
:101040000CED00E000E400E080E100E00249014333
:10105000024A1160704700000000FA050CED00E044
:101060007047000029B1064A52690243044B5A6195
:1010700004E0034A52698243014B5A617047000001
:101080000010024029B1064A92690243044B9A615A
:1010900004E0034A92698243014B9A617047000061
:1010A0000010024030B500210022002400232D4D05
:1010B0006D6805F00C0121B1042905D0082923D160
:1010C00005E0294D056022E0274D05601FE0254D14
:1010D0006D6805F47012234D6D6805F480340225A7
:1010E00005EB92421CB9214D554305600BE01D4DA7
:1010F0006D6805F400351DB11C4D5543056002E0D7
:10110000194D5543056002E0174D056000BF00BF53
:10111000144D6D6805F0F0010909154D6B5C05680B
:10112000DD4045600F4D6D6805F4E061090A104D22
:101130006B5C4568DD4085600A4D6D6805F4605163
:10114000C90A0B4D6B5C4568DD40C560054D6D6897
:1011500005F44041890B074D6B5CC568B5FBF3F5A1
:10116000056130BD0010024000127A0000093D0008
:101170002000002030000020704710B500F002F879
:1011800010BD00000CB500200190009033480068AD
:1011900040F480303149086000BF3048006800F4F6
:1011A000003000900198401C0190009818B90198F7
:1011B000B0F5A06FF1D12948006800F4003010B1FB
:1011C0000120009001E0002000900098012843D108
:1011D0002348006840F01000214908600846006874
:1011E00020F0030008600846006840F00200086034
:1011F0001A484068194948600846406848600846EF
:10120000406840F4806048600846406820F47C10E4
:1012100048600846406840F4E810486008460068A6
:1012200040F08070086000BF0C48006800F000705B
:101230000028F9D00948406820F0030007494860B9
:101240000846406840F00200486000BF034840681C
:1012500000F00C000828F9D10CBD0000001002407D
:10126000002002402DE9FF4F93B007460D461C4673
:10127000AA462046E21704EB5272D2102146E31729
:1012800004EB5373DB10A4EBC3030BB1012300E0A9
:1012900000231A44624302F0FF0B0C2C06D0102CE2
:1012A00004D0182C02D017B0BDE8F08F224601A957
:1012B0001598FFF7BDF900262FE001A810F8068069
:1012C0004FF0000923E008F0800030B11548028893
:1012D00029463846FFF7C8FA07E0209828B912488F
:1012E000028829463846FFF7BFFA4FEA48604FEABE
:1012F0001068681C85B2A5EB0A00A04203D15546D0
:10130000781C87B206E009F1010000F0FF09B9F18D
:10131000080FD8DB00BF701CC6B25E45CDDB00BF36
:10132000C1E70000180000201A0000202DE9FE4F40
:1013300007460E4691469A46DDE90D4B0C9DB84690
:101340000296002001904CE0019870BB287880281C
:1013500002DD0120019044E004EBD47108EB0902A6
:10136000A2EB6101B94202DA301986B2474602980F
:101370005044001BB04200DA36E028780D2804D132
:10138000301986B247466D1C07E0CDF800B02A78C8
:10139000234631463846FFF715FD6D1C204604EB09
:1013A000D07107EB61018FB21BE0FFE700200190D5
:1013B00008EB0900001BB84202DA301986B2474632
:1013C00002985044001BB04200DA0DE023462A4642
:1013D00031463846CDF800B0FFF744FFAD1C381950
:1013E00087B228780028AFD100BFBDE8FE8F04285F
:1013F00008D14FF0E021096941F004014FF0E022EB
:10140000116107E04FF0E021096921F004014FF07C
:10141000E02211617047704710B51348006840F032
:1014200001001149086008464068104908400E490B
:101430004860084600680E4908400B4908600846A5
:10144000006820F4802008600846406820F4FE0010
:1014500048604FF41F008860FFF78FFE4FF0006078
:101460000449086010BD0000001002400000FFF8B1
:10147000FFFFF6FE08ED00E010B540F225510648EA
:1014800000F0BDF838B1044800F074F9C4B2214648
:10149000014800F074F910BD004C004010B540F256
:1014A0002551064800F0ABF838B1044800F062F965
:1014B000C4B22146014800F062F910BD005000405E
:1014C00010B540F22551064800F099F838B10448AB
:1014D00000F050F9C4B22146014800F050F910BDA7
:1014E0000038014010B586B00446012144F20400E2
:1014F000FFF7C8FD4FF40070ADF8140003208DF81D
:10150000160018208DF8170005A91E48FFF703F8EC
:101510004FF48060ADF8140004208DF8170005A981
:101520001848FEF7F8FF01940020ADF80800ADF868
:101530000A00ADF80C00ADF810000C20ADF80E005C
:1015400001A9114800F0AAF825208DF80000032019
:101550008DF801008DF8020001208DF80300684627
:10156000FFF73CFD4021084800F034F8012240F22A
:101570002551054800F06DF80121034800F033F8CB
:1015800006B010BD000801400038014010B540F21F
:101590002551064800F033F838B1044800F0EAF865
:1015A000C4B22146014800F0EAF810BD00440040F2
:1015B00010B540F22551064800F021F838B1044832
:1015C00000F0D8F8C4B22146014800F0D8F810BDA8
:1015D0000048004001F40072B2F5007F00D100BF66
:1015E000CA430280704721B1828942F4005282814D
:1015F00004E082894DF6FF731A408281704770B50E
:101600000246002400230025002040F66A16B1425D
:1016100000D100BFC1F3421501F01F03012606FAF5
:1016200003F3012D02D19689334006E0022D02D149
:10163000168A334001E0968A33400C12012606FADE
:1016400004F41688344013B10CB1012000E00020EE
:1016500070BDF0B50346002400260025002040F6AA
:101660006A17B94200D100BF1846C1F3421401F015
:101670001F06012707FA06F5012C01D10C3004E002
:10168000022C01D1103000E014301AB107682F434A
:10169000076002E00768AF430760F0BD2DE9F0473F
:1016A00086B005460E460024A24600BFA14600278C
:1016B000B08900B100BF2F462C8A4CF6FF70044061
:1016C000F08804432C82AC894EF6F3100440B088B5
:1016D00031890843718908430443AC81AC8A4FF6D1
:1016E000FF400440B0890443AC8201A8FFF7DAFC54
:1016F0001F48874202D1DDF810A001E0DDF80CA000
:10170000A88900F4004040B10AEBCA0000EB0A10BF
:1017100031684900B0FBF1F807E00AEBCA0000EBC2
:101720000A1031688900B0FBF1F86420B8FBF0F0D2
:1017300004012009642101FB1089A88900F40040FC
:1017400040B1322000EBC900B0FBF1F000F007001F
:10175000044308E0322000EB09106421B0FBF1F0F3
:1017600000F00F0004432C8106B0BDE8F0870000B4
:101770000038014001468888C0F308007047C1F373
:1017800008028280704700BFFEE700BF704700007C
:1017900010B56FF00400FFF72AFE0A4800680A49F6
:1017A000B0FBF1F0094908700846007800EB4001F1
:1017B000C1EBC0104FF6FF7101EAC0000449088078
:1017C00010BD00000400002000127A001C00002060
:1017D0001E0000200146114A12884A434FF0E023C0
:1017E0005A6100229A611A46126942F001021A6196
:1017F00000BF4FF0E022106900F001021AB100F4BE
:101800008032002AF5D04FF0E022126922F0010266
:101810004FF0E0231A6100229A6170471E000020F9
:101820000146114A12784A434FF0E0235A610022E0
:101830009A611A46126942F001021A6100BF4FF024
:10184000E022106900F001021AB100F48032002A8F
:10185000F5D04FF0E022126922F001024FF0E023B0
:101860001A6100229A6170471C0000200EB5FFF734
:101870008FFF4FF4A060FFF7E9FBFFF785FB4FF404
:10188000E130FFF72FFEFFF711F84FF478403349AE
:10189000088033A018210B46DC22CDE900109621E8
:1018A0001420FFF71FFB00200C2132A20B46CDE9CC
:1018B00000210290DC2214210846FFF737FD0020AA
:1018C00010212CA20B46CDE900210290DC22282118
:1018D0001420FFF72BFD0020182126A20B46CDE98E
:1018E00000210290DC2241211420FFF71FFD4FF45C
:1018F0007A70FFF76FFF4FF47A70FFF76BFF2348A2
:1019000023490860234848602348886024E023482E
:10191000006880F001002249C1F8940100202149AB
:10192000086015E01A481F49096850F8210040F284
:101930003F13EF22002100900846FEF73BFF4FF4D3
:10194000FA70FFF747FF17480068401C1549086008
:10195000144800680328E5DBD9E7000018000020E0
:1019600053544D3332204C4344205465737420212A
:1019700000000000C6DFB2CAB9E2D7D320CCABBCAE
:10198000AB4D33BFAAB7A2B0E5000000A8710208B2
:1019900034000020A8190008A8C904089481214235
:1019A0000080214200000020FF4FFF4FFF4FFF4FFC
:1019B000FF4FFF4FFF4FFF4FFF4FFF4FFF4FFF4FB7
:1019C000FF4FFF4FFF4FFF4FFF4FFF4FFF4FFF4FA7
:1019D000FF4FFF4FFF4FFF4FFF4FFF4FFF4FFF4F97
:1019E000FF4FFF4FFF4FFF4FFF4FFF4FFF4FFF4F87
:1019F000FF4FFF4FFF4FFF4FFF4FFF4FFF4FFF4F77
:101A0000FF4FFF4FFF4FFF4FFF4FFF4FFF4FFF4F66
:101A1000FF4FFF4FFF4FFF4FFF4FFF4FFF4FFF4F56
:101A2000FF4FFF4FFF4FFF4FFF4FFF4FFF4FFF4F46
:101A3000FF4FFF4FFF4FFF4FFF4FFF4FFF4FFF4F36
:101A4000FF4FFF4FFF4FFF4FFF4FFF4FFF4FFF4F26
:101A5000FF4FFF4FFF4FFF4FFF4FFF4FFF4FFF4F16
:101A6000FF4FFF4FFF4FFF4FFF4FFF4FFF4FFF4F06
:101A7000FF4FFF4FFF4FFF4FFF4FFF4FFF4FFF4FF6
:101A8000FF4FFF4FFF4FFF4FFF4FFF4FFF4FFF4FE6
:101A9000FF4FFF4FFF4FFF4FFF4FFF4FFF4FFF4FD6
:101AA000FF4FFF4FFF4FFF4FFF4FFF4FFF4FFF4FC6
:101AB000FF4FFF4FFF4FFF4FFF4FFF4FFF4FFF4FB6
:101AC000FF4FFF4FFF4FFF4FFF4FFF4FFF4FFF4FA6
:101AD000FF4FFF4FFF4FFF4FFF4FFF4FFF4FFF4F96
:101AE000FF4FFF4FFF4FFF4FFF4FFF4FFF4FFF4F86
:101AF000FF4FFF4FFF4FFF4FFF4FFF4FFF4FFF4F76
:101B0000FF4FFF4FFF4FFF4FFF4FFF4FFF4FFF4F65
:101B1000FF4FFF4FFF4FFF4FFF4FFF4FFF4FFF4F55
:101B2000FF4FFF4FFF4FFF4FFF4FFF4FFF4FFF4F45
:101B3000FF4FFF4FFF4FFF4FFF4FFF4FFF4FFF4F35
:101B4000FF4FFF4FFF4FFF4FFF4FFF4FFF4FFF4F25
:101B5000FF4FFF4FFF4FFF4FFF4FFF4FFF4FFF4F15
:101B6000FF4FFF4FFF4FFF4FFF4FFF4FFF4FFF4F05
:101B7000FF4FFF4FFF4FFF4FFF4FFF4FFF4FFF4FF5
:101B8000FF4FFF4FFF4FFF4F5EEF7EEF9EEF7EEF69
:101B90009EEFBEF7BFF7DFF7DFFFDFFFDFF7BFF72F
:101BA000DFFFBFF7BFF7BFF7BFF7BFF7BFF7BFF75D
:101BB000BFF7DFF7DFFFDFFFDFFFDEF7DFFFBFF796
:101BC000BFF7BFF7DFF7DFFFBFF7BFF7BFF79EEF46
:101BD0007EEF5EE73DDF1DDFFDD6FDD6DDD6DCD630
:101BE000DDD6DDD6DDD61EDF1EDF1EDFDDD6BCCEA8
:101BF000BCCEBCCEFDD6BDCE5BBE3BBE1BBEFAB5D9
:101C00001BB6DBB53CBE3CBEDBAD9AA53995567C18
:101C1000567C567C977C977C767456747774777470
:101C20005774577477747774987C987C787C787C38
:101C30003774777C777C577C577C577C987CB8844A
:101C4000777C787C777C787C98849884787C777CA7
:101C50009884977C977C987C77747774D87C977CF1
:101C6000977C987CB87CB884987C98849884777C9E
:101C70009884B884B884B884B884987CB884B884CC
:101C8000B8849884987CB884B88498849884B884FC
:101C90009884777C9884D98498849884B884B8840C
:101CA0009884987C9884777C9884B8849884988465
:101CB000B884987C987C9884977CB884988497841E
:101CC000977C977CB884B884977C7774F77C517440
:101CD000D06332744F5B2E53756CB674D16B0D6349
:101CE000EB52CA4ACC52EC520D530C4B4D530C4B99
:101CF0000D532E5B2E53934B914B6E5B8B5ACA52F6
:101D0000CB4ACC4ACB4ACB52AA42CA4ACB4AAB4A6C
:101D1000CC4AAC4A8C4ACC4A0C53CA4ACB4ACB5A1E
:101D2000CB520D53894A9263F16B2C5330534D5370
:101D3000CB52EC520C5BEC5ACB5AEC5A0C5B0C635A
:101D4000EC5ACB52CB52CB52EC52CB52AB52CB5281
:101D5000AB52AB52AB52AB52AB4ACB52CB528A4A8C
:101D6000AB4AAA4AEC52FF4F7EEF9EEF9EEF9EEFEA
:101D70009EF7BFF7DFF7DFF7DFF7DFF7BFF7BFF754
:101D8000BFF7BFF7BFF7BEF7BFF7BFF7BFF7BFF7A4
:101D9000BEF7BFF7DFF7DEF7BEF7DEF7BEF7BEF739
:101DA0009EF79EF7BFF7BFF7BFF7BFF7BFF79FEFED
:101DB0007EEF5EE73EDF1EDFDECEBDCEBDCEBDCE0A
:101DC000BDCE9DCE9DCEDDD6DED6DED69DCE9DC6C9
:101DD0007DBE5CBEBECE9DC63CB61CB6FBB5DBADC3
:101DE000DCADDCADBCA59C9D7C9D1B8DDA8458745C
:101DF0005874997C797C9A7C797418641964F863B6
:101E0000D85BB853F95BD85BF95BD95BB853D85B47
:101E1000B85BB85BB85BB85BB85BB85BF863F85BA2
:101E2000D863D85BB75BD75BF863F863D85BD75BE5
:101E3000F863F95BD85BF85BD85BD85BF95BF85B60
:101E4000F85BF963F963F863F7631864F863F763A1
:101E5000F763186CF863F863386CF863F963196416
:101E6000F863F863F863F8631964F963F963D85B9E
:101E7000F863F963F963F963F963F863D863D863C6
:101E8000D8631964F963B85BB85B1964D85BF9630C
:101E9000F863D863D85BD85B19641964F863F86396
:101EA000F963F963D85BD85BF85BF85BF5538E4355
:101EB0008B324A2AAC328C3A4D2A954B0F43E5318E
:101EC000C431C531E539E639E6310632673AE629EB
:101ED000C629A631A6190D1AF0326B424539A4392C
:101EE000A63186318531853184298529863186312F
:101EF00087318631A631A531C629C529A631A53934
:101F0000A331C62982298E3A4F53873AEE4A0632C8
:101F1000263A473A0632063A063A063AE639C531D3
:101F2000A531C531C531A431C531C531C531E63919
:101F3000C539A531A531A531A531A431A531A531CA
:101F40008429A531C531FF4F7EEF9FEF9EEF9EEFB5
:101F5000BFF7BFF7BFF7BFF7DFF7DFFFDFFFDFF741
:101F6000BEF7BFF7DFFFDFF7DFF7DFF7BFF7BFF73A
:101F7000DFFFDFFFDFFFDFF7BEF7BEF7BEF79EF73D
:101F80009EF79EF79FF79EEFBFF7DFF7BFF79FEF34
:101F90009FEF9FE75EDF1ED7FED6DECEDECEDECE23
:101FA000BECEBECEBECEDECEFED6DED69EC67EBEB9
:101FB0007DBE7DBE7DBE9EC67EBE3DB63DBE1DB60F
:101FC000FCADDCA57A955B957C95BA7C997CDA842E
:101FD000FB841B8D3B951A8D1B8DFB84DB847974F0
:101FE000F863D85BF85BF85BF85BF853D853B753EA
:101FF000D853F85BF85BF85BD85BF85BF85B196467
:102000001964F85BB753D753B753F85BF85BF85BC9
:10201000195C1964F85BD75B1864F8631964D85BC2
:10202000F85B18641864F85BF85B396459643964C8
:10203000185C3964F85BF85B1864185C185C3864E9
:102040001864185C185C185C186418641864F85BF1
:10205000186418641864F85BF85B3964F85BF85B23
:10206000F85B1864185C185CF85B5964185CF85BE2
:10207000F85B185CF85BF85B19643A64195C195CEE
:102080003A64F95BD853195CF853B753B55BF55311
:102090006E433143B65B0E4B0A2AF1329243293A22
:1020A000C841E841E739073AE731E839E839C83942
:1020B000A731A631A439082A4D2A0C2AE629E62997
:1020C000C729A731C6398639A7212932C629E63161
:1020D000C739A731A731A739C739C631A6318739E2
:1020E000C739263AC731A9210B2A6C42ED4A273A53
:1020F000483A6A42283A4942E839E839C739C73983
:10210000A731A731E739E739E731C731C731083A95
:10211000E839C731C731C731A731A7398631A73967
:10212000C739A739A739FF4F9FEF9FEF9FF7BFF739
:10213000BFF7BEF7BFF7BFF7DFF7DFF7DFFFDFFF60
:10214000BFF7BFF7DFF7DFF7DFF7DFF7BFF7BFF75F
:10215000DFFFDFF7DFF7DFF7DFF7BFF7BFF7BFF727
:102160009EF79EEF9EEF9EEFBEF7BFF7BFEF9FEF8C
:102170007FE77FE75EDF1ED71EDFFED6DDCEDED631
:10218000BDCE9DCEDECEBDCEBECEDECE9EC67DBE4B
:102190005DBE5DBE5DBE7EC69EC63DB65DBE5DBE1D
:1021A000FCADBBA57B9D5A953B8DBA7C9974DA84B6
:1021B0001A8D5C955B953A953A951A8D3B8D79749D
:1021C000F763D75BD75BD85BD75BF753D753F7532E
:1021D000D753185C1864F75BD75BD75BD75B396460
:1021E000F85BD753F85BF85BD753F85BF85BD753D2
:1021F000185C1864F863D75BD75BF8633864D75B07
:10220000F863F863F863F75BF75B18643964186484
:102210001864F86338643864F85B18641864F75B12
:10222000F75BF75B175C185CF75BF75BF75B1864B1
:10223000F75BF75B1864F75BD75B18641864F763A8
:102240001864185C186418641864185CF75BF75B12
:10225000F75B1864F75BF85B18641864F85BF85B6D
:10226000185C185CD753B64B9643744B5153744B60
:1022700074537053EA3A693A883AEC2A4D3B473234
:10228000E8390832072A072A0732E631C739C63942
:10229000C631C631C829A731AA316D3A282AC429C6
:1022A000C531C631E631C829AC217463CE4AA629AE
:1022B000A631C639C539C531C731E531A629A921AD
:1022C0004A3AA942EE424B2A2B2A304BAC42473ABB
:1022D000283A8A42483A283AC631C631C739C63107
:1022E000A631C731E739073AE631E631E731E73160
:1022F000E739C731C631A631A629A631C631C63164
:10230000C631A629C631FF4F9FF79FEFBFF7BFF732
:10231000BFF7BFF7BFF7BFF7DFFFDFFFDFFFDFFF6D
:10232000DFF7BFF7DFF7DFFFBFF7BFF7DFFFDFFF45
:10233000DFFFDFF7DEF7DEF7DFF7DFF7DFF7BFF707
:10234000BFF7BFF7BEEF9EEF9EEF9EEFBEEFBFEF72
:102350009EEF7FE77EE73EDF1EDFFED6BDD6DDD6F1
:10236000DDD6BDCE9DCE9DCEBDCE9DCE7DC63CBE26
:102370003CB61CB65CBE5DBE7EBE7DBE3DBE3DB6FF
:10238000FCADDCA5BCA55B953B95FA8CFA84DA84A0
:102390003B955B957C957C953B951B8D1B8D9A742D
:1023A00019649753D85BD953D853D853D853F85B93
:1023B000D853F95BF85BD85B1964D85BB85BD85B22
:1023C000F85BF85BF85B1964F85BF85BF85BF85B4B
:1023D000D85BD85BF95BF95BD85BD85BF85BF95BE2
:1023E000D85BF95BD85BD75BF85BF8631964F8637B
:1023F000D85BF8631964F86318641964F963D85BEF
:10240000F85B19641964F963F85BB85BB85BF9634E
:10241000D85BD85BF963D85BD85BF9631964F9635F
:10242000F963F95BF9631964F963F95BF95B1964A2
:10243000F95BF963D95BF963F85B1864F85BF85BE7
:10244000195C185C964B954B7543B54B2F4B693215
:102450006B3A293249328A422D32B34BB1536B4227
:1024600009322932092A29320732C639C639C53913
:10247000C631C631C531873967296C2A9443072292
:10248000A631A5318431E6392F1A595CD45BAC3AB8
:10249000C829E729E629C6292C3250534B3A49323C
:1024A000072A473A2C434C3A0D4BCA3A093A263A86
:1024B000273A493A0732073AC631C631A631C73101
:1024C000E739E739C739C639A639A639A631A63959
:1024D000A631A639A6398631A631C631C631C631F4
:1024E000A63165298529FF4FBFF7BFF7BFF7BFF7B3
:1024F000BFF7BFF7BFF7DFF7DFFFFFFFFFFFDFFF2C
:10250000DFF7DFF7DFF7DFF7DFF7DFF7DFFFDFFF0B
:10251000DFFFDFFFDFF7DFF7DFF7DFF7DFF7BFF71B
:10252000BFEFBFEF9EEF9EEF9EEFBFEFBFF7BFEF96
:102530009FEF9FEF7FE75EDF1EDFFDD6DDD6BDCECE
:10254000BDD6DDD69DCE9DCE9DCE9DCE9EC65DBE1A
:102550005CBE3CBE7DBE5DBE5DBE7DBE5DBE3DB6AD
:102560001DAEBCA59CA55B951B8D1B8D3B955C95FD
:102570003B955B959C9D7C955B953B8DFA8479742E
:102580001864B753B753D853B853F85BB753D85BF5
:102590009753F95BD85BB75BD85BD85BF85BD85BCC
:1025A000D85BD85B19641964D85BF963F85BB85BD6
:1025B000D85BF853D853B753F853F853F853195C12
:1025C000F853F853D853D85BF86319641964196445
:1025D000D85BF863F96319641964F963D85BB85B75
:1025E000D85BF9631964F963D85B1964F963D85B44
:1025F000F85BF863D85BF8631964F863F963F9630F
:10260000D85BD85BD85BF85BD85B1964D85BF9639F
:1026100019641964F95BD85BD75BF75BF85BF75B10
:10262000964B175C375C1654D54B73437153AA3ADB
:102630002732693A493A693A2D2A744BB25B8A4289
:102640002A2AAC424A3A6B42083AC739C639C631DF
:102650008629A631E5318639A631C719343B0C43AA
:10266000093A093A4A3AA921D3227A54D553CB3AA6
:10267000C829C7290632E7318929C929E831E73154
:10268000E731C631E629A8316A42473AE841053ABE
:10269000273A073AE631E639E639C631C631C6315E
:1026A000C631C631E739C639C639C631A53185319B
:1026B000A631A531A631C631C639C639C639C639A3
:1026C000A6398531A631FF4F9FF79FF79EF79EF7FA
:1026D000BFF7BFF7BFF7DFFFDFFFDFFFDFFFDFFF82
:1026E000DFFFDFFFDFFFDFF7DFF7DFF7DFF7DFF722
:1026F000DFFFBFF7BFF7DFFFDFFFBFF7BFF7BFEFBA
:102700009EEF9FEF9FEF9FEF9FEF9FEF9FEFBFF732
:10271000BFEF9FEF7FE75EE71EDF1EDFDDD6DED671
:10272000BDCEBDCEBECE9DCE7DC67DC67DC65DBEB8
:102730005DBE5DBE7DBE7DBE5DBE5DBE5DBE3DB6A9
:10274000FDADBCA59CA57C9D5B957B9D9C9D9CA5A2
:102750005B9D7CA59B9D7A955A955B95F984D97C68
:10276000FA849974F75BD753D753D75BD75BD753AA
:102770009653D75BF75BD75BF85BB75BB753D85B18
:10278000B753B85BD85BB753F863F963B753975344
:10279000F85B185CD753D753F85BF75BF75BF85BD4
:1027A000F75BD753D753D85BF963F963F863D85B0A
:1027B000F863F85BD85BF85BD85B1864D75BD75BD2
:1027C000F75B18641864F75BF86318641864F75BC8
:1027D0001864F75BF75BF75BF75BD75BF75BF86356
:1027E000F863F75BD75BD75BD75BD75BD75BF85BEF
:1027F00018641864F75BF75BF75BD75BF75BF75B15
:10280000B54BF653F553B44BF553F453D453935B94
:102810000E438A3A483A8842AA2AB45BCB428632AF
:10282000AF322E4B493AE739C731E931E9292A322B
:102830000832C631A731C8310532062A0C2AE721F1
:102840008821AA290C1AF42A553B143B2C2AC521AD
:10285000073AC741C539A6392A42073AE631A731B6
:102860006731A731C639C731C731C7312A4A274A2C
:10287000063A273A273A273A063A073A073AC6313C
:10288000C631C631E631C629E631E631C629A52969
:10289000C529A529C529E631C631A639C639A631CB
:1028A000A639A639A639FF4FBFF7BFF79EF79EF7A7
:1028B000BEF7BEF7BEF7DFFFDFFFDFFFDFFFDFF7AB
:1028C000DFFFDFFFDFFFDFFFBEF7BEF7BFF7DFF79A
:1028D000DFFFBFF7BFF7DFFFDFF7BEF79EEF9FEF2A
:1028E0009EEF7EEF7FEF9FEF7EEF7EEF7FEF9FEF1C
:1028F0007FEF7FEF5EE73EE71FDFFED6FED6DED638
:10290000BECEBECEBECE9DC69ECE7DC63DBE7EC6D2
:102910005DBE3DB65DBE5DBE5DBE3DB63DB63DB67F
:10292000FDADDCA5DCA5BB9DBB9DDCA5BCA59B9D31
:102930009B9D9BA59BA57B9D5B9D5B9D3B953B9537
:102940001C8DBB7CB763F963D85BF85BF95BD85B24
:10295000974BB853F85BF95BF95BD85BB853D75327
:10296000F85B185CD753D753D753D753F85BB7539B
:10297000F85BF963F863D85BD85BB85BB75BF86367
:10298000D85BB75BB85BF85B18643964185CF85BBC
:10299000F85BF75BF85B38641864396CF963D85BF3
:1029A000D85BF863F863D85BF85BF863F863D85BCF
:1029B000195CF85BD85BF85BB753D85BF85BF85BE6
:1029C000F85BF85BF85BF85BD85BD8531964196463
:1029D00019641964D75BD85BF95B195CF95BF9532F
:1029E000B84B964BD753F653375C15541454F663D3
:1029F000775C1054A7424A42D0428D53682A6E2A0F
:102A000033232F3B673A053AE7312C22B122323B80
:102A10002D43062AA739E7312732073AA73165291E
:102A200067318531A429CA19E729E831C739054238
:102A30000842E939C8294B2238541644AA3A85314C
:102A4000A631C731A639E831E731C4294A32083AFC
:102A5000E731283A4942083A073A083A083AE7394A
:102A6000C731C731A7318731C739C739A731863157
:102A700086318631C739A639A631C731E731C7312A
:102A8000C731A6298621FF4FBFF7BFF7BEF7BFF7B3
:102A9000BFF7BFF7DFF7DFFFDFFFDFFFDFFFDFFF9E
:102AA000DFFFDFFFDFFFDFFFDFFFBFF7BFF7BFF7AE
:102AB000DFFFDFFFBFF7BFF7BFF79FEF7FE77EE7DF
:102AC0007FE75EE75FE75EE73EE75FE75FE73EE7FA
:102AD0003EE73EE75EE73EDF1ED7DED61ED7FED6D8
:102AE000DED6BDCEBDCE9DC6BDCE9DC65DBE3CB6BE
:102AF0001CB63CB67DBE5DBE5DBE3DB61DB61DB608
:102B0000FCADDCADFCADBBA5FCAD1DB6BBA59B9D76
:102B10009CA59CA59CA59CA59CA59CA59C9D5B9506
:102B20001B8DFB84F75BF9631964D85BD85BD853C2
:102B3000974BD753B753F85BF85BD85BD85BB85368
:102B4000B853F85BB753B753185CF85BF85BD85BC6
:102B5000F85BF863D85BB75BF85BF85BD85BD85B76
:102B6000D85BD85BF85BF85BF85BF85BF863F863FD
:102B7000F85BD85BD75BD75BF863F863F85BF86307
:102B8000D85BD85BF863F85B1864F863F85BF85BB4
:102B9000F85BF85BD85BF85BF85BD85BF85BF85BDD
:102BA000D85BF85BF85BF85BD75B1864F85BF95BA4
:102BB000F95BF85BD7531854184C1854F643B753C5
:102BC000D963B95B973BF853B54BD44BD64BD74B36
:102BD00077543754B3438F43944BCD3A8A42CE4215
:102BE0005633CD4A2E2274437343994BD95B185404
:102BF000B44B4A3AA539E63128320832C639653134
:102C0000863966298629E731C731E8390832083222
:102C1000073A073AE631E8314C32AF32EF4A083A28
:102C2000C439C64187398731C629E431A631A5396F
:102C3000073A2842073A073A073A073A273AE7316C
:102C4000A631A631A731A731A631E639C639A6315A
:102C50008731A739E739C531C531A6298531C53155
:102C6000A731A531E452FF4F9FF7BFF7BFF7BFF77A
:102C7000DFF7DFF7BFF7DEF7DFFFDFFFFFFFFFFF65
:102C8000DFFFDFFFBFF7DFFFDFFFBFF7BFF7BFF7F4
:102C9000DFFFDFFFBEF7BFF7BFF79FEF7FE75EE71E
:102CA0005EDF3EDF1EDF1EDF1EDF1EDF3EDF1EDFBC
:102CB0003EDF3EDF1EDFFDD61ED71ED7FED6DDCEA1
:102CC000DDCEDDCEBDCEBDCEDECEBECE7DC63CB62B
:102CD0001CB65CBE9EC67DBE5DBE3DB61DB61DB6B5
:102CE0001CB61CB6FCAD1CB63DB6FCAD9B9D9B9DB9
:102CF0009CA5BCA59CA59CA5BCA5BCA57B9D5B95E6
:102D00001B8DDA7C1864B753D85BB853D853F85B83
:102D1000D853D753974B974BD85BD85BF85BB853D6
:102D2000D853B853D853F85B3964F86318641964FE
:102D3000F863F863B85BD85B1964F85BD85BD85B61
:102D4000D85BD85BF85BD75BF8631864F863F85B13
:102D50001864F863F863F86318649653B7531864FB
:102D60001864F85BF85BD75B1864F863F863F85B8A
:102D7000D85B185CF85BD85BF85BD85B1964D85BF0
:102D8000F863D85BF85B1864F863F863D85BF963A1
:102D9000D85BF85BD753D64B95437743B843B743DB
:102DA000B743184CB73B77439643D74BD853D953C7
:102DB000D653F453D24B0F33B54B924BAD2A10334D
:102DC00038543143D32A194479541B5C19641A547A
:102DD000F54B473A8731E731C8214A2A073A85310E
:102DE000862986298529A529A731E839083228327C
:102DF000073A063AC631A73167190F43375C0D43CE
:102E0000E431A631A7298731A631062A4B32E831B1
:102E1000E739073AE739073A4842273A273AE73984
:102E2000E731E731C731A629E731073AE639A6315C
:102E3000A731C739C731C53185318631A529A529C3
:102E40008631C6390A84FF4F9FF7BFF7BFF7BFF738
:102E5000DFFFDFF7BFF7DFF7DFFFDFFFDFFFDFFFBA
:102E6000FFFFDFFFDFFFDFFFDFFFDFFFBFF7DFFF7A
:102E7000DFFFFFFFDFF7BFF79EEF7EE75EE73EDF96
:102E80003EDF3EDF1EDF1EDF3EDFFDDE1EDF1EDF1C
:102E90003EDF1EDFFEDE1EDF1ED7FDD61ED7FED6AE
:102EA000DDD6FED6DDCEBDCEBECEBDCEDECE9EC63E
:102EB0007DC67DC69DC67DBE5DBE5DBE3DB61CAEFB
:102EC0001CB63DB6FCB55DBE5DB6FCAD9BA5BCA514
:102ED0009CA59B9DBCA5BCA59CA59CA59CA55B9504
:102EE000D984186CD75BF85B9753B753B753D85B4B
:102EF000F85BF85B964BB753D85BD85BD85BF95B54
:102F0000D85BB7539753B7531964F85BF863F85B12
:102F1000D85B1964F863F863D85BB753D85BF85B88
:102F2000F85BD85BF85BF863D85B18641964D85B0E
:102F3000F85BF85BF8631964F863F863F85BF85BB7
:102F40001864F85BF863F8631864F863D85BD85BBF
:102F5000F85BF85BF85BF85BF863F85BF863F85BC9
:102F6000F863D85BD85BF863F863F863D85BD85B29
:102F7000D85B3964185CD653964BB84BB74B953B2E
:102F8000F643374CF643D8437633963B1A5C1A64C3
:102F90007353CC3A6C326F2A165CF653D5437433B4
:102FA000D643D753954B12337443195C18541A54B3
:102FB000944B663AE839E6310A22103B293AC63189
:102FC000A621C6318531A531C731C731E731083275
:102FD000073AE739C639C731E929CE423333D04BF6
:102FE0002632E729C729A631A631292A9253C829B2
:102FF000C731E7310732073A283A073A073AE7314B
:10300000073A2842283A493A283A083AA631852907
:10301000C631C631C631C731A631A631A629C52968
:10302000C63186398431FF4F9FF79FF7BFF7BFF74F
:10303000DFF7DFFFDFFFDFFFDFFFDFFFDFFFDFFFA8
:10304000DFFFDFFFDFFFDFFFDFFFDFFFDFFFDFFF90
:10305000DFFFDFF7DFF7BEF77EEF5EE75EE73EDF1D
:103060003EDF3EDF1EDF1EDF1EDFDDD6FDD61EDFAC
:103070003EDF3EDFFED61EDFFED6FED6FED6DDD616
:10308000DED6FED6DDD6BED6BECEBDCEBECEBECE42
:10309000BECE9DC69DC67DC65DBE3DB63DB61CAED0
:1030A000FCAD3CB61CB65DBE3CB61CAEBBA5BBA51C
:1030B0007B9D7B9DBCA59CA59CA5BCA5BCA57B9D23
:1030C000B97CB65BB75BF963D85BB753B753D853DA
:1030D000D85BD85BD85BF85BF85BB753D753F85B2A
:1030E000D85BD85BB753D7531864D85BD75BB75B53
:1030F000D85BD853F85BD853D85BD85BF85BF85BE8
:10310000185CF85B185CF863F85BD85BF85BF863F5
:103110001864F85BD85BD85BF86318641864F85BD4
:10312000F85BF85B1964F863D85BD85B19641864C2
:103130001964F85BF85B18641964F863D85B196468
:10314000D85B19641964F8631864B75BB85BF863FB
:103150001964F85BB64B7643573BB743924BB34386
:10316000D54B94439343753BB53B5333D74BD75320
:103170008F438A2A7032164BB453165CF753D84BE0
:10318000753BD9538D42A6294821713A384C194CC8
:10319000F763EB52443A453A0B224E22E931C631ED
:1031A000C621A5294539A739C631C629E731E731F6
:1031B000E839A631E739C731E831C8216D2ACC3268
:1031C0000632C631C531A631A729493A8B42832937
:1031D000A5290832283A493A283A283A483A283A5A
:1031E000073A083A283A8B42CB52C729C529C42945
:1031F000E531C531A631A831A731A6318731A531D6
:10320000C531C731A831FF4F9EEF9EEFBFF7BFF723
:10321000DFF7DFFFDFF7DFFFDFFFDFFFDFFFDFFFCE
:10322000DFFFDFFFDFFFDFFFDFFFDFFFDFFFFFFF8E
:10323000FFFFDEF7BEF79EEF9EEF5EE73EE73EDF65
:103240001EDF1EDF1EDFFEDEFED6FDD6DDD61EDF54
:103250001EDF3EDFFEDE1EDF1EDF1EDF1EDFFDD6B1
:10326000FED6DDD6DDD6DED6BDCEBDCEBDCEBDCE44
:10327000BECEBECEBDC69DC65DBE3DBE3CB61CB676
:103280003CB65DBE7DBE5DBE3DB6FCADFCADBCA535
:103290007B9D7B9D9B9D9CA59CA59BA59B9D7B9DB4
:1032A0003B95386CB75BF85BB753D753F85B9753D4
:1032B000F85BD85BF85BD85BD85BD85BD85BB7535F
:1032C000F85BF85BD85BF85B185CF85BD85BD85BA5
:1032D000F85BF85B185C1964195CF85B1964185C9E
:1032E000F85BF85BF85B186439641864F863186479
:1032F000F863F85BF85BF85BF85BF863F863F85B1E
:10330000D85BD85B1864F863F863F863F8631864F3
:10331000185CD75BF85BF863F863F86318641864AB
:10332000F85B1964396CF8631864D75BF863F96368
:10333000B753385CF753B54BB54B963BB34BD74BB4
:103340009843964B714B8F2AAD3A2A2AD44BD54BD2
:10335000B343533BD74B195C78536F4B6932CF3A29
:10336000321B1534CA32A531C9398921B11AF84B3B
:10337000B5634942A531C739E729E521C431A439EC
:10338000A629863166398739A631A629C731083A78
:10339000C7316629A631E739083A0932083AE639D1
:1033A000C6318631C739CA316D42E831C339E48349
:1033B000EC738B42693A693A483A283A48424842A3
:1033C000073AE731C631C5290732A729A729A7310E
:1033D000C731C639C531C431A53187298431A439F3
:1033E000C631C829C929FF4F9EEF9EEFBFF7DFF70F
:1033F000DFF7DFF7DFF7DFFFDFFFDFFFDFFFDFFFF5
:10340000DFFFDFFFDFFFDFFFDFFFDFFFDFFFDFFFCC
:10341000DFF7BEF79EF79EEF9FEF7EEF5FE75FE778
:103420003EDF3FDF1EDF1EDFFED6FEDE1EDF1EDFBD
:103430001EDF1EDF1EDF1EDF3EDF1EDFFED6FED6D6
:10344000FED6DDD6DED6DED6DED6DED6DDD69DCE07
:10345000BDCEBDCE9ECE9EC65DBE3CB63DB63DB693
:103460005DBE9DC69EC67DC63CB61CB61DB6DCAD17
:103470009BA59CA59B9D7B9D9B9D9BA57B9D9C9DB2
:103480009C9DDA7CF85BD85BD85BB753F85BD85B64
:10349000B753D85B1964B753D85BD85BF85B964BCE
:1034A000D753F85BF85BF85BB753F85B19641964A2
:1034B000F85BF85B964BD753185CF85BD75BF85B0F
:1034C000D75BF85BD85BD85BD85BF8631864F863AC
:1034D000F863F8631864186419641964F863F8638E
:1034E0001964186419641864D75BF85BD85B1864B6
:1034F000D85BF85BF85BF863F863F85BF863196412
:1035000018641864F85BF85B1864F85BF85B195C86
:10351000B74BB74B3854B54B9343B343B553174CE4
:10352000D73BB84B775BF03A69328B32934BB44B55
:10353000D74B1A4C194C174CD7532C4347324932AE
:103540002A223833103BC629C7398731291A6C32F1
:103550004E5B6532A3316929C831A531A739853160
:103560008631A621E721C829C631C631C731C73106
:10357000C73166296529C631083A283A0A3AE9412D
:10358000E741C729462A8942CC4AE929CB426B8CBC
:10359000CD6B6A3AAB428A42493A283A0732083A36
:1035A000283A65296521C631A631E631E739A731C8
:1035B000A73187318631853144298631C431A7311D
:1035C000A631C631C629FF4F9EEF9EEFBFF7BFF76A
:1035D000BFF7DFF7DFFFDFFFDFFFDFFFDFFFDFFF2B
:1035E000DFFFDFFFDFFFDFFFFFFFDFFFDFFFDFFFCB
:1035F000BFF7BEF79EEF9EEF9FEF7FEF5EE75FE7BF
:103600005FE73EDF3FDF1EDFFED6FEDE1EDFFED6BB
:103610001EDF1EDF1EDF1EDF3EDF1EDFFED6FED6F4
:10362000FED6FED6DED6BDCEDED6FED6BDD6BDD605
:10363000BDCEBECE9DC65DBE3CB61CB63DBE5DBE1B
:103640007DC6BECEBEC67DBE5DBE3DBEFCAD1DAE62
:10365000BCA59CA59BA57B9D9B9D9B9D9B9D9C9D8F
:103660009C9DFB841864D85BB853F85BF85BD85B0F
:10367000D85BB75318641964F85BD85BD85BB75351
:10368000D75BF85BF85BF85BD85B185CF85BF85BC2
:10369000F85B5122922AF85B185CF85BF85BD85B08
:1036A000B75BD85BF85BB753D85BD85BD85B186463
:1036B0001864F8631864F8631864D85BF85BF863FF
:1036C0003964186419641864D85BD85BF863F85BD4
:1036D000F863D85BF86319641964F8633964186493
:1036E000F863F85BF85B1864186418643964195C53
:1036F000195C9643F64B953B743BD34B2F43F02A12
:10370000362BDA4BF96B1764F14BD243D74B754329
:10371000763BD84BF94B58648E4B8A32AB42694AA0
:103720008631912A744371432D430822F02A113BBC
:10373000335C4F3BEA21732A2F4BC331C739A6397B
:1037400065398629C721C731E731E731C731A7314C
:10375000A731A731A631C631E73928420932083AE4
:103760000742283AA83A283AE931905BD57C052AE5
:1037700085212932EC4A693A69424942073A073AB7
:10378000A63124214421C731063AE5314742484A4F
:10379000E639C3314242A88CE77B8531A631A73197
:1037A000A631C531C421FF4F9FF79FF7BEF7BFF782
:1037B000BEF7DFF7DFFFDFFFDFFFDFFFDFFFDFFF4A
:1037C000DFFFDFFFDFFFDFFFDFFFDFFFDFFFBFF731
:1037D000BFF7BEF79EEF9FEF9FEF9FEF7FE75FE79B
:1037E0005EE73EDF1EDF1EDF1EDF1EDF1EDFFED6B2
:1037F0001EDF1EDF1EDF1EDF3EDF1EDF1EDF1EDFC1
:10380000FED6FED6FED6BDD6BDD6BDCEBDCEDED64C
:10381000BDCEBECE9DC63CB63CB6FCB53CB69EC643
:103820009DC69DC6BECE9DC69DC67DBEFCADFCADF3
:103830009BA57B9DBCA5DCADBCA5BBA59BA55B9D4D
:103840001A8D1764D75BB853D85BD85BF85B1964E3
:103850001964B75BD85B1964F85BD853F85BD75B26
:10386000B753B753F85BF85B1964F85BF85BF85B28
:103870005543EF11964B39641964F8631964186461
:10388000D85BF85B1864F85BD85BF85BF863F863A7
:10389000F863F8631864F863186419643964F85BB2
:1038A00018641864F85BD85BF863F85B39641864D3
:1038B00018641964D75BD85B186419645A6C18646F
:1038C000F863D75BF85B1864185C18641964195CBA
:1038D000B74B9543743B963BD743D35B8F534D1205
:1038E00056335A54D65BB553F54317447B5CD84BDB
:1038F000B74BF653D453CF3AA6326A3A8B4248427A
:10390000C7414F43743BF64BD4432F23332BF54B26
:103910007143F132B02A731A6B22E329E731A731E0
:103920008639C9316D3A2942C731083A862986312C
:10393000A731A73166298629E7392842473A6842E4
:10394000484AE739842125214821EE4A0E4B0722B7
:10395000E729E8316A42283A283A4942E739C6312C
:10396000A629A631073A073A063A063A26424742BE
:10397000664A4342067C4BBE667CA5318731C63918
:10398000C631E729282AFF4FBFF79FF7BEF7BFF7D9
:10399000BEF7DFF7DFFFDFFFDFFFDFFFBFF7BFF7B8
:1039A000BFF7DFFFDFFFDFFFBFF7DFFFBFF79EF7E8
:1039B000BFF7BFF7BFF7BFF79FEF9FEF9FEF5EE740
:1039C0003EE73EDF1EDF3EDF3EDF3EDF1EDF3EDF47
:1039D0003EE73EDF1EDF1EDF1EDF1EDF1EDFFEDED8
:1039E000FDD6BDD6DDD6DDD6BDD6DED6BECEBDCEAD
:1039F000BDCE9DC69DC63CBEFBB51BB67DBEBEC63C
:103A0000BECEBDCEBECEBECE5DBE3DBE1DB6DCAD15
:103A10009CA59C9DDCADFDADDCA5BCA59B9D3A9510
:103A2000997CD65BB753B853F85BF85BF85B1964C5
:103A3000F85BF85BD85BD85BD85BD85BD85BD75BAF
:103A4000D85BD753B753B753F85BF85BF75B186491
:103A5000B232B22AD74B185C3964D85BF863396C40
:103A6000F863F863F863F863F863F863F86318645D
:103A7000F86318641964F863F85B19641864D85B18
:103A8000F85BF863F863D85BF863F863F85BF86396
:103A9000F8631964F863F863196418641864F863C8
:103AA000F863186418641864186439641964396414
:103AB000F85B185CD64B912A4E2A6A2A55439543E7
:103AC00052338F1A12338A22B032B74B953B74436C
:103AD000B7536F4B87324932CA428A42693A883AB1
:103AE0000C43954BF343B343F753F54BCC32693A50
:103AF0000632464205322A2A283AC539C831A92950
:103B0000082AAF2A7B5CB353A7296529452986314A
:103B1000C631A63145216521C73128420632E6313A
:103B2000083AC6396229452926214621C831293259
:103B300009324942083AC731A62986294521A631CA
:103B4000C731083A4942E739E739073A063A273A8E
:103B50004742274227420642E639C629A639C439D8
:103B6000C5312B2A5253FF4FBFF7BFF7BFF7BFF73F
:103B7000BFF7DFF7DFFFDFFFDFFFDFFFBFF7BFF7D5
:103B8000BFF7BFF7BFF7DFFFDFFFBFF79EF79EF777
:103B90009EEF9EEF9EEF9FEF7FEF5EE77EE75EE793
:103BA0003EE71EDF1EDF1EDF3EDF3EDF3EDF3EE77D
:103BB0005FE73EE73EDF1EDF3EDF3EDF1EDFFDD676
:103BC000FDD6DDD6DDD6DDD6BDD6BDCE9DCEBDCEF5
:103BD0007DC67DC67DC65DBEFBB53CB67DBE9EC6C0
:103BE000BECEDED6BDCEBECE7DBE1CB6FCB5BBA560
:103BF000BCA5BCA5DCADDCADDCADBCA5BBA5BCA546
:103C00007C9D586CD75BB853F85B1964F85B1964FA
:103C1000F863F863D85BF863F85BD85BF85BF85B34
:103C2000D85BF85BD85BB853B753D85BF85BD75B0E
:103C3000AE115543964BD7531864F863F863196C6B
:103C4000196CF863F863D85BF863F8631864F86379
:103C5000F863F863F863F863F86318641864186429
:103C6000D85BD75BF85B18641864F85B1864186459
:103C7000F85BB75318641864F86318641864F86341
:103C8000F863396C1964F863D863196419641964AA
:103C9000195C385CF75352438E32F22AB83B8E3AA5
:103CA000073A0832F02A30438D42C94284326732E3
:103CB000873AA53AA63A6B3A8D3A0D436B2A1043E0
:103CC00016543A5CD93B194C934BEC3A87398639F8
:103CD000E731E631A639273A073AE7392742A729DB
:103CE00026220F3B1A640F438629A631A631A6313E
:103CF0008531852966216521A629E7398621252177
:103D00002529C829883A653103214321C731A741B4
:103D1000C739083AC73125210419E7394842A63185
:103D2000E739A7318629E631E731E731E631C53198
:103D3000E531C531C5318531A631C631E539A83106
:103D4000263AC629703AFF4FBFF7BFF7BFF7BFF754
:103D5000BFF7DFF7DFF7DFFFDFFFDFFFDFFFDFFFAB
:103D6000BFF7BEF7BFF7DFFFDFFFBFF7BEF7BEF756
:103D70009EEF7EEF9FEF7EEF7EEF9FEF9FEF7FE75F
:103D80005FE73EDF1EDF1EDF3EDF3EDF3EE73EDF5A
:103D90003EDF3EDF3EDF1EDF1EDF1EDFFDD6FED62E
:103DA0001EDFFED6DDD6DED6BDCE9DCEBECEBECECD
:103DB0009DC67DC65DBE5DBE3CBE7DBE9DC6BEC60B
:103DC000DECEDED6DECEBEC69EC65DBEFBAD9BA5FC
:103DD0009BA5BCA5FDADDCADBCA5DCADBCA59BA584
:103DE0007B9D1B8DF763D85BD85BF85B1864186408
:103DF000D85BD85BD85BF85B19641864F863F86328
:103E0000D85BF85BF85BB753D75B1864186455430D
:103E10004D01395C974B185C18641864F86318649A
:103E20001964F863F85BD85BF85B19641864F8638D
:103E300019641964F86318641864186419641864C0
:103E40001964D85B18641864F85B1864F863196423
:103E5000D75BD75BD75BF85B186418641864F863AA
:103E6000F863186418641864F863F86319641864D4
:103E700018643964F75B1964F963B24B2D3B8A32DD
:103E8000AC42EF42F753545C915BEF422E2B2A3B3E
:103E90006A2A6A3A8942683A6A3A494209326B3276
:103EA0006D4B903AB94B5A5C2F4B6632262A073A33
:103EB000E839E839E841C631C629E7312842E9291D
:103EC000B02A395438644932E7394842A63144218E
:103ED00065296529652965296529C739A629242900
:103EE00004314521E9316C322932C531A729084214
:103EF000C6318629E839652165114C328D42093A6F
:103F0000C831C6318329E539C739C739A531A42954
:103F1000C631E631C631C839C731C6318F22B13A10
:103F20008D5B242A4629FF4FBFF7BFF7BFF7BFF7C6
:103F3000BFF7BFF7DFFFDFFFDFFFDFFFDFFFDFFFE1
:103F4000DFFFDFFFDFFFDFFFDFFFDFFFBEF7BEF7D3
:103F5000BEF7BFF7BFF79FF79FF7BFF77EEF5EE7AC
:103F60003EDF3EDF1EDFFEDE1EDF3EDF1EDF3EDF0A
:103F70003EDF1EDF1EDF1EDF1EDFFDDEDDD6FEDEC6
:103F80001EDFFED6DDD6DED6BDCE9DCE9DC67DC65D
:103F90007DC65DBE3DBE5DBE5DBE7DBE9DC6BECE68
:103FA000DECEBDCEBECEBDC69DC67DC63DBEFCAD81
:103FB000BBADFCAD1DB6DCADBBA5FCADDCADBCA5A1
:103FC000BCAD3B95F763F85BF85BF85BF85B185C9E
:103FD000F85BF85BF863F85B1864F863F863186CD7
:103FE000F85BF85BF85BD75BD76318641864722AD8
:103FF000311A7A64D853F85BF8631864186418644B
:1040000039643964F863F863F863F8631964396CE8
:104010001964396C1964F863F863F85BF863396CF8
:104020001964D75B1964F863F85B1964F85BF8638B
:10403000F863F85B18641864F863F863186419642B
:10404000196CF863F86318641864186418641864C9
:104050001864F86318641964D8538E328B32AC320A
:10406000D0327443B44B4F438C328D32EE32AB2A94
:10407000F03A6D3A082A4832A93A293A6C3AD053B4
:1040800046324A117543F553693AE4312632E63136
:10409000C731C7310842283AE729E731E739E9292A
:1040A000D84B7B64D553273A283AA6314421652959
:1040B000A63186296529452945298631A53144310E
:1040C00025314629A8310F430D4BCA4A4A3A484286
:1040D000A63124216629283A893AAD3A6C3A06324B
:1040E000E739C631C531273AC731C631C639C5317E
:1040F000E731E631E639C739C639C5314E1A764B54
:10410000B7740B43C631FF4FBFF7BFF7BFF7BFF719
:10411000BFF7BFF7DFFFDFFFDFFFDFFFDFFFDFFFFF
:10412000DFFFDFFFDFFFDFFFDFFFDFFFDFFFDFFF9F
:10413000DFF7DFF7DFF79FF79EEF9EEF5EE73EE7E3
:104140001EDF1EDF1EDFFED61EDF3EDF1EDF1EDF90
:104150001EDF1EDFFEDE1EDF1EDFFEDEFED6FEDE03
:10416000FEDEFED6DED6BDCEBDCE9DCE7DC67DBEEC
:104170007DC65DBE5DBE7DBE7DC67DC69DC6BECE16
:10418000DECE9DCE9DC6BEC69DC67DBE5DBE1CB6A6
:10419000FCAD1DB63DB6FCB5DCADFCADFCADFCAD7B
:1041A0009BA59CA53C951864F85BF85BD75BF85B16
:1041B000F85BD85BD85BD85BD85BD75BD85B1864FF
:1041C00019641964F85BF863D763386CD75BEF192F
:1041D000553B595C185CD753396C186418641864E3
:1041E000F863F863F863F863396419641864F86372
:1041F0001964196419641964F863F85BF863396C1D
:104200001964186419643964196418641864F863CB
:10421000186419641864186418641864196C196CAB
:1042200019641864F86339641864396C3964186463
:1042300018641864F86338647764166C156CF13A86
:10424000B74B963BED2A2F434F43AB32AB3A6C3220
:10425000B03AEF3A8C32AB32CA3A4932AE32914B75
:10426000E529CA21EF3A6B2AC531A539C6312A4260
:10427000E831062AC739E731E729C7310842C92999
:10428000123B78641043E731E73985298529E739FE
:10429000E7396529452945294529252165294529E4
:1042A000453145296629E929E929E8292932E731F3
:1042B000252125294529083A483A6942273AE33118
:1042C000C539C641E73107320732E631E631E73119
:1042D000C731E631C531A639A6390732C919344389
:1042E000544B0E3BAA3AFF4FBFF7BFF7BFF7BFF7DC
:1042F000BFF7DFF7DFF7DFF7DFFFFFFFFFFFFFFFAE
:10430000FFFFFFFFFFFFFFFFFFFFFFFFFFFFFFFFBD
:10431000FFFFBFF7DFF79EF77EEF7EEF9EEF7EE7B2
:104320003EDFFED6DDD6FEDE1EDF1EDF3EDF3EDFD9
:104330001EDF1EDF1EDF1EDFFED6FEDEFED6DED651
:10434000FED61EDFDED69DCE9DCE7DC65DBE3CB6C2
:104350005DBE7DC65DBE7DC67DC69DC69DC69DCE2D
:10436000BDCEBDCE9DC6BECE9EC65DBE3CB61CB605
:104370003DB63DBE3DB61CB6FCADFCADDCADDBAD27
:10438000DCADBCA5DDA5BA7CF75BF85BD75BF85B61
:10439000F85BF85BD85BF863F85BB75BD75BF863F7
:1043A000F85B3964D85BF85B1864596C554BCF19CE
:1043B000B74B395CD7531864F8631864F863186412
:1043C00018641964F863396C196419641864D75B4C
:1043D000F863396C186419641864F86318643964F4
:1043E0003964396418641864186418641864F863CC
:1043F000D85BF85B396C3964186419641864186404
:10440000F86318641864396C1864396C186418649B
:10441000396C396C396C396C796C776C586C796C97
:104420005A5CD84BD643D74B8F4B8B1A5723EF424E
:1044300068426E32954B8D43063A053A493AE93166
:10444000A639C6390A3AC831E639A739282A144BA1
:10445000964B0B2BA731C629E631C731A7398729DF
:10446000EA21714B6C3AC739E739073A283A073ADB
:10447000A63145292421652924212421472966299B
:1044800064214329452187290A2A8C32AB42E9312C
:10449000272106216629093A263A4542053AA639D6
:1044A000C739E539E5310732273AE631C6310732F7
:1044B000C7290832293AE531E831B13AD03A2E4BD2
:1044C000653A65324C43FF4FBFF7BFF7BFF7BEF702
:1044D000DFF7DFF7DEF7DEF7FFFFFFFFDFFFFFFFAE
:1044E000FFFFFFFFFFFFFFFFFFFFFFFFFFFFFFFFDC
:1044F000DFF7BEF79EF79EF79EF7BFF79EEF5EE7EA
:104500001EDF1EDFFED63EDF3EDF1EDF3EDF3EDF6C
:104510001EDF1EDF1EDFFED6FED6DED6DDD6BDCE0A
:10452000BECEFED6DED6BECE9DCE7DC65DBE3CB630
:104530005DBE7DC67DBE9DC69DC69DC69DCEBDCEC3
:104540007CC69DC6BDCE9EC69DC67DBE3DBE3DB64B
:104550003DB61CB63DB63DB63DB61CAEDCADFCB5B9
:104560001DB6FDADDDA5FA84386CF85BF863F85B29
:1045700018641864F863396C396CF8631864F85B74
:10458000F8631964F85B186418643864912AEF19A9
:10459000185C595CB753185C39641864F863186484
:1045A00018641964F86319641864396C1964F86341
:1045B00018641864F8631964196418643964186419
:1045C0001864F863186418643964396CD75BF8634D
:1045D000396CF863396C596C796C396C18641864EF
:1045E000D863F863396C1864396C396C3964396490
:1045F0001964596C7A6C396C596C78647B645C64AE
:104600005964154CB843D74B94535243B443945315
:10461000AA4249328A3A8331A7410A32693A28329A
:104620000822C6318A42293AE841A929F22A4E4392
:10463000A93A8B3AC7398529C6318631A7398729E6
:10464000A721E821E831E841E739073AE739C631DF
:10465000A631242124214529452945294329A5316D
:1046600086292629A72966290B32D55BEC4A463ACA
:104670000C32104B473A083A483A072AE731C73913
:10468000E739E731063A2542E6390842E631E531B5
:10469000C6210C2AF36BE9428A225B4C5964916370
:1046A000283ACA42D04BFF4FDFF7BFF7BFF7BFF73B
:1046B000BFF7DFF7DFFFDFFFDFFFDFFFFFFFFFFFFA
:1046C000FFFFFFFFFFFFFFFFFFFFFFFFFFFFFFFFFA
:1046D000DFFFDFF7BFF7BFF7DFFFFFFFDFF75EE7C3
:1046E0003EDF3EDF1EDFFED61EDF3EDF3EDF3EDF6B
:1046F0001EDF1EDFFED6FED6DED6BDCEBDCEBDCEC3
:104700009DCE9DCE7DC69DCE9DC69DC67EC65DBE00
:104710005DBE7DC69DC69DC69DCE9DCEBDCEBDCE89
:104720009DC69DC69DC69EC67DBE5DBE3DB61CB6E1
:104730001CB63DB63DB63DBE1DB6FCADDCADFCAD18
:104740001DB61DB6DDA5B97C1864F8631864F85B66
:1047500019641864F86319641964F8631864F863D9
:104760001864196419643864175C175C3022133BB1
:10477000D753F853F85B1864396C396C396C396469
:104780001864F863F8633964F86319643964186469
:104790001864F8631864F86318641864396C186452
:1047A000396C1864396C186439641864F863396CAE
:1047B00018643964396C396C596C396C1864396C0B
:1047C0001864186418641864396C396C396C18648E
:1047D0001864396C79745A743A6C7974796C395CF0
:1047E000763BB54395432F3BB1329653B34BEE32F4
:1047F0008932072AA629E749E641CB216C3A0832DB
:10480000102B7653924B682A072AC711F953F86385
:10481000AF4A87318529A631A5298631A739A73125
:10482000A629852165298739A631C631C631A63129
:10483000E739652945218631863145292529C73142
:10484000273AC639C73104216C42724B082A073215
:104850001043F25BA842A7310B2A6B32E729A63935
:10486000C531092A2C538752C539C739E639053273
:10487000E629EC29156C4B4B8822312B0E53073A55
:10488000A9210F43A642FF4FDFF7DFF7DFF7DFF77E
:10489000DFF7DFFFDFFFDFFFFFFFDFFFFFFFFFFFD0
:1048A000FFFFFFFFFFFFFFFFFFFFFFFFFFFFFFFF18
:1048B000FFFFFFFFDFFFFFFFFFFFFFFFDFF77EEFE1
:1048C0005EE73FDF3FDF1EDF1EDF1EDF3EDF1EDF56
:1048D000FED6FDD6DDD6DED6DED6BDCEBDCE9DCE95
:1048E0009DC67DC65DC67DC67DC65DBE7DC67DBEE0
:1048F0007DBE9DC6BECEBDCEBDCEBDCE9DCEBDCEF7
:10490000DECEBDCE9DC67DC65DBE1CB61CB61CB639
:104910003DB65DBE3DBEFCB5FCADFCADDCA5DCAD81
:10492000DDADFEADFA8C176C1864F863F85BF85BCC
:104930001864F863186419641864186418641864B7
:1049400018641964F8631864185CB653CF11F75BE8
:10495000B753385C964B1864F863186C386C38643D
:1049600018641864186418641864D75B396C186488
:1049700018641864186418641864396C1964596CE4
:10498000396C396C596C18641964396C1864186482
:10499000F863396C386C386C1864386C186C396C86
:1049A000F863F863186C396C386C186C396C396CB6
:1049B000396C396C396C396C3A6C1974586C3864D0
:1049C000B74B96430E33CA322E22D65BCD3A692AB4
:1049D00069328B3AC929A829A519922A9453693AB0
:1049E000EB199A4337644E43EC32EF329032B853AE
:1049F000F66BC5318631C73186318631C739A6316C
:104A0000852984292321042924218529A631A63139
:104A1000C631A631A631E739A6318631A8398729B2
:104A200007320642C63144218821EB210832E831A1
:104A30006C224A1A6842C8396C3A326C483A853955
:104A4000E641292A693A674A063AA631E63906322A
:104A500007322B328D424732262A082AC63964296A
:104A60008E32EF3AE341FF4FDFF7DFF7DFFFDFFF83
:104A7000DFF7DEF7DFF7DFF7DFFFDFFFFFFFFFFF27
:104A8000FFFFFFFFFFFFFFFFFFFFFFFFFFFFFFFF36
:104A9000FFFFFFFFFFFFFFFFDFFFFFFFDFF7BFEFBE
:104AA0007FEF5FE75FDF5FE73EDF3EDF1EDF1EDF9A
:104AB000FED6DDD6BDCEDED6BDCEBDCEBDCE9DC62C
:104AC0009DC67DC65DBE7DC67DC65DC67DC67DC6F6
:104AD0009DC69DC6BDCEBDCEBDCEBECE9DCE9DCE0D
:104AE000BDCEDDCE9DC67DC65DBE3CB63DB61CB618
:104AF0003DB63DB63CB61CB6FCADDCA57B9D9C9D91
:104B00001A8DDA843874F76318643964F85B1864B2
:104B1000186438641864186418641864396C18646C
:104B2000D75BF863196418645964143B712A3964BB
:104B3000F85B7964B7531864596C1864396C596C14
:104B4000396C396C396C18641864F863396C186402
:104B5000396C396CF8631864596C396C396C396C80
:104B6000396C196C186C1864F8631864396CF86344
:104B70001864386C596C596C596C596C596C396C97
:104B8000186C186C396C396C396C1864396C396C68
:104B9000396C186C186C396C396C196C386C596C30
:104BA0005A6CB553C92AAB2A5043504B693A6A3202
:104BB0006C32D463D45BED2ACD22D94BB64B282A74
:104BC000C731B5433343D453785C3964072A0F3374
:104BD000124C242A8531A731A731C631A531A6311F
:104BE00085316429232124296529A631A631C631BE
:104BF000A631A63186298631C73165292421452170
:104C000066294529C631273A67190A2A6A3AE739D7
:104C10004A222E3B6942E739E829082AC731A641D2
:104C2000E641283A082A0732073AE631C631E73921
:104C3000E7314942A629232123296539C7318C4A06
:104C4000D3536F4BC641FF4FDFF7DFFFDFFFDFFFBF
:104C5000DFFFDFFFDFFFDFFFDFFFDFFFDFFFFFFF44
:104C6000FFFFFFFFFFFFFFFFFFFFFFFFFFFFFFFF54
:104C7000FFFFFFFFFFFFDFFFFFFFDEFFDEF7BFF7F6
:104C80007FE75FE73FDF3FDF3EDF3EDF1ED7DDD65A
:104C9000FED6FED6DDD6BDCEBDCE9DC6BDCE9DC652
:104CA0009DC69DC67DC67DC67DC67DBE7DC67DC6B4
:104CB000BECEBDCE9DC6DECEBDCEDECEBECE9DCEA0
:104CC000BDCEBDCE7DC67DBE5DBE3DBE3DBE1CB66D
:104CD0003DB65DBE3DB61DB6DCA5DDA53B951B8D85
:104CE000DA84176CF863F85BF85B3864386418642E
:104CF00018643964396C396C396CF863F86338645A
:104D00001864D863196439645964D232F43A196466
:104D1000D85B595CD7531864186418641864396CEC
:104D2000396C1864186C396C1864396C18643964FF
:104D3000396C1864396C396C396C396C1864596C7D
:104D4000186CF863386C596C18641864396C3864E2
:104D5000386C596C7974596C596C596C7974596CFC
:104D6000396C396C386C396C596C596C596C396CBC
:104D7000396C386C396C3A6C3A6C57645764376CE0
:104D80005974186CB34B533B9043682A4B32B4228E
:104D90001834595455532F4BED32CE3AC929892135
:104DA0006C210F2B2F1A374BF95BAB3AA639292A06
:104DB000EB320532A631A731A731C639A4316529B6
:104DC0006629652964298631C631A631A631E739BD
:104DD000A631A631A63186316529452943216329AB
:104DE0000321E5186929525BCE420732E631053AC4
:104DF0004B3293536A3AE329E731A731E841A639A8
:104E0000E541C531C629E729E731C631A631C631AA
:104E1000E7390642A4314431242903116F12144C9E
:104E2000175CF55B494BFF4FDFFFDFFFDFFFDFF76D
:104E3000DEF7DFF7DFF7DFF7DFFFDFFFDFFFFFFF83
:104E4000FFFFFFFFFFFFFFFFFFFFFFFFFFFFFFFF72
:104E5000FFFFFFFFFFFFDFFFDFFFDEFFDFF79EEF5C
:104E60003EE71EDF1EDF3EDF3EDF1EDF1EDF1EDFF2
:104E7000FDD6DDD6BDD6DDD6BDCE9DC69DC69DC6B2
:104E80009DC69DC69DC69DC67DC67DC67DC69DCE62
:104E9000BDCEBDCEBDCEDECEDECEBDCEBECEBECE76
:104EA0009DC69DC67DC67DC65DBE3DBE3DBE3DBEAA
:104EB0003DBE5DBE1CB61DB69B9D5B953B8D79745A
:104EC000386C396C19641964F85B186439641864B7
:104ED00018641864396C596C396CF863F863386479
:104EE000F863F96BF8631864F753922A964B3A6C9F
:104EF000B85B385C185C1864186C18641864186423
:104F00001864186CF86318641864396C18641864B1
:104F1000F863F85B3964186419641864386C386C89
:104F2000396CF863396C396C596C396C396C186CA4
:104F3000396C596C596C586C386C79747974596C3B
:104F4000396C596C396C596C396C396C596C386CDA
:104F5000186C386C396C396C5964586C396C3A641B
:104F600019643864D863F75BF75313336F225743E0
:104F70009964586CF763B4530E3B4A3A8629E8218A
:104F80006F2AF1320C3368220A3A8939E739C53180
:104F90004842C731652967296631C53183294521D2
:104FA000673186318531A629A631A631853165293B
:104FB0008529A631A631A63185298529652124298F
:104FC000253145214621E9214932053A2942084245
:104FD000E929D1323764CA32C629E539263A07327F
:104FE0000632073A063AE5398731A631C531A5318F
:104FF000C6318529A531663147212C2A983B154CAD
:105000006D4B4B2AB653FF4FDFFFDFFFDFFFDFFFA4
:10501000DFFFDFFFDFFFDFFFFFFFFFFFFFFFFFFF20
:10502000FFFFFFFFFFFFFFFFFFFFFFFFFFFFFFFF90
:10503000FFFFDFFFDFFFDFFFDFFFDFFFDFF79FEFB8
:105040003EDFFED6FDD63EDF3EDF1EDF3EDF3EDF2B
:10505000FED6DDCEBDCEBDCEBDCEBDCEBDCEBDCE8F
:10506000BDCEBDCEBDCEBDCE7DC67DC69EC69EC6C6
:10507000BDC6BDCEBDCEBDCEBDCEBDCEBDCEBDCEE0
:105080007DCE7CC69CC67DBE3FBE3EBE5CB63BAE02
:105090001CAE5DBE3DB6FDAD3B8DD97C9974386CC0
:1050A000F763396C1964396CF863186439641864EF
:1050B000396C396C1864396C396C186C186CF85B85
:1050C0001864F963F75B3764964B8E09B7533A6CF3
:1050D000F75B3964D75B396C386C596C386C186481
:1050E000596C396C186C386C376C38643A643A64B3
:1050F000186437643864F8633964186C186C196480
:105100003A6C396C1864386C5974596C396C386C59
:10511000396C7A747A747974596C59745974186C3E
:10512000396C5974386C59745974596C596C396CA0
:10513000186C186C386C396C79747974596C5A6CB9
:105140003964386C3A6C596C596C5A6459645A6CAD
:105150007874587459743864123B3343B02AF02A77
:10516000F7535A640F5C252A87318939E931283A87
:10517000A7314729842947294629A5316429462191
:10518000A731C631A631A63186316531442923299C
:1051900024298531C731C731C731A6310B22092AED
:1051A000C531C831EC216B22C619E73909422832D2
:1051B000A7218E3AB55B8A422732263AE531073A73
:1051C0000832E739063AC5318631A631A631A53114
:1051D000842985298729653165318821D0320D4B95
:1051E000053A8729902AFF4FDFFFDFFFDFFFDFFF50
:1051F000DFFFDFFFDFFFDFFFDFFFFFFFFFFFFFFF5F
:10520000FFFFFFFFFFFFFFFFFFFFFFFFFFFFFFFFAE
:10521000FFFFDFFFDFFFDFFFDFF7DFF7BFF77FE72E
:105220003EDF3EDF3EDF5FE73EDF1EDF3EDF3EDF8D
:10523000FED6DDCEBDCEDECEBDCEDECEBDCEBDCE6B
:10524000BECEBDCEBDCEBDCEBDCE9DCE9EC69EC673
:105250009DC69DCE9DCEBDCE9DCEBDCE9DCE9DC6C6
:105260007DCE7DC67CBE7CB63FBE1EBE3CB63BAE90
:105270005CB63DBEBCA59C95997C376C386CF863D8
:10528000186C1864386C1864F863F8631864F86371
:10529000F863196C18641864396C196C186C18640C
:1052A000396CF863586C786CD33AAF11195C396477
:1052B00017643964D75B396C596C386C596C186C4D
:1052C000396C396C596C386C176C586C3A645B6C7F
:1052D0003864175C396419643864386C396C3A6C1A
:1052E0003A643964586C38743974196C596C59744F
:1052F0007974596C596C7974396C5974396C597466
:10530000596C7974596C386C59747A745974186C76
:10531000596C396C386C596C79745974596C79744E
:10532000596C386C386C7974596C396C7A6C796C4E
:10533000586C5874386C5964D853B743184CF74BB1
:10534000954B734BCA3AC5318831C739CA290B4BC3
:10535000A529262984296629452185298629A73159
:10536000073AC63186314529252945292529252190
:1053700045298631E729C721AC424B3A4D22125CC0
:10538000CA4A0B3A8F22ED3A072A283AE7418D2A7A
:105390004A324721A929273A473AE731E739063AFD
:1053A000E739073AE631C529A631A631A731662982
:1053B0004421242107214429633166318619441987
:1053C0002521C929CC3AFF4FDFFFFFFFDFFFDFFFB9
:1053D000DFFFDFFFDFFFDFFFDFFFDFFFFFFFFFFF9D
:1053E000DFFFDFFFFFFFFFFFFFFFFFFFFFFFFFFF0D
:1053F000FFFFFFFFDFFFDFFFBFF7BFF77EE73EE7FF
:105400001EDF1EDF3EDF5FDF3EDF1EDF3EDF1EDF13
:10541000FED6DDCEBDCEDECEBDCEBECEBDCEBDCEA9
:105420009DCEBDCEBDCEBDCEBECE9DC69ECE9DCEAA
:105430009DCE9DC69DC6BECE9EC69EC69DC69DC621
:105440007DC67EBE7EBE5CBE7CBE1DBE3EBE3CB684
:105450001BAEFCAD7C9D997CF763386C396CF863AE
:10546000396C1964596C1864F8631864396C1864E1
:1054700018641864196C1864186C396C396C386CC1
:105480003974186C18645864B03A722A5A6C396CC2
:10549000F7633964D75B3864396C186C386C1864FE
:1054A000396C396C186C396C3A6C196CF86B58643F
:1054B000796C1A643A645A64376C3864586C396C85
:1054C0005A74396C786C386C39745A74796C797494
:1054D0007974396C396C7974396C396C396C5974EC
:1054E000596C386C396C596C596C59745974186C06
:1054F00059747974396C396C597479745974797434
:105500007974386C1864596C386C596C5B747974A4
:10551000396C596C7864585C1854165C934B123B88
:105520006F2AAA32052A0632E73905320A32673273
:10553000A32187318631232144296629A631E63902
:10554000E739A631652945216529A52988216919E9
:105550002B2AEE52CB4A072A0F43F563914BAE3A02
:105560006E4ACA31A411042148424943A7319843E5
:10557000504B23212429C629E8412B4AC839053A32
:10558000E441E539A5318529A629A5318631662969
:105590004521652147318531853186392321C91956
:1055A000F2323143EA4AFF4FDFFFDFFFDFFFDFFF69
:1055B000DFFFDFFFDFFFDFFFDFFFDFFFFFFFFFFFBB
:1055C000DFFFDFFFFFFFFFFFDFFFFFFFFFFFDFFF6B
:1055D000FFFFFFFFDFFFDFFFBFF77EEF1DDF1EDFF7
:1055E000FED6DDD61ED75FDF5FE73EDF1EDF1EDFA4
:1055F000FED6DDCEDDCEDECEBECEBDCEBECEBDCEA7
:10560000BDCEBDCEBECEBDCEBECEBECE9DCE9DCE7F
:105610009DCE9DC69EC6BEC6BEC6DEC6BDC6BEC6A5
:10562000DEC6BEC69FCE9FC63BC65DBE1DB6DBB501
:105630001CAEBCA51B8D186CF8631864F863186465
:1056400019641964196439641864596C596C1864C4
:10565000396C596C396C1864196C1964396C38647C
:10566000196C3874396439640B2AF43A7A6C386CE2
:10567000186C39641864F75B1864186C596C396CD1
:10568000F863F863386C5A6C5B6C1B6CFA73196CBA
:105690005453903AB13A97535D745A5C5764376CDF
:1056A0003974396C3764586C3974F96B796C797466
:1056B00059747974596C59749A7479745974396C31
:1056C000396C597479745974596C396C396C5974D2
:1056D0007974396C596C7974797459745974797412
:1056E00079747974386C386C596C7974377478744F
:1056F0005A6C1B5C3A5C3954185CD2532D4B8A327D
:105700003033945327320432C631E731E831E63181
:10571000E631093286312121642987318631A4316D
:10572000C631C731C731A629A731C539C3310722D0
:105730003633D64B10430832C72912433564A821AB
:105740000421642165212919343B3233C921AC324B
:10575000A829242903194A224F53AE324E43483216
:10576000E831A631A6318731A729E539A539A53118
:10577000A521A429663167298629232103292B32F3
:10578000B443D4538A42FF4FDFFFFFFFFFFFFFFF09
:10579000DFFFDFFFDFFFDFFFDFFFDFF7DFFFFFFF01
:1057A000DFFFDFFFFFFFDFFFDFFFDFFFDFFFDFFFE9
:1057B000FFFFDFF7BEF7DFF7BFF77EE73EDF1EDF55
:1057C000FED6FED61ED73FDF3FDF1ED7FED6FED663
:1057D000FED6DDCEDDCEDDCEDECEBDCEBDCEBDCEA7
:1057E000DECEBDCEBDCEDECEDDCEDDCEBDCE9DCEFF
:1057F000BDCEBECE9EC69EC6BECEDECEDDCE1AB617
:1058000053741274F27BD8941DBE3CAE1BAEDBAD5C
:105810009C9D5C8D9A74396C386C18643964196479
:10582000F863F863186439641864386C396C396C3F
:10583000596C396C1864396C1864186418643864CD
:10584000196C18745A64964B271176437A64186C55
:10585000F86B5964F75B3864386C79747974396C17
:105860001864186C1864576C596C5A6C3864F04A98
:10587000A931E731283A8A2116439B5C3864377492
:10588000F8735A6C996C586C39745A74586C7974F2
:10589000597479745974396C79745974386C386CDA
:1058A0005974596C79747A7479745974396C59745F
:1058B000597459745974596C59745974596C596C98
:1058C000386C7A747974596C7974797458743A7440
:1058D000396C39645A64175414548C326D5B6932D4
:1058E000B533F65BED4AA529E731C531A739C94182
:1058F000C831E8318731A531C639A739A6318429A5
:105900008629A731A631C631A731A631C529C529B7
:105910008629A929ED21AF3A8D32082A0832442977
:105920002431473123294621C829241986290721F2
:105930004621E839E8318B3A493A8B32EC3A284231
:105940002D32E72986318631A531C431A631C731E0
:10595000852963296529642164210319E428042128
:105960008629293A8639FF4FDFFFFFFFFFFFDFFF60
:10597000DFFFDFFFDFFFDFFFDFFFDFFFDFFFDFFF37
:10598000DFF7DFF7DFFFDFFFFFFFFFFFDFFFDFFFF7
:10599000DFF7DFF7BFF7BFEF9FEF5EE73EDF1EDF0A
:1059A0001ED71ED71ED71ED71ED7FED6DECEDDCE03
:1059B000DDCEDED6DDCEDDCEFED6BDCEBDCEBDCEBD
:1059C000DED6DDCEBDCEDDCEDED6DDCEBDCEBECECC
:1059D0009ECEBECEBECE9DC6DDD63AC64E63E8395B
:1059E000C939AB52AA5AE728B97C7EB69B9D9D9DCA
:1059F0001A959A7C18641864396C1864396439648F
:105A0000F86318643964F8631864386C186C386C7F
:105A1000396C396C386C186C1864396C18643864DB
:105A2000186C186C3964543B6919175C395C19643B
:105A3000F8633964F8633864596C596C596C396C83
:105A40001864396C386C576C396C3864303BC83129
:105A50002A52695A8A5A6B528B19F84B796C5874CE
:105A6000397C5A6C5864796C5A7C3974586C386C2F
:105A7000386C7974797459745974396C1864396C48
:105A80005974186C5974597459745974396C59741F
:105A9000597459747974597459747974396C797466
:105AA0007974596C596C7A747974797459745A741C
:105AB0007974796C5964F5538C2A0E438D5B693285
:105AC000122B30438C420832A942453AA739A739F4
:105AD000E639C629A829C829E831C731C631863137
